:020000040800F2
:1000000000500020D5290008B11E0008B71E0008C6
:10001000BD1E0008C31E0008C91E00080000000025
:10002000000000000000000000000000CF1E0008DB
:10003000DB1E000800000000E71E0008F31E000899
:100040001D2A00081D2A00081D2A00081D2A000874
:100050001D2A00081D2A00081D2A00081D2A000864
:100060001D2A00081D2A00081D2A00081D2A000854
:100070001D2A00081D2A00081D2A00081D2A000844
:100080001D2A00081D2A00081D2A00081D2A000834
:100090001D2A00081D2A00081D2A00081D2A000824
:1000A0001D2A00081D2A00081D2A00081D2A000814
:1000B000011F0008151F00081D2A00081D2A00083E
:1000C0001D2A00081D2A00081D2A00081D2A0008F4
:1000D0001D2A00081D2A0008291F00081D2A0008E3
:1000E0001D2A00081D2A00081D2A00080000000023
:1000F0000000000000000000000000000000000000
:0C01000000000000000000005FF808F1A3
:1001100010B5054C237833B9044B13B10448AFF341
:1001200000800123237010BDAC00002000000000FF
:10013000EC52000808B5034B1BB103490348AFF369
:10014000008008BD00000000B0000020EC52000854
:1001500081F0004102E000BF83F0004330B54FEA78
:1001600041044FEA430594EA050F08BF90EA020FE5
:100170001FBF54EA000C55EA020C7FEA645C7FEA78
:10018000655C00F0E2804FEA5454D4EB5555B8BF9B
:100190006D420CDD2C4480EA020281EA030382EA0C
:1001A000000083EA010180EA020281EA0303362D9E
:1001B00088BF30BD11F0004F4FEA01314FF4801C71
:1001C0004CEA113102D0404261EB410113F0004F83
:1001D0004FEA03334CEA133302D0524263EB43033A
:1001E00094EA050F00F0A780A4F10104D5F1200ED8
:1001F0000DDB02FA0EFC22FA05F2801841F1000133
:1002000003FA0EF2801843FA05F359410EE0A5F106
:1002100020050EF1200E012A03FA0EFC28BF4CF037
:10022000020C43FA05F3C01851EBE37101F00045ED
:1002300007D54FF0000EDCF1000C7EEB00006EEBFA
:100240000101B1F5801F1BD3B1F5001F0CD3490884
:100250005FEA30004FEA3C0C04F101044FEA4452DB
:1002600012F5800F80F09A80BCF1004F08BF5FEA62
:10027000500C50F1000041EB045141EA050130BD42
:100280005FEA4C0C404141EB0101013C28BFB1F554
:10029000801FE9D291F0000F04BF01460020B1FA9F
:1002A00081F308BF2033A3F10B03B3F120020CDA72
:1002B0000C3208DD02F1140CC2F10C0201FA0CF050
:1002C00021FA02F10CE002F11402D8BFC2F1200CB5
:1002D00001FA02F120FA0CFCDCBF41EA0C0190406B
:1002E000E41AA2BF01EB0451294330BD6FEA0404B4
:1002F0001F3C1CDA0C340EDC04F11404C4F120029F
:1003000020FA04F001FA02F340EA030021FA04F3B0
:1003100045EA030130BDC4F10C04C4F1200220FA07
:1003200002F001FA04F340EA0300294630BD21FA45
:1003300004F0294630BD94F0000F83F4801306BF0B
:1003400081F480110134013D4EE77FEA645C18BFFF
:100350007FEA655C29D094EA050F08BF90EA020F96
:1003600005D054EA000C04BF1946104630BD91EA8E
:10037000030F1EBF0021002030BD5FEA545C05D191
:100380004000494128BF41F0004130BD14F58004D0
:100390003CBF01F5801130BD01F0004545F0FE4144
:1003A00041F470014FF0000030BD7FEA645C1ABF79
:1003B000194610467FEA655C1CBF0B46024650EAB0
:1003C000013406BF52EA033591EA030F41F40021DC
:1003D00030BD00BF90F0000F04BF0021704730B562
:1003E0004FF4806404F132044FF000054FF0000137
:1003F00050E700BF90F0000F04BF0021704730B5F8
:100400004FF4806404F1320410F0004548BF4042CC
:100410004FF000013EE700BF42004FEAE2014FEA21
:1004200031014FEA02701FBF12F07F4393F07F4FFC
:1004300081F06051704732F07F4208BF704793F0FF
:100440007F4F04BF41F40021704730B54FF4607412
:1004500001F0004521F000411CE700BF50EA010215
:1004600008BF704730B54FF000050AE050EA0102BE
:1004700008BF704730B511F0004502D5404261EB2E
:1004800041014FF4806404F132045FEA915C3FF46F
:10049000D8AE4FF003025FEADC0C18BF03325FEA0C
:1004A000DC0C18BF033202EBDC02C2F1200300FABD
:1004B00003FC20FA02F001FA03FE40EA0E0021FAE2
:1004C00002F11444BDE600BF70B54FF0FF0C4CF4D0
:1004D000E06C1CEA11541DBF1CEA135594EA0C0F82
:1004E00095EA0C0F00F0DEF82C4481EA030621EABD
:1004F0004C5123EA4C5350EA013518BF52EA0335F8
:1005000041F4801143F4801338D0A0FB02CE4FF0A9
:100510000005E1FB02E506F00042E0FB03E54FF0D9
:100520000006E1FB03569CF0000F18BF4EF0010ED1
:10053000A4F1FF04B6F5007F64F5407404D25FEACD
:100540004E0E6D4146EB060642EAC62141EA555180
:100550004FEAC52040EA5E504FEACE2EB4F1FD0CC2
:1005600088BFBCF5E06F1ED8BEF1004F08BF5FEA40
:10057000500E50F1000041EB045170BD06F00046F2
:1005800046EA010140EA020081EA0301B4EB5C049F
:10059000C2BFD4EB0C0541EA045170BD41F4801197
:1005A0004FF0000E013C00F3AB8014F1360FDEBFBC
:1005B000002001F0004170BDC4F10004203C35DA98
:1005C0000C341BDC04F11404C4F1200500FA05F31B
:1005D00020FA04F001FA05F240EA020001F00042BC
:1005E00021F0004110EBD37021FA04F642EB060132
:1005F0005EEA430E08BF20EAD37070BDC4F10C045C
:10060000C4F1200500FA04F320FA05F001FA04F21F
:1006100040EA020001F0004110EBD37041F100010B
:100620005EEA430E08BF20EAD37070BDC4F1200516
:1006300000FA05F24EEA020E20FA04F301FA05F27E
:1006400043EA020321FA04F001F0004121FA04F226
:1006500020EA020000EBD3705EEA430E08BF20EAF6
:10066000D37070BD94F0000F0FD101F00046400030
:1006700041EB010111F4801F08BF013CF7D041EAB2
:10068000060195F0000F18BF704703F000465200B6
:1006900043EB030313F4801F08BF013DF7D043EA87
:1006A0000603704794EA0C0F0CEA135518BF95EA3D
:1006B0000C0F0CD050EA410618BF52EA4306D1D1C4
:1006C00081EA030101F000414FF0000070BD50EAE3
:1006D000410606BF1046194652EA430619D094EA6D
:1006E0000C0F02D150EA013613D195EA0C0F05D157
:1006F00052EA03361CBF104619460AD181EA0301AB
:1007000001F0004141F0FE4141F470014FF0000062
:1007100070BD41F0FE4141F4780170BD70B54FF0FD
:10072000FF0C4CF4E06C1CEA11541DBF1CEA13557D
:1007300094EA0C0F95EA0C0F00F0A7F8A4EB05045F
:1007400081EA030E52EA03354FEA013100F0888056
:100750004FEA03334FF0805545EA131343EA12631F
:100760004FEA022245EA111545EA10654FEA0026D4
:100770000EF000419D4208BF964244F1FD0404F58D
:10078000407402D25B084FEA3202B61A65EB0305E9
:100790005B084FEA32024FF480104FF4002CB6EBA6
:1007A000020E75EB030E22BFB61A754640EA0C0026
:1007B0005B084FEA3202B6EB020E75EB030E22BF66
:1007C000B61A754640EA5C005B084FEA3202B6EBA7
:1007D000020E75EB030E22BFB61A754640EA9C0066
:1007E0005B084FEA3202B6EB020E75EB030E22BF36
:1007F000B61A754640EADC0055EA060E18D04FEAF4
:10080000051545EA16754FEA06164FEAC30343EA93
:1008100052734FEAC2025FEA1C1CC0D111F4801F60
:100820000BD141EA00014FF000004FF0004CB6E759
:1008300011F4801F04BF01430020B4F1FD0C88BFF8
:10084000BCF5E06F3FF6AFAEB5EB030C04BFB6EB03
:10085000020C5FEA500C50F1000041EB045170BDF6
:100860000EF0004E4EEA113114EB5C04C2BFD4EB23
:100870000C0541EA045170BD41F480114FF0000EA7
:10088000013C90E645EA060E8DE60CEA135594EA23
:100890000C0F08BF95EA0C0F3FF43BAF94EA0C0F26
:1008A0000AD150EA01347FF434AF95EA0C0F7FF49B
:1008B00025AF104619462CE795EA0C0F06D152EAEF
:1008C00003353FF4FDAE1046194622E750EA4106D3
:1008D00018BF52EA43067FF4C5AE50EA41047FF4E4
:1008E0000DAF52EA43057FF4EBAE12E74FF0FF3C49
:1008F00006E000BF4FF0010C02E000BF4FF0010C1A
:100900004DF804CD4FEA410C7FEA6C5C4FEA430C92
:1009100018BF7FEA6C5C1BD001B050EA410C0CBFE1
:1009200052EA430C91EA030F02BF90EA020F002043
:10093000704710F1000F91EA030F58BF994208BFAA
:1009400090422CBFD8176FEAE37040F00100704767
:100950004FEA410C7FEA6C5C02D150EA013C07D1BE
:100960004FEA430C7FEA6C5CD6D152EA033CD3D009
:100970005DF8040B704700BF8446104662468C4603
:100980001946634600E000BF01B5FFF7B7FF002836
:1009900048BF10F1000F01BD4DF808EDFFF7F4FF5F
:1009A0000CBF012000205DF808FB00BF4DF808EDEA
:1009B000FFF7EAFF34BF012000205DF808FB00BF0D
:1009C0004DF808EDFFF7E0FF94BF012000205DF82F
:1009D00008FB00BF4DF808EDFFF7CEFF94BF0120E4
:1009E00000205DF808FB00BF4DF808EDFFF7C4FFDD
:1009F00034BF012000205DF808FB00BF4FEA410230
:100A000012F5001215D211D56FF47873B3EB625260
:100A100012D94FEAC12343F0004343EA505311F087
:100A2000004F23FA02F018BF404270474FF0000019
:100A3000704750EA013005D111F0004008BF6FF057
:100A4000004070474FF00000704700BF80B500AF16
:100A50001D4B1B68002B02D0012B0AD01BE000208D
:100A600000F038F8184B01221A600A2001F0A2FAAF
:100A700028E0164B1B68012B21D1012000F02AF839
:100A8000134B1B68032B02DD114B00221A60FA2066
:100A900001F090FA13E00D4B1B68012B11D10A4BAA
:100AA0001B68184600F016F8094B1B68032B02DD83
:100AB000074B00221A60FA2001F07CFA01E000BF27
:100AC00000E000BF00BF80BDD40000201C0100205A
:100AD000C800002080B582B000AF7860744B1B68FE
:100AE000042B00F2DD8001A252F823F0010B000874
:100AF0000F0B0008B70B0008050C0008530C00088A
:100B00000A2001F027FB6A4B01221A60CBE0694BF7
:100B10001B68012B40F0C680674B1B68013B664A8F
:100B20001360664B1B68013B644A1360624B1B6891
:100B3000002B02DA604B00221A60604B1B68002B0E
:100B400002DA5E4B00221A605B4B1B685C4A82FB38
:100B500003129210DB17D31A5A4A1360564B1968C6
:100B6000574B83FB01239A10CB17D21A13469B00D5
:100B700013445B00CA1A534B5A60504B1968504BD0
:100B800083FB01239A10CB17D21A13469B00134400
:100B90005B00CA1A4B4B9A60484B1B68484A82FB61
:100BA00003129210DB17D31A464AD3604FF47A70BF
:100BB00001F0D0FA76E0434B00221A603C4B1B68F0
:100BC000404A5360404B1B68404A82FB031292111B
:100BD000DB17D11A3A4B83FB01239A10CB17D21A99
:100BE00013469B0013445B00CA1A364B9A60364B7F
:100BF0001B68374A82FB03121213DB17D31A314AE0
:100C0000D36050E02F4B00221A60294B1B682D4AFD
:100C10005360304B1B682D4A82FB03129211DB1785
:100C2000D11A274B83FB01239A10CB17D21A1346F4
:100C30009B0013445B00CA1A224B9A60254B1B6829
:100C4000234A82FB03121213DB17D31A1D4AD36007
:100C500029E01C4B00221A60154B1B68194A53608F
:100C60001D4B1B68194A82FB03129211DB17D11A24
:100C7000134B83FB01239A10CB17D21A13469B0008
:100C800013445B00CA1A0F4B9A60134B1B68104A3F
:100C900082FB03121213DB17D31A0A4AD36002E055
:100CA00000BF00E000BF00BF0837BD4680BD00BFE9
:100CB000D40000205C010020D8000020DC000020CF
:100CC000676666660C00002000000020D34D6210AD
:100CD000AD8BDB68040000200800002080B582B0E6
:100CE00000AF00237B6069E0384A7B6813441B78BF
:100CF000022B3AD0022B57DC002B02D0012B19D04B
:100D000052E0786800F0CEFA0346002B4ED02F4A0E
:100D10007B68134401221A70786800F05FF87B68E2
:100D2000012B43D12A4B1B68012B3FDD0A2001F028
:100D3000A9F93BE0786800F0B5FA0346002B05D12D
:100D4000224A7B68134400221A7031E0786800F070
:100D5000C3FA0346002B2BD01C4A7B6813440222A3
:100D60001A700A2001F0A8F922E0786800F09AFAD7
:100D70000346002B05D1154A7B68134400221A70E4
:100D800018E07B68022B15D1124B1B68012B11D187
:100D9000114B1B68002B0DD1786800F01FF84FF441
:100DA0007A7001F089F905E000BF04E000BF02E0BD
:100DB00000BF00E000BF7B6801337B607B68032BD2
:100DC00092DD00BF00BF0837BD4680BDF80000209F
:100DD000D400002044010020EC00002080B582B047
:100DE00000AF78607B68032B00F29F8101A252F86C
:100DF00023F000BFD9100008050E0008E70E000818
:100E0000DD0F0008A04B1B68591CA04B83FB01237E
:100E10005A10CB17D21A13469B001344CA1A9A4B86
:100E20001A609B4B1B689B4A13609B4B1B689B4A39
:100E300013609B4B1B689B4A13609B4B00221A60FC
:100E4000914B1B68002B08D101F034FD974B002219
:100E50001A60974B00221A601AE0944B0C221A6019
:100E6000934B0C221A6000224FF48061914802F0EB
:100E700092F900220821904802F08DF900222021E9
:100E80008D4802F088F9002210218B4802F083F986
:100E90008A4B1B68002B00F04A817B4B1B68002BA0
:100EA0000FD1032000F092FE01230022002184488C
:100EB00000F0E8FD022300220121824800F0E2FD5B
:100EC00038E1714B1B68022B40F03181012000F0AA
:100ED0007DFE022000F07AFE0323192201217A48C8
:100EE00000F0D0FD23E1684B1B68013B032B73D856
:100EF00001A252F823F000BF090F0008730F000889
:100F0000950F0008B70F0008674B01221A6040F6E2
:100F1000B83001F005F9694B1B68002B0FD0012098
:100F200000F054FE022000F051FE042000F04EFEBE
:100F3000042300224FF49671644800F0A3FD5B4B3C
:100F40001B68032B0AD0032B0FDC012B02D0022BD2
:100F500008D00AE0554B02221A6007E0534B0122E9
:100F60001A6003E0514B03221A6000BF01F0C6F97A
:100F700033E0484B1B6803F57A72554B83FB021331
:100F80001913D317CB1A534901FB03F3D31A414A60
:100F9000136022E0414B1B6803F57A724C4B83FBD4
:100FA00002131913D317CB1A4A4901FB03F3D31ABF
:100FB0003A4A136011E03B4B1B6803F57A72444BCD
:100FC00083FB02131913D317CB1A424901FB03F316
:100FD000D31A344A136000E000BFABE02A4B1B6811
:100FE000013B032B4ED801A252F823F0FD0F00085D
:100FF00069100008731000087D1000082A4B0122B8
:101000001A6040F6B83001F08BF82C4B1B68002BAF
:101010000FD0012000F0DAFD022000F0D7FD0420FF
:1010200000F0D4FD042300224FF49671274800F00D
:1010300029FD1F4B1B68032B0AD0032B10DC012B4F
:1010400002D0022B08D00BE0194B02221A6008E0F4
:10105000174B01221A6004E0154B03221A6000E0CE
:1010600000BF01F083F90EE00A4B1B68084A1360C9
:1010700009E00A4B1B68084A136004E0094B1B682F
:10108000074A136000BF55E0D4000020676666661B
:101090002000002000000020240000200400002088
:1010A0002800002008000020EC000020CC000020D8
:1010B000D000002000080140000C01401C0000206E
:1010C000E12400088D260008192800086529000879
:1010D0002178970AB8820100184B01221A60184B38
:1010E00001221A60174B1A68174B1B681A44174BDA
:1010F0001B6813445B00184600F0F8FF144B1B6894
:10110000002B16D0052000F061FD062000F05EFDEA
:101110000523002201210F4800F0B4FC0623002221
:1011200001210D4800F0AEFC03E000BF02E000BF6B
:1011300000E000BF0837BD4680BD00BFE8000020CA
:10114000E000002000000020040000200800002033
:101150001C000020D12300081113000880B582B0C4
:1011600000AF00237B6085E0474A7B681344197811
:10117000464A7B6813440A461A707B68032B3BD8A7
:1011800001A252F823F000BF99110008B111000824
:10119000C9110008E111000801213D4801F0E4FFF8
:1011A00003461946384A7B6813440A461A7024E0FD
:1011B0000221374801F0D8FF03461946324A7B68BE
:1011C00013440A461A7018E01021314801F0CCFF90
:1011D000034619462C4A7B6813440A461A700CE0F1
:1011E00001212C4801F0C0FF03461946264A7B68BE
:1011F00013440A461A7000E000BF234A7B68134478
:101200001A7822497B680B441B789A4208D11E4AFF
:101210007B6813441978204A7B6813440A461A7085
:101220001D4A7B6813441B78002B16D11B4A7B6830
:1012300032F81330632B0AD8184A7B6832F813301F
:10124000013399B2154A7B6822F813100FE0144A53
:101250007B68134401221A7009E0104A7B68002160
:1012600022F813100E4A7B68134400221A707B6820
:1012700001337B607B68032B7FF776AF00BF00BF35
:101280000837BD4680BD00BF30000020340000207C
:1012900000080140000C01402C000020000100204B
:1012A000FC00002080B483B000AF78607B68032B23
:1012B00001DD002308E0074A7B6813441B78002BFC
:1012C0000CBF01230023DBB218460C37BD4680BC9F
:1012D000704700BF2C00002080B483B000AF78605E
:1012E0007B68032B01DDFF2308E0074A7B6813447A
:1012F0001B78012B0CBF01230023DBB218460C37EF
:10130000BD4680BC704700BFFC000020000000000C
:10131000B0B582B000AF664B1B68002B02D0654BA6
:1013200001221A60644B1B68022B0ED1634B1B68B1
:10133000B3F1FF3F05D0614B1A68614B1B689A42BD
:1013400007DB5E4B00221A6003E05C4B4FF0FF327C
:101350001A60584B1B68012B40F0A080574B1B684C
:10136000002B61DB554B1B681846FFF743F804461A
:101370000D46534B1B681846FFF73CF84AA3D3E9C8
:101380000023FFF7A1F802460B4620462946FFF747
:101390000DFB0346002B47D0484B1B68322202FB53
:1013A00003F31846FFF726F804460D46444B1B6826
:1013B0001846FFF71FF83CA3D3E90023FFF784F892
:1013C00002460B4620462946FFF7A8F902460B467F
:1013D00010461946FFF712FB03467B60374B1B682C
:1013E0004FF4EB7202FB03F31846FFF703F80446D1
:1013F0000D46334B1B681846FEF7FCFF2AA3D3E9C2
:101400000023FFF761F802460B4620462946FFF706
:1014100085F902460B4610461946FFF7EFFA0346D8
:10142000C3F5FA733B6003E032237B601E233B600D
:10143000244B1B68002B13D0234B1B68002B07D1B8
:10144000214B01221A60214B1B6800225A630BE0DA
:101450001E4B1B687A685A631B4B00221A6003E01C
:101460001A4B1B6800225A63386800F0F1FD134BD9
:101470001A683B681344114A13600D4B1B68002B1C
:101480000CD03B68124A82FB03129210DB17D31A6E
:101490001946062300220F4800F0F4FA00BF08376F
:1014A000BD46B0BDAFF300809A9999999999E93FEB
:1014B0001C00002034010020CC000020E4000020AB
:1014C00000000020E000002008010020680100204A
:1014D000676666661113000880B582B000AF01F040
:1014E0009FFA00F035F800F061F900F073F800F0B1
:1014F000BDF800F031F9114802F0E8FA0021104877
:1015000002F08EFB01237B6000F0ACFA0123002285
:1015100000210C4800F0B6FA0223002201210A48FB
:1015200000F0B0FA0723FA220221084800F0AAFAD4
:1015300000F012FBFFF7D2FBFAE700BFB00100207A
:1015400068010020E12400088D2600084D0A0008EB
:1015500080B590B000AF07F118032822002118468B
:1015600003F0F8FD3B1D00221A605A609A60DA60B1
:101570001A610223BB610123BB621023FB620223B9
:101580007B630023BB634FF46013FB6307F1180315
:10159000184601F031FE0346002B01D000F082F91D
:1015A0000F237B600223BB600023FB604FF480634A
:1015B0003B6100237B613B1D0221184602F09CF831
:1015C0000346002B01D000F06DF900BF4037BD4647
:1015D00080BD000080B586B000AF07F1080300228F
:1015E0001A605A609A60DA603B4600221A605A60BC
:1015F0001D4B4FF080421A601B4B3F225A601A4B22
:1016000000229A60184B42F20F72DA60164B0022E9
:101610001A61154B00229A61134802F007FA03463B
:10162000002B01D000F03EF94FF48053BB6007F16E
:10163000080319460C4802F05BFD0346002B01D05D
:1016400000F030F900233B6000237B603B461946E5
:10165000054803F0D9F80346002B01D000F022F929
:1016600000BF1837BD4680BDB001002080B58EB0E8
:1016700000AF07F1280300221A605A609A60DA600E
:1016800007F1200300221A605A603B1D00221A60F5
:101690005A609A60DA601A615A619A612C4B2D4A3D
:1016A0001A602B4B3F225A60294B00229A60284B2C
:1016B00040F2E732DA60264B00221A61244B002206
:1016C0009A61234802F0B2F90346002B01D000F0E2
:1016D000E9F84FF48053BB6207F1280319461C4810
:1016E00002F006FD0346002B01D000F0DBF818489D
:1016F00002F03EFA0346002B01D000F0D3F800239D
:101700003B6200237B6207F120031946104803F077
:101710007BF80346002B01D000F0C4F860237B6007
:101720000023BB600023FB6000237B613B1D002284
:101730001946074802F01EFC0346002B01D000F0BA
:10174000B1F8034800F030FB00BF3837BD4680BD1C
:10175000680100200004004080B500AF114B124A20
:101760001A60104B4FF4C8525A600E4B00229A6018
:101770000C4B0022DA600B4B00221A61094B0C2241
:101780005A61084B00229A61064B0022DA61054833
:1017900003F0AAF80346002B01D000F083F800BF45
:1017A00080BD00BFF80100200044004080B586B035
:1017B00000AF07F1080300221A605A609A60DA60ED
:1017C0002E4B9B692D4A43F0040393612B4B9B697D
:1017D00003F004037B607B68284B9B69274A43F036
:1017E00008039361254B9B6903F008033B603B684A
:1017F00000224FF48761224801F0CDFC00224FF413
:10180000A061204801F0C7FC1323BB600023FB60EC
:1018100001233B6107F1080319461A4801F020FB38
:101820000123BB600023FB6001233B6107F1080338
:101830001946134801F014FB4FF48763BB60012382
:10184000FB6001233B6102237B6107F1080319461A
:101850000B4801F005FB4FF4A063BB600123FB6064
:1018600001233B6102237B6107F108031946054808
:1018700001F0F6FA00BF1837BD4680BD00100240E7
:10188000000C01400008014080B582B000AF7860D4
:1018900000F07AFCFFF762FC00F020F900BF083787
:1018A000BD4680BD80B400AF72B600BFFEE784B015
:1018B000B0B582B000AF07F1180484E80F0018201B
:1018C00003F038FC03467B607B681D4607F1180473
:1018D0000FCC0FC523682B607B6800225A617B68A0
:1018E00018460837BD46BDE8B04004B0704780B523
:1018F00082B000AF102003F01DFC03467B607B68C4
:1019000000225A607B685A687B681A607B680022F4
:101910009A607B680022DA607B6818460837BD460B
:1019200080BD84B080B588B002AF786007F1240034
:1019300080E80E007B6B009307F124030FCBFFF7C9
:10194000B6FFF8607B689B685A1C7B689A607B686E
:101950001B68002B0CD17B68FA685A607B685A6858
:101960007B681A60FB685B681A467B68DA604EE049
:10197000FB685B687A68D268934214D3FB685B6843
:10198000BB60FB685B687A68D2689A1AFB685A6029
:101990007B68BA68DA607B685B68FA685A617B6862
:1019A000FA685A6033E000237B617B681B683B6107
:1019B0002AE03B695A68FB685B689A4218D37B69E6
:1019C000002B07D17B681A68FB685A617B68FA684C
:1019D0001A6005E07B69FA685A61FB683A695A61E6
:1019E0003B695A68FB685B68D21A3B695A600EE033
:1019F000FB685A683B695B68D21AFB685A603B69AE
:101A00007B613B695B693B613B69002BD1D1183736
:101A1000BD46BDE8804004B0704780B584B000AFDB
:101A200078607B681B68002B17D07B689B685A1E08
:101A30007B689A607B681B68FB607B681B685A69DF
:101A40007B681A607B681B68002B02D17B680022D0
:101A50005A60F86803F076FB00E000BF1037BD461F
:101A600080BD000080B500AF044B00221A70FFF764
:101A70003EFF0346024A136000BF80BD0C010020F8
:101A80001001002090B58DB002AFF860B9607A60A7
:101A90003B60114B1B689B68272B19DCFB687B6143
:101AA000BB68BB617B68FB61002387F820303B6823
:101AB0007B62094B1C686A4607F1200393E8030028
:101AC00082E8030007F114030ECB2046FFF729FF3D
:101AD0002C37BD4690BD00BF1001002080B400AF80
:101AE0001C4B1B68002B2ED01A4B1B681B68002B4D
:101AF0002BD0184B1B681B685B68002B0AD0154B5A
:101B00001B681B685A68013A5A60124B1B68DA68F6
:101B1000013ADA600F4B1B681B685B68002B15D11C
:101B20000C4B1B681A680B4B1B681B6892685A6049
:101B3000084B1B681B681A7B064B1B681B6801322D
:101B4000D2B21A7302E000BF00E000BFBD4680BC05
:101B5000704700BF10010020B0B588B002AF1A4B2B
:101B60001B689B68002B2BD0174B1B681B681B7BCB
:101B7000002B26D0144B1B681B683C1D1D460FCD47
:101B80000FC42B682360104B1B681846FFF745FFF6
:101B90003B7C013BDBB23B747B689847FB68002BC6
:101BA0000FD0094B1C686A4607F1100393E8030045
:101BB00082E803003B1D0ECB2046FFF7B2FE00E09B
:101BC00000BF1837BD46B0BD1001002080B586B0FB
:101BD00000AF78603A4B1B689B68002B69D00023EC
:101BE0007B61374B1B681B683B610023FB600CE08B
:101BF0003B691B697A689A4202D10123FB6007E0C6
:101C00003B697B613B695B693B613B69002BEFD1C1
:101C1000FB68002B4FD07B69002B0FD03B695A69C2
:101C20007B695A61264B1B689A68013A9A60244B7B
:101C30001B685B683A699A422ED119E0204B1B68F9
:101C40009B68012B0EDD1E4B1B681B685B69596886
:101C50001B4B1B681B685A68194B1B681B685B6928
:101C60000A445A60164B1B681846FFF7D6FE23E05D
:101C7000134B1B687A695A60114B1B68DB681A4664
:101C80003B695B68D21A0E4B1B68DA600C4B1B6811
:101C90005B6800225A6108E03B695B6959683B69EF
:101CA0005A683B695B690A445A60386903F04AFA2A
:101CB00002E000BF00E000BF1837BD4680BD00BF96
:101CC0001001002080B485B000AF154B9B69144A09
:101CD00043F001039361124B9B6903F00103BB6066
:101CE000BB680F4BDB690E4A43F08053D3610C4B4A
:101CF000DB6903F080537B607B680A4B5B68FB60A9
:101D0000FB6823F0E063FB60FB6843F00073FB605B
:101D1000044AFB68536000BF1437BD4680BC70475F
:101D2000001002400000014080B584B000AF786030
:101D30007B681B68B3F1804F14D1194BDB69184ADB
:101D400043F00103D361164BDB6903F00103FB6031
:101D5000FB68002200211C2000F09BFF1C2000F0EB
:101D6000B4FF18E07B681B680E4A934213D10C4BFA
:101D7000DB690B4A43F00203D361094BDB6903F0D3
:101D80000203BB60BB68002200211D2000F081FF20
:101D90001D2000F09AFF00BF1037BD4680BD00BF78
:101DA000001002400004004080B588B000AF7860A9
:101DB00007F1100300221A605A609A60DA607B68AB
:101DC0001B680F4A934217D10E4B9B690D4A43F093
:101DD000040393610B4B9B6903F00403FB60FB68F6
:101DE00040233B6102237B610223FB6107F1100367
:101DF0001946054801F034F800BF2037BD4680BDC4
:101E000000040040001002400008014080B588B086
:101E100000AF786007F1100300221A605A609A60E0
:101E2000DA607B681B681F4A934237D11E4BDB691F
:101E30001D4A43F40033D3611B4BDB6903F40033C9
:101E4000FB60FB68184B9B69174A43F004039361DE
:101E5000154B9B6903F00403BB60BB6804233B6123
:101E600002237B610323FB6107F1100319460F482E
:101E700000F0F6FF08233B6100237B610023BB6178
:101E800007F110031946094800F0EAFF002200217B
:101E9000262000F0FEFE262000F017FF00BF2037AE
:101EA000BD4680BD004400400010024000080140D3
:101EB00080B400AFFEE780B400AFFEE780B400AFAF
:101EC000FEE780B400AFFEE780B400AFFEE780B469
:101ED00000AF00BFBD4680BC704780B400AF00BFFC
:101EE000BD4680BC704780B400AF00BFBD4680BC1B
:101EF000704780B500AF00F0D9FD00BF80BD000085
:101F000080B500AF024801F02DFF00BF80BD00BFCB
:101F1000B001002080B500AF024801F023FF00BFF0
:101F200080BD00BF6801002080B500AF024802F00C
:101F300029FD00BF80BD00BFF801002080B586B03C
:101F400000AF7860144A154BD31A7B617B693B6103
:101F5000134B1B68002B02D1114B124A1A60104B15
:101F60001A687B6813443A699A4207D203F0B8F8BA
:101F700003460C221A604FF0FF3309E0084B1B6840
:101F8000FB60074B1A687B681344054A1360FB68C3
:101F900018461837BD4680BD0050002000040000E0
:101FA000140100203806002080B400AF00BFBD46F9
:101FB00080BC704780B483B000AF7860074B1B686B
:101FC0007A6892FBF3F3064A1360064B00221A600C
:101FD00000BF0C37BD4680BC704700BF3C000020EE
:101FE000180100201C01002080B483B000AF78608D
:101FF000074B1B687A6892FBF3F3064A1360064BA3
:1020000000221A6000BF0C37BD4680BC704700BF7D
:102010003C000020200100202401002080B483B077
:1020200000AF7860074B1B687A6892FBF3F3064AAF
:102030001360064B00221A6000BF0C37BD4680BCFF
:10204000704700BF3C000020280100202C01002028
:1020500080B483B000AF7860074B1B687A6892FB4E
:10206000F3F3064A1360064B00221A6000BF0C37D8
:10207000BD4680BC704700BF3C00002030010020FE
:102080003401002080B483B000AF7860074B1B6838
:102090007A6892FBF3F3064A1360064B00221A603B
:1020A00000BF0C37BD4680BC704700BF3C0000201D
:1020B000380100203C01002080B483B000AF78607C
:1020C000074B1B687A6892FBF3F3064A1360064BD2
:1020D00000221A6000BF0C37BD4680BC704700BFAD
:1020E0003C000020400100204401002080B483B067
:1020F00000AF7860074B1B687A6892FBF3F3064ADF
:102100001360064B00221A6000BF0C37BD4680BC2E
:10211000704700BF3C000020480100204C01002017
:1021200080B483B000AF7860074B1B687A6892FB7D
:10213000F3F3064A1360064B00221A6000BF0C3707
:10214000BD4680BC704700BF3C000020500100200D
:102150005401002080B483B000AF7860074B1B6847
:102160007A6892FBF3F3064A1360064B00221A606A
:1021700000BF0C37BD4680BC704700BF3C0000204C
:10218000580100205C01002080B400AF494B1B685F
:10219000002B0BDD474B1B68013B464A1360454B48
:1021A0001B68002B02D1444B01221A60434B1B6871
:1021B000002B0BDD414B1B68013B404A13603F4B3A
:1021C0001B68002B02D13E4B01221A603D4B1B685D
:1021D000002B0BDD3B4B1B68013B3A4A1360394B2C
:1021E0001B68002B02D1384B01221A60374B1B6849
:1021F000002B0BDD354B1B68013B344A1360334B1E
:102200001B68002B02D1324B01221A60314B1B6834
:10221000002B0BDD2F4B1B68013B2E4A13602D4B0F
:102220001B68002B02D12C4B01221A602B4B1B6820
:10223000002B0BDD294B1B68013B284A1360274B01
:102240001B68002B02D1264B01221A60254B1B680C
:10225000002B0BDD234B1B68013B224A1360214BF3
:102260001B68002B02D1204B01221A601F4B1B68F8
:10227000002B0BDD1D4B1B68013B1C4A13601B4BE5
:102280001B68002B02D11A4B01221A60194B1B68E4
:10229000002B0BDD174B1B68013B164A1360154BD7
:1022A0001B68002B02D1144B01221A6000BFBD46EF
:1022B00080BC7047180100201C0100202001002074
:1022C00024010020280100202C01002030010020E2
:1022D00034010020380100203C0100204001002092
:1022E00044010020480100204C0100205001002042
:1022F00054010020580100205C01002080B500AF8F
:10230000174B1B68022B0AD100224FF4806115483D
:1023100000F041FF01220821134800F03CFF104B60
:102320001B68032B0AD101224FF480610D4800F095
:1023300032FF012208210C4800F02DFF084B1B68DA
:10234000012B0AD101224FF48061064800F023FFDF
:1023500000220821044800F01EFF00BF80BD00BF1E
:10236000CC00002000080140000C014080B500AF07
:10237000154B1B68022B09D100222021134800F0C5
:102380000AFF01221021114800F005FF0E4B1B68C7
:10239000032B09D1012220210C4800F0FCFE012270
:1023A00010210A4800F0F7FE074B1B68012B09D1EA
:1023B00001222021054800F0EEFE002210210348F2
:1023C00000F0E9FE00BF80BDD0000020000C0140FD
:1023D00080B500AF374B1B68002B0FD0364B1B6806
:1023E000012B03D1354B1B68012B07D0344B1B68E5
:1023F000012B03D1334B1B68002B12D000224FF46A
:102400008061314800F0C7FE00224FF480712F48F0
:1024100000F0C1FE274B00221A602D4B00221A60EB
:1024200046E0264B1B68032B15D0032B33DC012B16
:1024300021D0022B2FD100224FF48061224800F0DE
:10244000AAFE01224FF48071204800F0A4FE204B28
:1024500001221A6020E001224FF480611A4800F046
:102460009AFE00224FF48071184800F094FE184B39
:1024700000221A6010E001224FF48061124800F03F
:102480008AFE00224FF48071104800F084FE104B49
:1024900000221A6000E000BF0E4B1B68002B07D023
:1024A0000D4B1B681946052300220C48FFF7EAFA7A
:1024B00080BD00BFE80000204C010020CC000020BF
:1024C000D4000020EC000020000C01400008014076
:1024D000E00000201C000020D8000020D1230008CC
:1024E00080B500AF5B4B1B68002B40F0B0805A4BAF
:1024F0001B68002B02D0594B01221A60584B1B68F5
:102500000C2B00F28A8001A252F823F0412500082A
:10251000612500089B250008DB2500081B26000814
:102520001B2600081B2600081B2600081B26000887
:102530001B2600081B2600081B2600081B26000877
:10254000474B01221A600A20FFF74EFD0A20FFF7D1
:102550007FFD444B01221A60434B01221A6063E065
:102560003E4B1B68012B5AD1FFF7C8FE3C4B0222A1
:102570001A603E4B1B683E4A82FB03129211DB1726
:10258000D31A3C4A1360394B1B681846FFF72CFDE1
:10259000364B1B68344A136041E0304B1B68012BFB
:1025A0003FD1FFF7ABFE2E4B03221A60324B1B6864
:1025B0002F4A82FB03129211DB17D31A2D4A1360A4
:1025C0002D4B1B681846FFF70FFD2C4B00221A609D
:1025D000294B1B68244A136023E0204B1B68012B06
:1025E00021D1FFF78BFE1E4B01221A60244B1B6882
:1025F0001F4A82FB03129211DB17D31A1D4A136084
:102600001F4B1B681846FFF7EFFC1C4B00221A609B
:102610001B4B1B68144A136005E000BF04E000BFB9
:1026200002E000BF00E000BF0B4B1B68002B0FD087
:102630000D4B1B68134A82FB03129210DB17D31A4F
:102640001946012300221048FFF71CFA00E000BFE2
:1026500080BD00BFEC0000201C00002024010020F1
:10266000CC000020D4000020F0000020000000205A
:10267000D34D6210D800002008000020E0000020A8
:102680000400002067666666E124000880B500AF9C
:10269000554B1B68002B40F0A480544B1B68002B4B
:1026A00002D0534B01221A60524B1B680C2B7ED870
:1026B00001A252F823F000BFED2600080127000810
:1026C0003B27000875270008AF270008AF27000840
:1026D000AF270008AF270008AF270008AF27000882
:1026E000AF270008AF270008AF270008414B0222A0
:1026F0001A600A20FFF792FC3F4B01221A605DE04E
:102700003B4B1B68012B54D1FFF730FE394B0222A3
:102710001A603A4B1B683A4A82FB03129211DB178C
:10272000D31A384A1360354B1B681846FFF776FCFE
:10273000324B1B68304A13603BE02D4B1B68012B6A
:1027400039D1FFF713FE2B4B03221A602E4B1B6867
:102750002B4A82FB03129211DB17D31A294A13600A
:10276000294B1B681846FFF759FC274B1B68224A68
:10277000136020E01E4B1B68012B1ED1FFF7F6FDF6
:102780001C4B01221A60214B1B681D4A82FB03125D
:102790009211DB17D31A1B4A13601C4B1B68184697
:1027A000FFF73CFC194B1B68134A136005E000BFA0
:1027B00004E000BF02E000BF00E000BF0B4B1B685D
:1027C000002B0FD00C4B1B68114A82FB0312921096
:1027D000DB17D31A1946022300220E48FFF752F9DD
:1027E00000E000BF80BD00BFEC0000201C00002006
:1027F0002C010020D0000020F40000200000002068
:10280000D34D6210DC0000200800002004000020EE
:10281000676666668D26000880B500AF204B1B6892
:10282000002B02D01F4B01221A601E4B1B68012B8C
:1028300033D11D4B1B68042B22D0042B29DC022B27
:1028400002D0032B0AD024E04FF48061174800F037
:10285000BAFC2021164800F0B6FC1BE04FF4806162
:10286000124800F0B0FC2021114800F0ACFC082117
:102870000F4800F0A8FC10210D4800F0A4FC09E06E
:1028800008210B4800F09FFC1021094800F09BFC38
:1028900000E000BFFA20FFF7F5FB00BF80BD00BFDE
:1028A0001C0000203C010020D40000200008014052
:1028B000000C014080B400AF244B1A68244B1B6805
:1028C0001A44244B1B689A4206DD204B1A68204BA1
:1028D0001B6813441F4A13601C4B1A681C4B1B686F
:1028E0001A441C4B1B689A420CDA1A4B1A68174B95
:1028F0001968174B1B680B44D21A154B1B681344FD
:10290000134A1360144B1B68002B19D0134B1B6820
:10291000032B0AD0032B15DC012B02D0022B0BD08A
:1029200010E00F4B02221A600DE00C4B01221A60DE
:102930000B4B02221A6006E0094B01221A6002E0EA
:1029400000BF00E000BFBD4680BC7047040000200F
:102950000800002000000020EC000020CC00002037
:10296000D000002080B500AF154B1B68002B02D0B3
:10297000144B01221A60144B1B68002B1ED0114B04
:102980001B68002B1AD0FFF795FF0A20FFF72CFBDE
:102990000A20FFF743FB0C4B00221A60084B1B6810
:1029A000002B0BD00123002200210848FFF76AF812
:1029B0000223002201210648FFF764F800BF80BD12
:1029C0001C00002054010020EC000020E12400083D
:1029D0008D2600080C480D490D4A002302E0D4580A
:1029E000C4500433C4188C42F9D30A4A0A4C002359
:1029F00001E013600432A242FBD3FFF7D5FA02F0E4
:102A000075FBFEF769FD704700000020AC00002058
:102A100034530008AC00002038060020FEE7000018
:102A200080B500AF084B1B68074A43F010031360E2
:102A3000032000F023F90F2000F008F8FFF742F917
:102A40000023184680BD00BF0020024080B582B040
:102A500000AF7860124B1A68124B1B7819464FF47E
:102A60007A73B3FBF1F3B2FBF3F3184600F03BF9D2
:102A70000346002B01D001230EE07B680F2B0AD800
:102A8000002279684FF0FF3000F003F9064A7B68B6
:102A90001360002300E0012318460837BD4680BDBF
:102AA00038000020440000204000002080B400AF27
:102AB000054B1B781A46054B1B681344034A1360E9
:102AC00000BFBD4680BC70474400002024060020A3
:102AD00080B400AF024B1B681846BD4680BC7047EF
:102AE0002406002080B485B000AF78607B6803F0D6
:102AF0000703FB600C4BDB68BB60BA684FF6FF0353
:102B00001340BB60FB681A02BB68134343F0BF630A
:102B100043F40033BB60044ABB68D36000BF143782
:102B2000BD4680BC704700BF00ED00E080B400AF40
:102B3000044BDB681B0A03F007031846BD4680BC44
:102B4000704700BF00ED00E080B483B000AF0346E3
:102B5000FB7197F90730002B0BDBFB7903F01F02A9
:102B6000064997F907305B09012000FA02F241F8A3
:102B7000232000BF0C37BD4680BC704700E100E059
:102B800080B483B000AF03463960FB7197F907301A
:102B9000002B0ADB3B68DAB20C4997F907301201C7
:102BA000D2B20B4483F800230AE03B68DAB208494A
:102BB000FB7903F00F03043B1201D2B20B441A76E7
:102BC00000BF0C37BD4680BC704700BF00E100E08D
:102BD00000ED00E080B489B000AFF860B9607A60C1
:102BE000FB6803F00703FB61FB69C3F10703042BD8
:102BF00028BF0423BB61FB690433062B02D9FB69A0
:102C0000033B00E000237B614FF0FF32BB6902FA17
:102C100003F3DA43BB681A407B699A404FF0FF31F7
:102C20007B6901FA03F3D9437B680B4013431846D1
:102C30002437BD4680BC704780B582B000AF786055
:102C40007B68013BB3F1807F01D301230FE00A4A87
:102C50007B68013B53600F214FF0FF30FFF790FF7F
:102C6000054B00229A60044B07221A600023184685
:102C70000837BD4680BD00BF10E000E080B582B0DF
:102C800000AF78607868FFF72DFF00BF0837BD46BA
:102C900080BD80B586B000AF0346B9607A60FB7333
:102CA00000237B61FFF742FF78617A68B968786931
:102CB000FFF790FF024697F90F3011461846FFF7CD
:102CC0005FFF00BF1837BD4680BD80B582B000AF42
:102CD0000346FB7197F907301846FFF735FF00BF31
:102CE0000837BD4680BD80B582B000AF7860786897
:102CF000FFF7A2FF034618460837BD4680BD80B4E3
:102D000085B000AF78600023FB737B6893F82130B7
:102D1000022B08D07B6804229A637B68002283F828
:102D20002020012320E07B681B681A687B681B68F1
:102D300022F00E021A607B681B681A687B681B68A9
:102D400022F001021A607B681A6C7B68DB6B012140
:102D500001FA02F25A607B68012283F821207B6825
:102D6000002283F82020FB7B18461437BD4680BC28
:102D70007047000080B584B000AF78600023FB731B
:102D80007B6893F82130022B05D07B6804229A637C
:102D90000123FB7351E07B681B681A687B681B6822
:102DA00022F00E021A607B681B681A687B681B6839
:102DB00022F001021A607B681B68224A934229D0E4
:102DC0007B681B68204A934222D07B681B681F4A9D
:102DD00093421AD07B681B681D4A934212D07B68CD
:102DE0001B681C4A93420AD07B681B681A4A9342AC
:102DF00002D14FF480130EE04FF080730BE04FF4DC
:102E0000803308E04FF4805305E04FF4807302E014
:102E1000102300E00123114A53607B68012283F8EC
:102E200021207B68002283F820207B685B6B002BCD
:102E300003D07B685B6B78689847FB7B184610373C
:102E4000BD4680BD080002401C0002403000024028
:102E500044000240580002406C0002400000024062
:102E600080B48BB000AF7860396000237B620023B0
:102E70003B6269E101227B6A02FA03F3FB613B6872
:102E80001B68FA691340BB61BA69FB699A4240F05A
:102E900058813B685B689A4A93425ED0984A934255
:102EA00075D8984A934258D0964A93426FD8964A1A
:102EB000934252D0944A934269D8944A93424CD058
:102EC000924A934263D8924A934246D0904A9342A0
:102ED0005DD8122B2AD8122B59D801A252F823F010
:102EE0005B2F0008352F0008472F0008892F0008A6
:102EF0008F2F00088F2F00088F2F00088F2F0008BA
:102F00008F2F00088F2F00088F2F00088F2F0008A9
:102F10008F2F00088F2F00088F2F00088F2F000899
:102F20008F2F00083D2F0008512F0008794A934247
:102F300013D02CE03B68DB683B6229E03B68DB6830
:102F400004333B6224E03B68DB6808333B621FE0EC
:102F50003B68DB680C333B621AE03B689B68002BE4
:102F600002D104233B6213E03B689B68012B05D12F
:102F700008233B627B68FA691A6109E008233B6217
:102F80007B68FA695A6103E000233B6200E000BFFE
:102F9000BB69FF2B01D87B6801E07B6804337B6150
:102FA000BB69FF2B02D87B6A9B0002E07B6A083B6F
:102FB0009B003B617B691A680F213B6901FA03F3AF
:102FC000DB431A40396A3B6901FA03F31A437B6910
:102FD0001A603B685B6803F08053002B00F0B180FF
:102FE0004D4B9B694C4A43F0010393614A4B9B69EB
:102FF00003F00103BB60BB68484A7B6A9B0802334D
:1030000052F82330FB607B6A03F003039B000F221E
:1030100002FA03F3DB43FA681340FB607B68404A23
:10302000934213D07B683F4A93420DD07B683E4A5F
:10303000934207D07B683D4A934201D1032306E0C7
:10304000042304E0022302E0012300E000237A6A63
:1030500002F0030292009340FA681343FB602F4989
:103060007B6A9B080233FA6841F823203B685B685F
:1030700003F48033002B06D02D4B1A682C49BB6912
:1030800013430B6006E02A4B1A68BB69DB432849EF
:1030900013400B603B685B6803F40033002B06D0E1
:1030A000234B5A682249BB6913434B6006E0204B0F
:1030B0005A68BB69DB431E4913404B603B685B6841
:1030C00003F48013002B06D0194B9A681849BB698A
:1030D00013438B6006E0164B9A68BB69DB431449C7
:1030E00013408B603B685B6803F40013002B21D016
:1030F0000F4BDA680E49BB691343CB6021E000BF78
:1031000000003210000031100000221000002110D9
:1031100000001210000011100010024000000140D9
:1031200000080140000C0140001001400014014063
:10313000000401400B4BDA68BB69DB4309491340CB
:10314000CB607B6A01337B623B681A687B6A22FA38
:1031500003F3002B7FF48EAE00BF00BF2C37BD46BB
:1031600080BC70470004014080B485B000AF786037
:103170000B467B807B689A687B881340002B02D0CB
:103180000123FB7301E00023FB73FB7B184614371C
:10319000BD4680BC704780B483B000AF78600B46FA
:1031A0007B8013467B707B78002B03D07A887B680A
:1031B0001A6103E07B881A047B681A6100BF0C3730
:1031C000BD4680BC704780B485B000AF78600B46C8
:1031D0007B807B68DB68FB607A88FB6813401A049D
:1031E000FB68D9437B880B401A437B681A6100BF98
:1031F0001437BD4680BC704780B586B000AF78609C
:103200007B68002B01D101236CE27B681B6803F013
:103210000103002B00F08780924B5B6803F00C03E6
:10322000042B0CD08F4B5B6803F00C03082B12D1DE
:103230008C4B5B6803F48033B3F5803F0BD1894B33
:103240001B6803F40033002B6CD07B685B68002B99
:1032500068D1012346E27B685B68B3F5803F06D105
:10326000804B1B687F4A43F4803313602EE07B68F9
:103270005B68002B0CD17B4B1B687A4A23F48033AC
:103280001360784B1B68774A23F4802313601DE09A
:103290007B685B68B3F5A02F0CD1724B1B68714A39
:1032A00043F4802313606F4B1B686E4A43F48033F2
:1032B00013600BE06B4B1B686A4A23F48033136086
:1032C000684B1B68674A23F4802313607B685B6844
:1032D000002B13D0FFF7FCFB386108E0FFF7F8FB89
:1032E00002463B69D31A642B01D90323FAE15D4BF3
:1032F0001B6803F40033002BF0D014E0FFF7E8FB69
:10330000386108E0FFF7E4FB02463B69D31A642BFF
:1033100001D90323E6E1534B1B6803F40033002B70
:10332000F0D100E000BF7B681B6803F00203002BB4
:1033300063D04C4B5B6803F00C03002B0BD0494B64
:103340005B6803F00C03082B1CD1464B5B6803F44D
:103350008033002B16D1434B1B6803F00203002B74
:1033600005D07B681B69012B01D00123BAE13D4BDD
:103370001B6823F0F8027B685B69DB003949134363
:103380000B603AE07B681B69002B20D0364B012292
:103390001A60FFF79DFB386108E0FFF799FB0246D2
:1033A0003B69D31A022B01D903239BE12D4B1B68E8
:1033B00003F00203002BF0D02A4B1B6823F0F80225
:1033C0007B685B69DB00274913430B6015E0264BE4
:1033D00000221A60FFF77CFB386108E0FFF778FBFA
:1033E00002463B69D31A022B01D903237AE11D4B14
:1033F0001B6803F00203002BF0D17B681B6803F00D
:103400000803002B3AD07B689B69002B19D0174B1F
:1034100001221A60FFF75CFB386108E0FFF758FBF8
:1034200002463B69D31A022B01D903235AE10D4B03
:103430005B6A03F00203002BF0D0012000F0D8FA01
:103440001CE00A4B00221A60FFF742FB38610FE0D4
:10345000FFF73EFB02463B69D31A022B08D9032330
:1034600040E100BF0010024000004242800442429E
:103470009E4B5B6A03F00203002BE9D17B681B685B
:1034800003F00403002B00F0A6800023FB75974B8C
:10349000DB6903F08053002B0DD1944BDB69934A19
:1034A00043F08053D361914BDB6903F08053BB60E1
:1034B000BB680123FB758E4B1B6803F48073002BE4
:1034C00018D18B4B1B688A4A43F480731360FFF753
:1034D000FFFA386108E0FFF7FBFA02463B69D31AAE
:1034E000642B01D90323FDE0814B1B6803F4807337
:1034F000002BF0D07B68DB68012B06D17B4B1B6A6D
:103500007A4A43F0010313622DE07B68DB68002BED
:103510000CD1764B1B6A754A23F001031362734B7F
:103520001B6A724A23F0040313621CE07B68DB68A9
:10353000052B0CD16D4B1B6A6C4A43F004031362DC
:103540006A4B1B6A694A43F0010313620BE0674B45
:103550001B6A664A23F001031362644B1B6A634AC9
:1035600023F0040313627B68DB68002B15D0FFF7A0
:10357000AFFA38610AE0FFF7ABFA02463B69D31AAB
:1035800041F28832934201D90323ABE0574B1B6AC7
:1035900003F00203002BEED014E0FFF799FA386134
:1035A0000AE0FFF795FA02463B69D31A41F28832E6
:1035B000934201D9032395E04C4B1B6A03F00203AD
:1035C000002BEED1FB7D012B05D1484BDB69474A2F
:1035D00023F08053D3617B68DB69002B00F081808E
:1035E000424B5B6803F00C03082B61D07B68DB69FE
:1035F000022B46D13F4B00221A60FFF769FA38616F
:1036000008E0FFF765FA02463B69D31A022B01D99D
:10361000032367E0354B1B6803F00073002BF0D1E8
:103620007B681B6AB3F5803F08D1304B5B6823F49D
:1036300000327B689B682D4913434B602B4B5B68C2
:1036400023F474127B68196A7B685B6A0B43274911
:1036500013434B60274B01221A60FFF739FA386198
:1036600008E0FFF735FA02463B69D31A022B01D96D
:10367000032337E01D4B1B6803F00073002BF0D0D1
:103680002FE01C4B00221A60FFF722FA386108E095
:10369000FFF71EFA02463B69D31A022B01D9032316
:1036A00020E0124B1B6803F00073002BF0D118E0F0
:1036B0007B68DB69012B01D1012313E00B4B5B68B5
:1036C000FB60FB6803F480327B681B6A9A4206D178
:1036D000FB6803F470127B685B6A9A4201D0012395
:1036E00000E0002318461837BD4680BD0010024098
:1036F000007000406000424280B584B000AF786046
:1037000039607B68002B01D10123D0E06A4B1B6834
:1037100003F007033A689A4210D9674B1B6823F0FD
:10372000070265493B6813430B60634B1B6803F05A
:1037300007033A689A4201D00123B8E07B681B680E
:1037400003F00203002B20D07B681B6803F0040306
:10375000002B05D0594B5B68584A43F4E063536033
:103760007B681B6803F00803002B05D0534B5B6894
:10377000524A43F460535360504B5B6823F0F002AD
:103780007B689B684D4913434B607B681B6803F063
:103790000103002B40D07B685B68012B07D1474BAE
:1037A0001B6803F40033002B15D101237FE07B68F5
:1037B0005B68022B07D1414B1B6803F00073002BA1
:1037C00009D1012373E03D4B1B6803F00203002B7A
:1037D00001D101236BE0394B5B6823F003027B6866
:1037E0005B68364913434B60FFF772F9F8600AE0F3
:1037F000FFF76EF90246FB68D31A41F28832934212
:1038000001D9032353E02D4B5B6803F00C027B6866
:103810005B689B009A42EBD1274B1B6803F00703C0
:103820003A689A4210D2244B1B6823F007022249BF
:103830003B6813430B60204B1B6803F007033A6897
:103840009A4201D0012332E07B681B6803F0040335
:10385000002B08D0194B5B6823F4E0627B68DB68BF
:10386000164913434B607B681B6803F00803002B69
:1038700009D0124B5B6823F460527B681B69DB0044
:103880000E4913434B6000F021F802460B4B5B6876
:103890001B0903F00F030A49CB5C22FA03F3094A20
:1038A0001360094B1B681846FFF7D0F80023184631
:1038B0001037BD4680BD00BF00200240001002400E
:1038C00014530008380000204000002090B48AB053
:1038D00000AF2A4B3C1D0FCB84E80F0040F20123C0
:1038E0003B800023FB610023BB6100237B6200233C
:1038F0007B6100233B62224B5B68FB61FB6903F049
:103900000C03042B02D0082B03D02DE01D4B3B628F
:103910002DE0FB699B0C03F00F0307F12802134411
:1039200013F8243C7B61FB6903F48033002B13D034
:10393000134B5B685B0C03F0010307F1280213448F
:1039400013F8283CBB617B690E4A02FB03F2BB699A
:10395000B2FBF3F37B6204E07B690B4A02FB03F3E7
:103960007B627B6A3B6202E0064B3B6200BF3B6AC4
:1039700018462837BD4690BC704700BF0453000866
:103980000010024000127A0000093D0080B400AF30
:10399000024B1B681846BD4680BC704738000020AB
:1039A00080B500AFFFF7F2FF0246054B5B681B0ACC
:1039B00003F007030349CB5C22FA03F3184680BDEA
:1039C000001002402453000880B500AFFFF7DEFF6F
:1039D0000246054B5B68DB0A03F007030349CB5C37
:1039E00022FA03F3184680BD001002402453000859
:1039F00080B485B000AF78600A4B1B680A4AA2FB0E
:103A000003235B0A7A6802FB03F3FB6000BFFB68D9
:103A10005A1EFA60002BF9D100BF00BF1437BD4613
:103A200080BC704738000020D34D621080B582B052
:103A300000AF78607B68002B01D1012341E07B68F7
:103A400093F83D30DBB2002B06D17B68002283F86F
:103A50003C207868FEF768F97B68022283F83D20F5
:103A60007B681A687B6804331946104600F028FC0E
:103A70007B68012283F846207B68012283F83E2080
:103A80007B68012283F83F207B68012283F8402075
:103A90007B68012283F841207B68012283F8422061
:103AA0007B68012283F843207B68012283F844204D
:103AB0007B68012283F845207B68012283F83D2042
:103AC000002318460837BD4680BD000080B485B08D
:103AD00000AF78607B6893F83D30DBB2012B01D0FA
:103AE00001233AE07B68022283F83D207B681B6853
:103AF000DA687B681B6842F00102DA607B681B6849
:103B0000184A93420ED07B681B68B3F1804F09D0EE
:103B10007B681B68144A934204D07B681B68134A75
:103B2000934211D17B681B689B6803F00703FB601D
:103B3000FB68062B10D07B681B681A687B681B68C3
:103B400042F001021A6007E07B681B681A687B6814
:103B50001B6842F001021A60002318461437BD4664
:103B600080BC7047002C0140000400400008004069
:103B700080B582B000AF78607B68002B01D1012353
:103B800041E07B6893F83D30DBB2002B06D17B68C7
:103B9000002283F83C20786800F039F87B68022224
:103BA00083F83D207B681A687B6804331946104609
:103BB00000F086FB7B68012283F846207B680122A7
:103BC00083F83E207B68012283F83F207B68012236
:103BD00083F840207B68012283F841207B68012222
:103BE00083F842207B68012283F843207B6801220E
:103BF00083F844207B68012283F845207B680122FA
:103C000083F83D20002318460837BD4680BD80B4A8
:103C100083B000AF786000BF0C37BD4680BC7047F2
:103C200080B584B000AF786039603B68002B09D163
:103C30007B6893F83E30DBB2012B14BF01230023D5
:103C4000DBB222E03B68042B09D17B6893F83F305C
:103C5000DBB2012B14BF01230023DBB215E03B686C
:103C6000082B09D17B6893F84030DBB2012B14BFDD
:103C700001230023DBB208E07B6893F84130DBB21C
:103C8000012B14BF01230023DBB2002B01D0012341
:103C90005EE03B68002B04D17B68022283F83E2063
:103CA00013E03B68042B04D17B68022283F83F2099
:103CB0000BE03B68082B04D17B68022283F840208C
:103CC00003E07B68022283F841207B681B680122A5
:103CD0003968184600F074FD7B681B681E4A9342E1
:103CE00007D17B681B685A6C7B681B6842F40042F2
:103CF0005A647B681B68184A93420ED07B681B6825
:103D0000B3F1804F09D07B681B68144A934204D0FA
:103D10007B681B68124A934211D17B681B689B68C1
:103D200003F00703FB60FB68062B10D07B681B6861
:103D30001A687B681B6842F001021A6007E07B6822
:103D40001B681A687B681B6842F001021A60002336
:103D500018461037BD4680BD002C014000040040CD
:103D60000008004080B582B000AF78607B681B68B7
:103D70001B6903F00203022B22D17B681B68DB68FE
:103D800003F00203022B1BD17B681B686FF0020259
:103D90001A617B6801221A777B681B689B6903F0B4
:103DA0000303002B03D0786800F06FFA05E0786811
:103DB00000F062FA786800F071FA7B6800221A77E6
:103DC0007B681B681B6903F00403042B22D17B680A
:103DD0001B68DB6803F00403042B1BD17B681B68A2
:103DE0006FF004021A617B6802221A777B681B68F5
:103DF0009B6903F44073002B03D0786800F045FA08
:103E000005E0786800F038FA786800F047FA7B68D7
:103E100000221A777B681B681B6903F00803082BD4
:103E200022D17B681B68DB6803F00803082B1BD1D9
:103E30007B681B686FF008021A617B6804221A779E
:103E40007B681B68DB6903F00303002B03D07868F1
:103E500000F01BFA05E0786800F00EFA786800F0D0
:103E60001DFA7B6800221A777B681B681B6903F0C8
:103E70001003102B22D17B681B68DB6803F0100352
:103E8000102B1BD17B681B686FF010021A617B68D6
:103E900008221A777B681B68DB6903F44073002BE8
:103EA00003D0786800F0F1F905E0786800F0E4F9F3
:103EB000786800F0F3F97B6800221A777B681B684A
:103EC0001B6903F00103012B0ED17B681B68DB68C3
:103ED00003F00103012B07D17B681B686FF001021F
:103EE0001A617868FDF7D0FC7B681B681B6903F0DA
:103EF0008003802B0ED17B681B68DB6803F0800396
:103F0000802B07D17B681B686FF080021A6178688C
:103F100000F0E1FC7B681B681B6903F04003402B49
:103F20000ED17B681B68DB6803F04003402B07D190
:103F30007B681B686FF040021A61786800F0B7F97F
:103F40007B681B681B6903F02003202B0ED17B6864
:103F50001B68DB6803F02003202B07D17B681B68FC
:103F60006FF020021A61786800F0ACFC00BF0837DF
:103F7000BD4680BD80B584B000AFF860B9607A609E
:103F8000FB6893F83C30012B01D10223ACE0FB68C5
:103F9000012283F83C207B680C2B00F29F8001A259
:103FA00052F823F0D93F0008DD400008DD4000084A
:103FB000DD40000819400008DD400008DD40000831
:103FC000DD4000085B400008DD400008DD400008DF
:103FD000DD4000089B400008FB681B68B968184674
:103FE00000F0D0F9FB681B689A69FB681B6842F017
:103FF00008029A61FB681B689A69FB681B6822F0DB
:1040000004029A61FB681B689969BB681A69FB68BE
:104010001B680A439A6162E0FB681B68B96818462E
:1040200000F016FAFB681B689A69FB681B6842F48B
:1040300000629A61FB681B689A69FB681B6822F43E
:1040400080629A61FB681B689969BB681B691A02E8
:10405000FB681B680A439A6141E0FB681B68B9680A
:10406000184600F05FFAFB681B68DA69FB681B689A
:1040700042F00802DA61FB681B68DA69FB681B68BA
:1040800022F00402DA61FB681B68D969BB681A690F
:10409000FB681B680A43DA6121E0FB681B68B968AA
:1040A000184600F0A9FAFB681B68DA69FB681B6810
:1040B00042F40062DA61FB681B68DA69FB681B681E
:1040C00022F48062DA61FB681B68D969BB681B69EE
:1040D0001A02FB681B680A43DA6100E000BFFB6854
:1040E000002283F83C20002318461037BD4680BDCF
:1040F00080B584B000AF786039607B6893F83C305D
:10410000012B01D10223B3E07B68012283F83C201C
:104110007B68022283F83D207B681B689B68FB60FC
:10412000FB6823F07703FB60FB6823F47F43FB60AD
:104130007B681B68FA689A603B681B68B3F5005F90
:104140003ED0B3F5005F00F28780B3F5805F00F0EA
:104150008580B3F5805F7FD8702B1AD0702B7BD809
:10416000602B50D0602B77D8502B3CD0502B73D87D
:10417000402B58D0402B6FD8302B64D0302B6BD8CD
:10418000202B60D0202B67D8002B5CD0102B5AD06E
:1041900062E07B6818683B6899683B685A683B68CE
:1041A000DB6800F0EEFA7B681B689B68FB60FB68CD
:1041B00043F07703FB607B681B68FA689A604EE007
:1041C0007B6818683B6899683B685A683B68DB689D
:1041D00000F0D7FA7B681B689A687B681B6842F41A
:1041E00080429A603BE07B6818683B6859683B688E
:1041F000DB681A4600F04EFA7B681B6850211846AF
:1042000000F0A5FA2BE07B6818683B6859683B68AA
:10421000DB681A4600F06CFA7B681B686021184660
:1042200000F095FA1BE07B6818683B6859683B68AA
:10423000DB681A4600F02EFA7B681B68402118469E
:1042400000F085FA0BE07B681A683B681B6819462A
:10425000104600F07CFA02E000BF00E000BF7B687F
:10426000012283F83D207B68002283F83C20002354
:1042700018461037BD4680BD80B483B000AF78606B
:1042800000BF0C37BD4680BC704780B483B000AF20
:10429000786000BF0C37BD4680BC704780B483B0E7
:1042A00000AF786000BF0C37BD4680BC704780B45B
:1042B00083B000AF786000BF0C37BD4680BC70474C
:1042C00080B485B000AF786039607B681B68FB60A4
:1042D0007B68294A93420BD07B68B3F1804F07D0AB
:1042E0007B68264A934203D07B68254A934208D1D3
:1042F000FB6823F07003FB603B685B68FA6813435C
:10430000FB607B681C4A93420BD07B68B3F1804F03
:1043100007D07B68194A934203D07B68184A9342BE
:1043200008D1FB6823F44073FB603B68DB68FA68E4
:104330001343FB60FB6823F080023B685B69134317
:10434000FB607B68FA681A603B689A687B68DA628F
:104350003B681A687B689A627B68074A934203D17C
:104360003B681A697B681A637B6801225A6100BF47
:104370001437BD4680BC7047002C0140000400404B
:104380000008004080B487B000AF786039607B6877
:104390001B6A23F001027B681A627B681B6A7B61DF
:1043A0007B685B683B617B689B69FB60FB6823F013
:1043B0007003FB60FB6823F00303FB603B681B6832
:1043C000FA681343FB607B6923F002037B613B685F
:1043D0009B687A6913437B617B681C4A93420CD1CA
:1043E0007B6923F008037B613B68DB687A691343D0
:1043F0007B617B6923F004037B617B68134A9342F2
:1044000011D13B6923F480733B613B6923F4007352
:104410003B613B685B693A6913433B613B689B695D
:104420003A6913433B617B683A695A607B68FA6872
:104430009A613B685A687B685A637B687A691A623A
:1044400000BF1C37BD4680BC704700BF002C014038
:1044500080B487B000AF786039607B681B6A23F056
:1044600010027B681A627B681B6A7B617B685B68F1
:104470003B617B689B69FB60FB6823F4E043FB6066
:10448000FB6823F44073FB603B681B681B02FA68FF
:104490001343FB607B6923F020037B613B689B68CF
:1044A0001B017A6913437B617B681D4A93420DD1DE
:1044B0007B6923F080037B613B68DB681B017A69C1
:1044C00013437B617B6923F040037B617B68144A63
:1044D000934213D13B6923F480633B613B6923F42E
:1044E00000633B613B685B699B003A6913433B6136
:1044F0003B689B699B003A6913433B617B683A695F
:104500005A607B68FA689A613B685A687B689A636C
:104510007B687A691A6200BF1C37BD4680BC704751
:10452000002C014080B487B000AF786039607B68B0
:104530001B6A23F480727B681A627B681B6A7B614A
:104540007B685B683B617B68DB69FB60FB6823F031
:104550007003FB60FB6823F00303FB603B681B6890
:10456000FA681343FB607B6923F400737B613B684B
:104570009B681B027A6913437B617B681D4A9342E7
:104580000DD17B6923F400637B613B68DB681B0210
:104590007A6913437B617B6923F480637B617B6869
:1045A000144A934213D13B6923F480533B613B6926
:1045B00023F400533B613B685B691B013A69134379
:1045C0003B613B689B691B013A6913433B617B6814
:1045D0003A695A607B68FA68DA613B685A687B68B6
:1045E000DA637B687A691A6200BF1C37BD4680BCFB
:1045F000704700BF002C014080B487B000AF7860E6
:1046000039607B681B6A23F480527B681A627B687E
:104610001B6A3B617B685B687B617B68DB69FB6075
:10462000FB6823F4E043FB60FB6823F44073FB600A
:104630003B681B681B02FA681343FB603B6923F469
:1046400000533B613B689B681B033A6913433B6122
:104650007B680F4A934209D17B6923F480437B61D5
:104660003B685B699B017A6913437B617B687A696C
:104670005A607B68FA68DA613B685A687B681A643A
:104680007B683A691A6200BF1C37BD4680BC704720
:10469000002C014080B487B000AFF860B9607A6048
:1046A000FB681B6A7B61FB681B6A23F00102FB68E5
:1046B0001A62FB689B693B613B6923F0F0033B6135
:1046C0007B681B013A6913433B617B6923F00A0352
:1046D0007B617A69BB6813437B61FB683A699A61C5
:1046E000FB687A691A6200BF1C37BD4680BC704700
:1046F00080B487B000AFF860B9607A60FB681B6A6D
:1047000023F01002FB681A62FB689B697B61FB68FF
:104710001B6A3B617B6923F470437B617B681B03ED
:104720007A6913437B613B6923F0A0033B61BB685B
:104730001B013A6913433B61FB687A699A61FB6824
:104740003A691A6200BF1C37BD4680BC704780B40E
:1047500085B000AF786039607B689B68FB60FB6860
:1047600023F07003FB603A68FB68134343F00703D0
:10477000FB607B68FA689A6000BF1437BD4680BC56
:10478000704780B487B000AFF860B9607A603B6072
:10479000FB689B687B617B6923F47F437B613B689B
:1047A0001A027B681A43BB6813437A6913437B611F
:1047B000FB687A699A6000BF1C37BD4680BC7047B1
:1047C00080B487B000AFF860B9607A60BB6803F06E
:1047D0001F03012202FA03F37B61FB681A6A7B69FB
:1047E000DB431A40FB681A62FB681A6ABB6803F075
:1047F0001F03796801FA03F31A43FB681A6200BFCA
:104800001C37BD4680BC704780B485B000AF78606F
:1048100039607B6893F83C30012B01D1022346E0DC
:104820007B68012283F83C207B68022283F83D20CC
:104830007B681B685B68FB607B681B689B68BB6070
:10484000FB6823F07003FB603B681B68FA68134346
:10485000FB607B681B68FA685A607B681B68164AB5
:1048600093420ED07B681B68B3F1804F09D07B6800
:104870001B68124A934204D07B681B68104A93421B
:104880000CD1BB6823F08003BB603B685B68BA68EF
:104890001343BB607B681B68BA689A607B6801221F
:1048A00083F83D207B68002283F83C2000231846D3
:1048B0001437BD4680BC7047002C01400004004006
:1048C0000008004080B483B000AF786000BF0C37B0
:1048D000BD4680BC704780B483B000AF786000BF35
:1048E0000C37BD4680BC704780B582B000AF7860A1
:1048F0007B68002B01D101233FE07B6893F83D30BA
:10490000DBB2002B06D17B68002283F83C2078685C
:10491000FDF77CFA7B68242283F83D207B681B68C6
:10492000DA687B681B6822F40052DA60786800F06D
:1049300049FB7B681B681A697B681B6822F49042FC
:104940001A617B681B685A697B681B6822F02A021F
:104950005A617B681B68DA687B681B6842F4005206
:10496000DA607B6800221A647B68202283F83D208D
:104970007B68202283F83E20002318460837BD4676
:1049800080BD000080B58AB000AF78607B681B688E
:104990001B687B627B681B68DB683B627B681B680B
:1049A0005B69FB610023BB6100237B617B6A03F0D1
:1049B0000F03BB61BB69002B0DD17B6A03F02003A1
:1049C000002B08D03B6A03F02003002B03D078684B
:1049D00000F04FFA7BE1BB69002B00F0B180FB696E
:1049E00003F00103002B05D13B6A03F49073002B05
:1049F00000F0A6807B6A03F00103002B0AD03B6A1B
:104A000003F48073002B05D07B681B6C43F001021C
:104A10007B681A647B6A03F00403002B0AD0FB69ED
:104A200003F00103002B05D07B681B6C43F00202EE
:104A30007B681A647B6A03F00203002B0AD0FB69CF
:104A400003F00103002B05D07B681B6C43F00402CC
:104A50007B681A647B6A03F00803002B0FD03B6A63
:104A600003F02003002B04D1FB6903F00103002BAA
:104A700005D07B681B6C43F008027B681A647B6876
:104A80001B6C002B00F01E817B6A03F02003002BBF
:104A900007D03B6A03F02003002B02D0786800F0B7
:104AA000E8F97B681B685B6903F04003002B14BFC7
:104AB00001230023DBB27B617B681B6C03F00803DE
:104AC000002B02D17B69002B31D0786800F02AF9E5
:104AD0007B681B685B6903F04003002B23D07B6875
:104AE0001B685A697B681B6822F040025A617B6828
:104AF0009B6B002B13D07B689B6B764A5A637B6859
:104B00009B6B1846FEF736F90346002B16D07B68E0
:104B10009B6B5B6B7A68926B104698470EE07868E7
:104B200000F0ECF80AE0786800F0E8F806E0786851
:104B300000F0E4F87B6800221A64C3E000BFC1E023
:104B40007B681B6B012B40F0A1807B6A03F0100394
:104B5000002B00F09B803B6A03F01003002B00F059
:104B600095800023FB607B681B681B68FB607B688B
:104B70001B685B68FB60FB687B681B685B6903F014
:104B80004003002B4ED07B689B6B1B685B683B82AD
:104B90003B8A002B00F098807B689B8D3A8A9A4272
:104BA00080F092807B683A8ADA857B689B6B9B6990
:104BB000202B2BD07B681B68DA687B681B6822F48B
:104BC0008072DA607B681B685A697B681B6822F018
:104BD00001025A617B681B685A697B681B6822F076
:104BE00040025A617B68202283F83E207B680022C5
:104BF0001A637B681B68DA687B681B6822F0100206
:104C0000DA607B689B6B1846FEF779F87B689A8DB3
:104C10007B68DB8D9BB2D31A9BB21946786800F093
:104C200076F851E07B689A8D7B68DB8D9BB2D31A56
:104C30007B827B68DB8D9BB2002B47D07B8A002B6D
:104C400044D07B681B68DA687B681B6822F490722A
:104C5000DA607B681B685A697B681B6822F0010276
:104C60005A617B68202283F83E207B6800221A6309
:104C70007B681B68DA687B681B6822F01002DA60C8
:104C80007B8A1946786800F042F81FE07B6A03F0DF
:104C90008003002B08D03B6A03F08003002B03D075
:104CA000786800F07FF812E07B6A03F04003002B85
:104CB0000DD03B6A03F04003002B08D0786800F069
:104CC000C0F804E000BF02E000BF00E000BF2837EA
:104CD000BD4680BD7D4D000880B483B000AF7860D4
:104CE00000BF0C37BD4680BC704780B483B000AFB6
:104CF000786000BF0C37BD4680BC704780B483B07D
:104D000000AF786000BF0C37BD4680BC704780B4F0
:104D100083B000AF78600B467B8000BF0C37BD4688
:104D200080BC704780B483B000AF78607B681B683C
:104D3000DA687B681B6822F49072DA607B681B6813
:104D40005A697B681B6822F001025A617B681B6B01
:104D5000012B07D17B681B68DA687B681B6822F02F
:104D60001002DA607B68202283F83E207B680022F4
:104D70001A6300BF0C37BD4680BC704780B584B055
:104D800000AF78607B685B6AFB60FB680022DA85B5
:104D9000FB680022DA84F868FFF7B0FF00BF103725
:104DA000BD4680BD80B485B000AF78607B6893F865
:104DB0003D30DBB2212B3ED17B689B68B3F5805F31
:104DC00014D17B681B69002B10D17B681B6AFB60C8
:104DD000FB681B881A467B681B68C2F308025A608E
:104DE0007B681B6A9A1C7B681A6208E07B681B6AF6
:104DF000591C7A6811621A787B681B685A607B6854
:104E0000DB8C9BB2013B9BB27A681946D184002BA4
:104E10000FD17B681B68DA687B681B6822F0800210
:104E2000DA607B681B68DA687B681B6842F04002C6
:104E3000DA60002300E0022318461437BD4680BC28
:104E4000704780B582B000AF78607B681B68DA6815
:104E50007B681B6822F04002DA607B68202283F8BE
:104E60003D207868FFF738FF002318460837BD4615
:104E700080BD80B586B000AF78607B6893F83E3027
:104E8000DBB2222B40F099807B689B68B3F5805F92
:104E900017D17B681B69002B13D100237B617B68D2
:104EA0009B6A3B617B681B685B689BB2C3F308032A
:104EB0009AB23B691A807B689B6A9A1C7B689A62EB
:104EC00026E07B689B6A7B6100233B617B689B6873
:104ED000B3F5805F07D07B689B68002B0AD17B68A5
:104EE0001B69002B06D17B681B685B68DAB27B69A3
:104EF0001A7008E07B681B685B68DBB203F07F0315
:104F0000DAB27B691A707B689B6A5A1C7B689A626A
:104F10007B68DB8D9BB2013B9BB27A681946D185D9
:104F2000002B48D17B681B68DA687B681B6822F01D
:104F30002002DA607B681B68DA687B681B6822F4F1
:104F40008072DA607B681B685A697B681B6822F094
:104F500001025A617B68202283F83E207B681B6B2C
:104F6000012B23D17B6800221A637B681B68DA68F7
:104F70007B681B6822F01002DA607B681B681B6884
:104F800003F01003102B0AD10023FB607B681B6821
:104F90001B68FB607B681B685B68FB60FB687B6869
:104FA0009B8D19467868FFF7B2FE02E07868FFF73C
:104FB0009CFE002302E0002300E00223184618377D
:104FC000BD4680BD80B584B000AF78607B681B684B
:104FD0001B6923F440517B68DA687B681B680A43CD
:104FE0001A617B689A687B681B691A437B685B69F6
:104FF0001343BB607B681B68DB6823F4B05323F06A
:105000000C037A681268B9680B43D3607B681B682D
:105010005B6923F440717B689A697B681B680A436B
:105020005A617B681B682C4A934203D1FEF7CCFC83
:10503000F86002E0FEF7B4FCF860FA6813469B00E3
:1050400013449A001A447B685B689B00B2FBF3F33D
:10505000224AA2FB03235B091901FA6813469B004D
:1050600013449A001A447B685B689B00B2FBF3F21E
:105070001A4BA3FB02035B09642000FB03F3D31A62
:105080001B013233154AA2FB03235B0903F0F00333
:105090001944FA6813469B0013449A001A447B682B
:1050A0005B689B00B2FBF3F20C4BA3FB02035B09B2
:1050B000642000FB03F3D31A1B013233074AA2FB1F
:1050C00003235B0903F00F027B681B680A449A60A4
:1050D00000BF1037BD4680BD003801401F85EB5131
:1050E000014B1868704700BF4800002070B50026CB
:1050F0000C4D0D4C641BA410A64209D100F0F6F82B
:1051000000260A4D0A4C641BA410A64205D170BDAE
:1051100055F8043B98470136EEE755F8043B9847AD
:105120000136F2E72C5300082C5300082C530008DA
:1051300030530008024B0146186800F05FB800BF0A
:1051400048000020024B0146186800F00BB800BF71
:105150004800002003460244934200D1704703F800
:10516000011BF9E738B50546002943D051F8043C46
:105170000C1F002BB8BFE41800F0AAF81E4A1368F1
:10518000104633B9636014602846BDE8384000F02B
:10519000A5B8A3420AD921686218934201BF1A68D0
:1051A0005B685218226063600460EDE71A465B6832
:1051B0000BB1A342FAD911685018A0420BD1206854
:1051C0000144501883421160DED118685B680144C5
:1051D00011605360D8E702D90C232B60D4E7206814
:1051E00021188B4201BF19685B6809182160636050
:1051F0005460C9E738BD00BF60010020F8B5CD1C80
:1052000025F0030508350C2D38BF0C25002D06466A
:1052100001DBA94203D90C2333600020F8BD00F064
:1052200057F821490A6814469CB9204F3B6823B9B6
:105230002146304600F03CF838602946304600F000
:1052400037F8431C23D10C233046336000F046F876
:10525000E3E723685B1B17D40B2B03D923601C44A3
:10526000256004E06368A2420CBF0B6053603046C7
:1052700000F034F804F10B00231D20F00700C21ADF
:10528000CCD01B1AA350C9E722466468CCE7C41CE3
:1052900024F00304A042E3D0211A304600F008F8BD
:1052A0000130DDD1CFE700BF6001002064010020A4
:1052B00038B50023054D044608462B60FCF73EFE3A
:1052C000431C02D12B6803B1236038BD280600209F
:1052D000014800F009B800BF30060020014800F086
:1052E00004B800BF3006002070477047F8B500BF13
:1052F000F8BC08BC9E467047F8B500BFF8BC08BCB7
:045300009E4670470E
:1053040002030405060708090A0B0C0D0E0F101002
:105314000000000000000000010203040607080961
:08532400000000000102030477
:04532C00350100083F
:04533000110100085F
:1053340088130000D0070000B80B00000100000033
:10534400020000000300000004000000010000004F
:1053540088130000D0070000B80B00000101010110
:1053640001010101010101010024F4000A0000000F
:1053740010000000010000004C00002000000000AC
:105384000000000000000000000000000000000019
:105394000000000000000000000000000000000009
:1053A40000000000000000000000000000000000F9
:1053B40000000000000000000000000000000000E9
:1053C40000000000000000000000000000000000D9
:0C53D400000000000000000000000000CD
:04000005080029D5F1
:00000001FF
