:020000040800F2
:100000000050002021130008950B00089B0B0008EE
:10001000A10B0008A70B0008AD0B000800000000B2
:10002000000000000000000000000000B30B00080A
:10003000BF0B000800000000CB0B0008D70B000826
:1000400069130008691300086913000869130008A0
:100050006913000869130008691300086913000890
:100060006913000869130008691300086913000880
:100070006913000869130008691300086913000870
:100080006913000869130008691300086913000860
:100090006913000869130008691300086913000850
:1000A0006913000869130008691300086913000840
:1000B000E50B0008F90B0008691300086913000834
:1000C0006913000869130008691300086913000820
:1000D00069130008691300080D0C00086913000873
:1000E0006913000869130008691300080000000084
:1000F0000000000000000000000000000000000000
:0C01000000000000000000005FF808F1A3
:10010C0010B5054C237833B9044B13B10448AFF345
:10011C0000800123237010BD34000020000000007B
:10012C00843A000808B5034B1BB103490348AFF3ED
:10013C00008008BD0000000038000020843A000850
:10014C0080B582B000AF00237B6065E0364A7B68E7
:10015C0013441B78022B3AD0022B53DC002B02D019
:10016C00012B19D04EE0786800F0EAF90346002B19
:10017C004AD02D4A7B68134401221A70786800F02B
:10018C0059F87B68002B3FD1284B1B68012B3BDDBA
:10019C000A2000F093FD37E0786800F0D1F90346AF
:1001AC00002B05D1204A7B68134400221A702DE0E5
:1001BC00786800F0DFF90346002B27D01A4A7B68D9
:1001CC00134402221A700A2000F092FD1EE0786897
:1001DC0000F0B6F90346002B05D1134A7B68134493
:1001EC0000221A7014E07B68002B11D0104B1B6896
:1001FC00012B0DD1786800F01DF84FF47A7000F0E7
:10020C0077FD05E000BF04E000BF02E000BF00E0A6
:10021C0000BF7B6801337B607B68032B96DD00BFDE
:10022C0000BF0837BD4680BD70000020580000207C
:10023C00AC00002080B582B000AF78607B68032BE7
:10024C0000F2B48001A252F823F000BF690200084A
:10025C00ED0200086D030008A3030008564B1B6851
:10026C00591C564B83FB01235A10CB17D21A134639
:10027C009B001344CA1A504B1A60514B1B68514ACD
:10028C001360514B1B68514A1360514B1B68514A08
:10029C001360494B1B68002B06D14F4B00221A6090
:1002AC004E4B00221A6082E04B4B0C221A604B4BD7
:1002BC000C221A6000224FF48061494801F00BFCBB
:1002CC0000220821474801F006FC00222021454865
:1002DC0001F001FC00221021424801F0FCFB66E019
:1002EC00354B1B68042B28D0042B37DC022B02D097
:1002FC00032B11D032E0334B1B6803F57A723A4B67
:10030C0083FB02131913D317CB1A384901FB03F3E0
:10031C00D31A2C4A136022E02C4B1B6803F57A721B
:10032C00314B83FB02131913D317CB1A2F4901FB43
:10033C0003F3D31A254A136011E0264B1B6803F50F
:10034C007A72294B83FB02131913D317CB1A274943
:10035C0001FB03F3D31A1F4A136000E000BF26E031
:10036C00154B1B68042B10D0042B12DC022B02D073
:10037C00032B05D00DE0134B1B68114A136009E0E9
:10038C00124B1B68104A136004E0124B1B68104A96
:10039C00136000BF0BE0164B01221A60154B0122B3
:1003AC001A6044F6206000F0BDFC00E000BF00BF06
:1003BC000837BD4680BD00BF5800002067666666E2
:1003CC000C00002000000020100000200400002081
:1003DC0014000020080000205000002054000020D1
:1003EC0000080140000C01402178970AB8820100F6
:1003FC006C0000206800002080B582B000AF0023A4
:10040C007B6085E0474A7B6813441978464A7B68D1
:10041C0013440A461A707B68032B3BD801A252F88E
:10042C0023F000BF410400085904000871040008BF
:10043C008904000802213D4801F036FB03461946A9
:10044C00384A7B6813440A461A7024E01021374856
:10045C0001F02AFB03461946324A7B6813440A46CC
:10046C001A7018E00121324801F01EFB03461946B0
:10047C002C4A7B6813440A461A700CE001212B4865
:10048C0001F012FB03461946264A7B6813440A46C0
:10049C001A7000E000BF234A7B6813441A78224983
:1004AC007B680B441B789A4208D11E4A7B68134424
:1004BC001978204A7B6813440A461A701D4A7B68D7
:1004CC0013441B78002B16D11B4A7B6832F813306F
:1004DC00632B0AD8184A7B6832F81330013399B26F
:1004EC00154A7B6822F813100FE0144A7B681344FA
:1004FC0001221A7009E0104A7B68002122F81310BF
:10050C000E4A7B68134400221A707B6801337B60AF
:10051C007B68032B7FF776AF00BF00BF0837BD4663
:10052C0080BD00BF1C0000202000002000080140FE
:10053C00000C0140180000207800002074000020FE
:10054C0080B483B000AF78607B68032B01DD00239F
:10055C0008E0074A7B6813441B78002B0CBF01236F
:10056C000023DBB218460C37BD4680BC704700BF79
:10057C001800002080B483B000AF78607B68032B38
:10058C0001DDFF2308E0074A7B6813441B78012B2D
:10059C000CBF01230023DBB218460C37BD4680BCD0
:1005AC00704700BF7400002080B500AF00F0D8FE8B
:1005BC0000F046F800F072F900F084F800F0CEF884
:1005CC0000F042F9194801F021FF0021184801F010
:1005DC00C7FF00F02DFD00F0CBFDFFF7B1FD00F0E3
:1005EC0055FE00F0B5FC134B1B68012BF1D1124BDF
:1005FC001B68002B11D0114B1B680A330F4A136078
:10060C000E4B1B68282B02DD0C4B00221A600B4B87
:10061C001A68074B1B685A6303E0054B1B680022E2
:10062C005A634FF47A7000F02FFBD2E700010020E0
:10063C00B80000209C00002068000020640000200E
:10064C0080B590B000AF07F118032822002118469E
:10065C0003F00AFA3B1D00221A605A609A60DA60B5
:10066C001A610223BB610123BB621023FB620223CC
:10067C007B630023BB634FF46013FB6307F1180328
:10068C00184601F059FA0346002B01D000F080F90E
:10069C000F237B600223BB600023FB604FF480635D
:1006AC003B6100237B613B1D0221184601F0C4FC19
:1006BC000346002B01D000F06BF900BF4037BD465C
:1006CC0080BD000080B586B000AF07F108030022A2
:1006DC001A605A609A60DA603B4600221A605A60CF
:1006EC001D4B4FF080421A601B4B3F225A601A4B35
:1006FC0000229A60184B42F20F72DA60164B0022FD
:10070C001A61154B00229A61134801F02FFE034623
:10071C00002B01D000F03CF94FF48053BB6007F183
:10072C00080319460C4802F083F90346002B01D04C
:10073C0000F02EF900233B6000237B603B461946FA
:10074C00054802F001FD0346002B01D000F020F912
:10075C0000BF1837BD4680BD0001002080B58EB0AB
:10076C0000AF07F1280300221A605A609A60DA6021
:10077C0007F1200300221A605A603B1D00221A6008
:10078C005A609A60DA601A615A619A612C4B2D4A50
:10079C001A602B4B3F225A60294B00229A60284B3F
:1007AC0040F2E732DA60264B00221A61244B002219
:1007BC009A61234801F0DAFD0346002B01D000F0CA
:1007CC00E7F84FF48053BB6207F1280319461C4825
:1007DC0002F02EF90346002B01D000F0D9F818488E
:1007EC0001F066FE0346002B01D000F0D1F8002387
:1007FC003B6200237B6207F120031946104802F08C
:10080C00A3FC0346002B01D000F0C2F860237B60F0
:10081C000023BB600023FB6000237B613B1D002297
:10082C001946074802F046F80346002B01D000F0A9
:10083C00AFF8034800F024F900BF3837BD4680BD3F
:10084C00B80000200004004080B500AF114B124AE4
:10085C001A60104B4FF4C8525A600E4B00229A602B
:10086C000C4B0022DA600B4B00221A61094B0C2254
:10087C005A61084B00229A61064B0022DA61054846
:10088C0002F0D2FC0346002B01D000F081F800BF2F
:10089C0080BD00BF480100200044004080B586B0F8
:1008AC0000AF07F1080300221A605A609A60DA6000
:1008BC002E4B9B692D4A43F0040393612B4B9B6990
:1008CC0003F004037B607B68284B9B69274A43F049
:1008DC0008039361254B9B6903F008033B603B685D
:1008EC0000224FF48761224801F0F5F800224FF402
:1008FC00A061204801F0EFF81323BB600023FB60DC
:10090C0001233B6107F1080319461A4800F048FF20
:10091C000123BB600023FB6001233B6107F108034B
:10092C001946134800F03CFF4FF48763BB6001236A
:10093C00FB6001233B6102237B6107F1080319462D
:10094C000B4800F02DFF4FF4A063BB600123FB604C
:10095C0001233B6102237B6107F10803194605481B
:10096C0000F01EFF00BF1837BD4680BD00100240CE
:10097C00000C01400008014080B582B000AF7860E7
:10098C0000F0EAF9FFF738FD00BF0837BD4680BD1F
:10099C0080B400AF72B600BFFEE7000080B485B033
:1009AC0000AF154B9B69144A43F001039361124B42
:1009BC009B6903F00103BB60BB680F4BDB690E4AFC
:1009CC0043F08053D3610C4BDB6903F080537B60A5
:1009DC007B680A4B5B68FB60FB6823F0E063FB60A1
:1009EC00FB6843F00073FB60044AFB68536000BF74
:1009FC001437BD4680BC7047001002400000014017
:100A0C0080B584B000AF78607B681B68B3F1804F11
:100A1C0014D1194BDB69184A43F00103D361164B0F
:100A2C00DB6903F00103FB60FB68002200211C2042
:100A3C0000F0CFFD1C2000F0E8FD18E07B681B687F
:100A4C000E4A934213D10C4BDB690B4A43F0020361
:100A5C00D361094BDB6903F00203BB60BB68002266
:100A6C0000211D2000F0B5FD1D2000F0CEFD00BFC3
:100A7C001037BD4680BD00BF00100240000400408E
:100A8C0080B588B000AF786007F1100300221A60BF
:100A9C005A609A60DA607B681B680F4A934217D1E0
:100AAC000E4B9B690D4A43F0040393610B4B9B69FE
:100ABC0003F00403FB60FB6840233B6102237B6172
:100ACC000223FB6107F110031946054800F068FE8C
:100ADC0000BF2037BD4680BD00040040001002401E
:100AEC000008014080B588B000AF786007F11003B2
:100AFC0000221A605A609A60DA607B681B681F4A91
:100B0C00934237D11E4BDB691D4A43F40033D3614A
:100B1C001B4BDB6903F40033FB60FB68184B9B69D0
:100B2C00174A43F004039361154B9B6903F00403CC
:100B3C00BB60BB6804233B6102237B610323FB6125
:100B4C0007F1100319460F4800F02AFE08233B61F9
:100B5C0000237B610023BB6107F110031946094890
:100B6C0000F01EFE00220021262000F032FD26207F
:100B7C0000F04BFD00BF2037BD4680BD0044004057
:100B8C00001002400008014080B400AFFEE780B4C2
:100B9C0000AFFEE780B400AFFEE780B400AFFEE725
:100BAC0080B400AFFEE780B400AF00BFBD4680BC90
:100BBC00704780B400AF00BFBD4680BC704780B4A6
:100BCC0000AF00BFBD4680BC704780B500AF00F0E1
:100BDC000DFC00BF80BD000080B500AF024801F0E5
:100BEC0061FD00BF80BD00BF0001002080B500AFDB
:100BFC00024801F057FD00BF80BD00BFB8000020C7
:100C0C0080B500AF024802F05DFB00BF80BD00BFA5
:100C1C004801002080B400AF00BFBD4680BC7047C7
:100C2C0080B483B000AF7860074B1B687A6892FB86
:100C3C00F3F3064A1360064B00221A6000BF0C3710
:100C4C00BD4680BC704700BF2800002088000020F3
:100C5C008C00002080B483B000AF7860074B1B6819
:100C6C007A6892FBF3F3064A1360064B00221A6073
:100C7C0000BF0C37BD4680BC704700BF2800002069
:100C8C00900000209400002080B483B000AF786006
:100C9C00074B1B687A6892FBF3F3064A1360064B0A
:100CAC0000221A6000BF0C37BD4680BC704700BFE5
:100CBC0028000020980000209C00002080B483B005
:100CCC0000AF7860074B1B687A6892FBF3F3064A17
:100CDC001360064B00221A6000BF0C37BD4680BC67
:100CEC00704700BF28000020A0000020A4000020B6
:100CFC0080B483B000AF7860074B1B687A6892FBB6
:100D0C00F3F3064A1360064B00221A6000BF0C373F
:100D1C00BD4680BC704700BF28000020A800002002
:100D2C00AC00002080B483B000AF7860074B1B6828
:100D3C007A6892FBF3F3064A1360064B00221A60A2
:100D4C0000BF0C37BD4680BC704700BF2800002098
:100D5C00B0000020B400002080B400AF394B1B68F9
:100D6C00002B0BDD374B1B68013B364A1360354BB0
:100D7C001B68002B02D1344B01221A60334B1B68C9
:100D8C00002B0BDD314B1B68013B304A13602F4BA2
:100D9C001B68002B02D12E4B01221A602D4B1B68B5
:100DAC00002B0BDD2B4B1B68013B2A4A1360294B94
:100DBC001B68002B02D1284B01221A60274B1B68A1
:100DCC00002B0BDD254B1B68013B244A1360234B86
:100DDC001B68002B02D1224B01221A60214B1B688D
:100DEC00002B0BDD1F4B1B68013B1E4A13601D4B78
:100DFC001B68002B02D11C4B01221A601B4B1B6879
:100E0C00002B0BDD194B1B68013B184A1360174B69
:100E1C001B68002B02D1164B01221A60154B1B6864
:100E2C00002B0BDD134B1B68013B124A1360114B5B
:100E3C001B68002B02D1104B01221A6000BFBD466B
:100E4C0080BC7047800000208400002088000020B7
:100E5C008C000020900000209400002098000020BE
:100E6C009C000020A0000020A4000020A80000206E
:100E7C00AC000020B0000020B400002080B500AF12
:100E8C00174B1B68022B0AD100224FF480611548C6
:100E9C0000F021FE01220821134800F01CFE104B2B
:100EAC001B68032B0AD101224FF480610D4800F01E
:100EBC0012FE012208210C4800F00DFE084B1B68A5
:100ECC00012B0AD101224FF48061064800F003FE89
:100EDC0000220821044800F0FEFD00BF80BD00BFC9
:100EEC005000002000080140000C014080B500AF0C
:100EFC00154B1B68022B09D100222021134800F04E
:100F0C00EAFD01221021114800F0E5FD0E4B1B6893
:100F1C00032B09D1012220210C4800F0DCFD012219
:100F2C0010210A4800F0D7FD074B1B68012B09D193
:100F3C0001222021054800F0CEFD0022102103489B
:100F4C0000F0C9FD00BF80BD54000020000C014022
:100F5C0080B500AF2F4B1B68002B03D02E4B1B68AA
:100F6C00012B15D100224FF480612C4800F0B3FD09
:100F7C0000224FF480712A4800F0ADFD254B002271
:100F8C001A60284B00221A60274B00221A6040E09E
:100F9C00264B1B68032B15D0032B39DC012B24D0DB
:100FAC00022B35D100224FF480611C4800F093FDD8
:100FBC0001224FF480711A4800F08DFD194B01226B
:100FCC001A6026E001224FF48061144800F083FD82
:100FDC0000224FF48071124800F07DFD114B00226D
:100FEC001A60114B00221A6013E001224FF4806149
:100FFC000A4800F070FD00224FF48071084800F0A0
:10100C006AFD084B00221A60074B00221A6000E0B0
:10101C0000BF80BD6C000020B4000020000C01401B
:10102C0000080140680000206400002050000020EF
:10103C0080B500AF454B1B680C2B7ED801A252F833
:10104C0023F000BF851000089F100008D71000087F
:10105C000F1100084711000847110008471100083C
:10106C0047110008471100084711000847110008F4
:10107C004711000847110008344B01221A600A205E
:10108C00FFF7CEFD0A20FFF7FFFD314B01221A605E
:10109C005AE0304B1B68012B51D12F4B01221A60A7
:1010AC00FFF7ECFE294B02221A602C4B1B682C4AD2
:1010BC0082FB03129211DB17D31A2A4A1360274BB7
:1010CC001B681846FFF7ACFD39E0224B1B68012B5F
:1010DC0037D1FFF7D3FE1D4B03221A60224B1B683E
:1010EC001F4A82FB03129211DB17D31A1D4A13609D
:1010FC001D4B1B681846FFF793FD174B00221A6017
:10110C001FE0144B1B68012B1DD1FFF7B7FE0F4BD3
:10111C0001221A60154B1B68114A82FB03129211B3
:10112C00DB17D31A0F4A1360104B1B681846FFF7D6
:10113C0077FD094B00221A6005E000BF04E000BFF8
:10114C0002E000BF00E000BF00BF80BD50000020E7
:10115C00580000208C0000206800002000000020B7
:10116C00D34D62105C000020080000200400002019
:10117C0080B500AF3E4B1B680C2B6FD801A252F808
:10118C0023F000BFC5110008D31100080512000898
:10119C003712000869120008691200086912000869
:1011AC006912000869120008691200086912000827
:1011BC0069120008691200082D4B02221A600A20DD
:1011CC00FFF748FD51E02B4B1B68012B48D1FFF773
:1011DC008DFE274B02221A60274B1B68274A82FB85
:1011EC0003129211DB17D31A254A1360224B1B688A
:1011FC001846FFF72FFD33E01E4B1B68012B31D136
:10120C00FFF774FE1A4B03221A601E4B1B681B4A15
:10121C0082FB03129211DB17D31A194A1360194B74
:10122C001B681846FFF716FD1CE0124B1B68012BC0
:10123C001AD1FFF75BFE0E4B01221A60124B1B6892
:10124C000E4A82FB03129211DB17D31A0C4A13605D
:10125C000D4B1B681846FFF7FDFC05E000BF04E0D2
:10126C0000BF02E000BF00E000BF00BF80BD00BFB8
:10127C00540000209400002000000020D34D621088
:10128C0060000020080000200400002080B500AFA2
:10129C001C4B1B68012B33D11B4B1B68042B22D01E
:1012AC00042B29DC022B02D0032B0AD024E04FF4B0
:1012BC008061164800F027FC2021154800F023FC23
:1012CC001BE04FF48061114800F01DFC20211048F8
:1012DC0000F019FC08210E4800F015FC10210C48F8
:1012EC0000F011FC09E00821094800F00CFC102169
:1012FC00074800F008FC00E000BFFA20FFF7DEFC16
:10130C0000BF80BDA4000020580000200008014050
:10131C00000C01400C480D490D4A002302E0D45842
:10132C00C4500433C4188C42F9D30A4A0A4C002323
:10133C0001E013600432A242FBD3FFF76BFC02F016
:10134C006FFBFFF731F970470000002034000020DC
:10135C00CC3A00083400002090010020FEE7000089
:10136C0080B500AF084B1B68074A43F010031360AD
:10137C00032000F023F90F2000F008F8FFF70EFB14
:10138C000023184680BD00BF0020024080B582B00B
:10139C0000AF7860124B1A68124B1B7819464FF449
:1013AC007A73B3FBF1F3B2FBF3F3184600F03BF99D
:1013BC000346002B01D001230EE07B680F2B0AD8CB
:1013CC00002279684FF0FF3000F003F9064A7B6881
:1013DC001360002300E0012318460837BD4680BD8A
:1013EC0024000020300000202C00002080B400AF2E
:1013FC00054B1B781A46054B1B681344034A1360B4
:10140C0000BFBD4680BC7047300000208C0100201E
:10141C0080B400AF024B1B681846BD4680BC7047B9
:10142C008C01002080B485B000AF78607B6803F03D
:10143C000703FB600C4BDB68BB60BA684FF6FF031D
:10144C001340BB60FB681A02BB68134343F0BF63D5
:10145C0043F40033BB60044ABB68D36000BF14374D
:10146C00BD4680BC704700BF00ED00E080B400AF0B
:10147C00044BDB681B0A03F007031846BD4680BC0F
:10148C00704700BF00ED00E080B483B000AF0346AE
:10149C00FB7197F90730002B0BDBFB7903F01F0274
:1014AC00064997F907305B09012000FA02F241F86E
:1014BC00232000BF0C37BD4680BC704700E100E024
:1014CC0080B483B000AF03463960FB7197F90730E5
:1014DC00002B0ADB3B68DAB20C4997F90730120192
:1014EC00D2B20B4483F800230AE03B68DAB2084915
:1014FC00FB7903F00F03043B1201D2B20B441A76B2
:10150C0000BF0C37BD4680BC704700BF00E100E057
:10151C0000ED00E080B489B000AFF860B9607A608B
:10152C00FB6803F00703FB61FB69C3F10703042BA2
:10153C0028BF0423BB61FB690433062B02D9FB696A
:10154C00033B00E000237B614FF0FF32BB6902FAE2
:10155C0003F3DA43BB681A407B699A404FF0FF31C2
:10156C007B6901FA03F3D9437B680B40134318469C
:10157C002437BD4680BC704780B582B000AF786020
:10158C007B68013BB3F1807F01D301230FE00A4A52
:10159C007B68013B53600F214FF0FF30FFF790FF4A
:1015AC00054B00229A60044B07221A600023184650
:1015BC000837BD4680BD00BF10E000E080B582B0AA
:1015CC0000AF78607868FFF72DFF00BF0837BD4685
:1015DC0080BD80B586B000AF0346B9607A60FB73FE
:1015EC0000237B61FFF742FF78617A68B9687869FC
:1015FC00FFF790FF024697F90F3011461846FFF798
:10160C005FFF00BF1837BD4680BD80B582B000AF0C
:10161C000346FB7197F907301846FFF735FF00BFFB
:10162C000837BD4680BD80B582B000AF7860786861
:10163C00FFF7A2FF034618460837BD4680BD80B4AD
:10164C0085B000AF78600023FB737B6893F8213082
:10165C00022B08D07B6804229A637B68002283F8F3
:10166C002020012320E07B681B681A687B681B68BC
:10167C0022F00E021A607B681B681A687B681B6874
:10168C0022F001021A607B681A6C7B68DB6B01210B
:10169C0001FA02F25A607B68012283F821207B68F0
:1016AC00002283F82020FB7B18461437BD4680BCF3
:1016BC007047000080B584B000AF78600023FB73E6
:1016CC007B6893F82130022B05D07B6804229A6347
:1016DC000123FB7351E07B681B681A687B681B68ED
:1016EC0022F00E021A607B681B681A687B681B6804
:1016FC0022F001021A607B681B68224A934229D0AF
:10170C007B681B68204A934222D07B681B681F4A67
:10171C0093421AD07B681B681D4A934212D07B6897
:10172C001B681C4A93420AD07B681B681A4A934276
:10173C0002D14FF480130EE04FF080730BE04FF4A6
:10174C00803308E04FF4805305E04FF4807302E0DF
:10175C00102300E00123114A53607B68012283F8B7
:10176C0021207B68002283F820207B685B6B002B98
:10177C0003D07B685B6B78689847FB7B1846103707
:10178C00BD4680BD080002401C00024030000240F3
:10179C0044000240580002406C000240000002402D
:1017AC0080B48BB000AF7860396000237B6200237B
:1017BC003B6269E101227B6A02FA03F3FB613B683D
:1017CC001B68FA691340BB61BA69FB699A4240F025
:1017DC0058813B685B689A4A93425ED0984A934220
:1017EC0075D8984A934258D0964A93426FD8964AE5
:1017FC00934252D0944A934269D8944A93424CD023
:10180C00924A934263D8924A934246D0904A93426A
:10181C005DD8122B2AD8122B59D801A252F823F0DA
:10182C00A71800088118000893180008D51800089C
:10183C00DB180008DB180008DB180008DB180008B0
:10184C00DB180008DB180008DB180008DB180008A0
:10185C00DB180008DB180008DB180008DB18000890
:10186C00DB180008891800089D180008794A934273
:10187C0013D02CE03B68DB683B6229E03B68DB68FB
:10188C0004333B6224E03B68DB6808333B621FE0B7
:10189C003B68DB680C333B621AE03B689B68002BAF
:1018AC0002D104233B6213E03B689B68012B05D1FA
:1018BC0008233B627B68FA691A6109E008233B62E2
:1018CC007B68FA695A6103E000233B6200E000BFC9
:1018DC00BB69FF2B01D87B6801E07B6804337B611B
:1018EC00BB69FF2B02D87B6A9B0002E07B6A083B3A
:1018FC009B003B617B691A680F213B6901FA03F37A
:10190C00DB431A40396A3B6901FA03F31A437B69DA
:10191C001A603B685B6803F08053002B00F0B180C9
:10192C004D4B9B694C4A43F0010393614A4B9B69B5
:10193C0003F00103BB60BB68484A7B6A9B08023317
:10194C0052F82330FB607B6A03F003039B000F22E9
:10195C0002FA03F3DB43FA681340FB607B68404AEE
:10196C00934213D07B683F4A93420DD07B683E4A2A
:10197C00934207D07B683D4A934201D1032306E092
:10198C00042304E0022302E0012300E000237A6A2E
:10199C0002F0030292009340FA681343FB602F4954
:1019AC007B6A9B080233FA6841F823203B685B682A
:1019BC0003F48033002B06D02D4B1A682C49BB69DD
:1019CC0013430B6006E02A4B1A68BB69DB432849BA
:1019DC0013400B603B685B6803F40033002B06D0AC
:1019EC00234B5A682249BB6913434B6006E0204BDA
:1019FC005A68BB69DB431E4913404B603B685B680C
:101A0C0003F48013002B06D0194B9A681849BB6954
:101A1C0013438B6006E0164B9A68BB69DB43144991
:101A2C0013408B603B685B6803F40013002B21D0E0
:101A3C000F4BDA680E49BB691343CB6021E000BF42
:101A4C0000003210000031100000221000002110A4
:101A5C0000001210000011100010024000000140A4
:101A6C0000080140000C014000100140001401402E
:101A7C00000401400B4BDA68BB69DB430949134096
:101A8C00CB607B6A01337B623B681A687B6A22FA03
:101A9C0003F3002B7FF48EAE00BF00BF2C37BD4686
:101AAC0080BC70470004014080B485B000AF786002
:101ABC000B467B807B689A687B881340002B02D096
:101ACC000123FB7301E00023FB73FB7B18461437E7
:101ADC00BD4680BC704780B483B000AF78600B46C5
:101AEC007B8013467B707B78002B03D07A887B68D5
:101AFC001A6103E07B881A047B681A6100BF0C37FB
:101B0C00BD4680BC704780B485B000AF78600B4692
:101B1C007B807B68DB68FB607A88FB6813401A0467
:101B2C00FB68D9437B880B401A437B681A6100BF62
:101B3C001437BD4680BC704780B586B000AF786066
:101B4C007B68002B01D101236CE27B681B6803F0DE
:101B5C000103002B00F08780924B5B6803F00C03B1
:101B6C00042B0CD08F4B5B6803F00C03082B12D1A9
:101B7C008C4B5B6803F48033B3F5803F0BD1894BFE
:101B8C001B6803F40033002B6CD07B685B68002B64
:101B9C0068D1012346E27B685B68B3F5803F06D1D0
:101BAC00804B1B687F4A43F4803313602EE07B68C4
:101BBC005B68002B0CD17B4B1B687A4A23F4803377
:101BCC001360784B1B68774A23F4802313601DE065
:101BDC007B685B68B3F5A02F0CD1724B1B68714A04
:101BEC0043F4802313606F4B1B686E4A43F48033BD
:101BFC0013600BE06B4B1B686A4A23F48033136051
:101C0C00684B1B68674A23F4802313607B685B680E
:101C1C00002B13D0FFF7FCFB386108E0FFF7F8FB53
:101C2C0002463B69D31A642B01D90323FAE15D4BBD
:101C3C001B6803F40033002BF0D014E0FFF7E8FB33
:101C4C00386108E0FFF7E4FB02463B69D31A642BCA
:101C5C0001D90323E6E1534B1B6803F40033002B3B
:101C6C00F0D100E000BF7B681B6803F00203002B7F
:101C7C0063D04C4B5B6803F00C03002B0BD0494B2F
:101C8C005B6803F00C03082B1CD1464B5B6803F418
:101C9C008033002B16D1434B1B6803F00203002B3F
:101CAC0005D07B681B69012B01D00123BAE13D4BA8
:101CBC001B6823F0F8027B685B69DB00394913432E
:101CCC000B603AE07B681B69002B20D0364B01225D
:101CDC001A60FFF79DFB386108E0FFF799FB02469D
:101CEC003B69D31A022B01D903239BE12D4B1B68B3
:101CFC0003F00203002BF0D02A4B1B6823F0F802F0
:101D0C007B685B69DB00274913430B6015E0264BAE
:101D1C0000221A60FFF77CFB386108E0FFF778FBC4
:101D2C0002463B69D31A022B01D903237AE11D4BDE
:101D3C001B6803F00203002BF0D17B681B6803F0D7
:101D4C000803002B3AD07B689B69002B19D0174BEA
:101D5C0001221A60FFF75CFB386108E0FFF758FBC3
:101D6C0002463B69D31A022B01D903235AE10D4BCE
:101D7C005B6A03F00203002BF0D0012000F0D8FACC
:101D8C001CE00A4B00221A60FFF742FB38610FE09F
:101D9C00FFF73EFB02463B69D31A022B08D90323FB
:101DAC0040E100BF00100240000042428004424269
:101DBC009E4B5B6A03F00203002BE9D17B681B6826
:101DCC0003F00403002B00F0A6800023FB75974B57
:101DDC00DB6903F08053002B0DD1944BDB69934AE4
:101DEC0043F08053D361914BDB6903F08053BB60AC
:101DFC00BB680123FB758E4B1B6803F48073002BAF
:101E0C0018D18B4B1B688A4A43F480731360FFF71D
:101E1C00FFFA386108E0FFF7FBFA02463B69D31A78
:101E2C00642B01D90323FDE0814B1B6803F4807301
:101E3C00002BF0D07B68DB68012B06D17B4B1B6A37
:101E4C007A4A43F0010313622DE07B68DB68002BB8
:101E5C000CD1764B1B6A754A23F001031362734B4A
:101E6C001B6A724A23F0040313621CE07B68DB6874
:101E7C00052B0CD16D4B1B6A6C4A43F004031362A7
:101E8C006A4B1B6A694A43F0010313620BE0674B10
:101E9C001B6A664A23F001031362644B1B6A634A94
:101EAC0023F0040313627B68DB68002B15D0FFF76B
:101EBC00AFFA38610AE0FFF7ABFA02463B69D31A76
:101ECC0041F28832934201D90323ABE0574B1B6A92
:101EDC0003F00203002BEED014E0FFF799FA3861FF
:101EEC000AE0FFF795FA02463B69D31A41F28832B1
:101EFC00934201D9032395E04C4B1B6A03F0020378
:101F0C00002BEED1FB7D012B05D1484BDB69474AF9
:101F1C0023F08053D3617B68DB69002B00F0818058
:101F2C00424B5B6803F00C03082B61D07B68DB69C8
:101F3C00022B46D13F4B00221A60FFF769FA386139
:101F4C0008E0FFF765FA02463B69D31A022B01D968
:101F5C00032367E0354B1B6803F00073002BF0D1B3
:101F6C007B681B6AB3F5803F08D1304B5B6823F468
:101F7C0000327B689B682D4913434B602B4B5B688D
:101F8C0023F474127B68196A7B685B6A0B432749DC
:101F9C0013434B60274B01221A60FFF739FA386163
:101FAC0008E0FFF735FA02463B69D31A022B01D938
:101FBC00032337E01D4B1B6803F00073002BF0D09C
:101FCC002FE01C4B00221A60FFF722FA386108E060
:101FDC00FFF71EFA02463B69D31A022B01D90323E1
:101FEC0020E0124B1B6803F00073002BF0D118E0BB
:101FFC007B68DB69012B01D1012313E00B4B5B6880
:10200C00FB60FB6803F480327B681B6A9A4206D142
:10201C00FB6803F470127B685B6A9A4201D001235F
:10202C0000E0002318461837BD4680BD0010024062
:10203C00007000406000424280B584B000AF786010
:10204C0039607B68002B01D10123D0E06A4B1B68FF
:10205C0003F007033A689A4210D9674B1B6823F0C8
:10206C00070265493B6813430B60634B1B6803F025
:10207C0007033A689A4201D00123B8E07B681B68D9
:10208C0003F00203002B20D07B681B6803F00403D1
:10209C00002B05D0594B5B68584A43F4E0635360FE
:1020AC007B681B6803F00803002B05D0534B5B685F
:1020BC00524A43F460535360504B5B6823F0F00278
:1020CC007B689B684D4913434B607B681B6803F02E
:1020DC000103002B40D07B685B68012B07D1474B79
:1020EC001B6803F40033002B15D101237FE07B68C0
:1020FC005B68022B07D1414B1B6803F00073002B6C
:10210C0009D1012373E03D4B1B6803F00203002B44
:10211C0001D101236BE0394B5B6823F003027B6830
:10212C005B68364913434B60FFF772F9F8600AE0BD
:10213C00FFF76EF90246FB68D31A41F288329342DC
:10214C0001D9032353E02D4B5B6803F00C027B6831
:10215C005B689B009A42EBD1274B1B6803F007038B
:10216C003A689A4210D2244B1B6823F0070222498A
:10217C003B6813430B60204B1B6803F007033A6862
:10218C009A4201D0012332E07B681B6803F0040300
:10219C00002B08D0194B5B6823F4E0627B68DB688A
:1021AC00164913434B607B681B6803F00803002B34
:1021BC0009D0124B5B6823F460527B681B69DB000F
:1021CC000E4913434B6000F021F802460B4B5B6841
:1021DC001B0903F00F030A49CB5C22FA03F3094AEB
:1021EC001360094B1B681846FFF7D0F800231846FC
:1021FC001037BD4680BD00BF0020024000100240D9
:10220C00AC3A0008240000202C00002090B48AB0C6
:10221C0000AF2A4B3C1D0FCB84E80F0040F201238A
:10222C003B800023FB610023BB6100237B62002306
:10223C007B6100233B62224B5B68FB61FB6903F013
:10224C000C03042B02D0082B03D02DE01D4B3B625A
:10225C002DE0FB699B0C03F00F0307F128021344DC
:10226C0013F8243C7B61FB6903F48033002B13D0FF
:10227C00134B5B685B0C03F0010307F1280213445A
:10228C0013F8283CBB617B690E4A02FB03F2BB6965
:10229C00B2FBF3F37B6204E07B690B4A02FB03F3B2
:1022AC007B627B6A3B6202E0064B3B6200BF3B6A8F
:1022BC0018462837BD4690BC704700BF9C3A0008B2
:1022CC000010024000127A0000093D0080B400AFFB
:1022DC00024B1B681846BD4680BC7047240000208A
:1022EC0080B500AFFFF7F2FF0246054B5B681B0A97
:1022FC0003F007030349CB5C22FA03F3184680BDB5
:10230C0000100240BC3A000880B500AFFFF7DEFFBA
:10231C000246054B5B68DB0A03F007030349CB5C01
:10232C0022FA03F3184680BD00100240BC3A0008A4
:10233C0080B485B000AF78600A4B1B680A4AA2FBD8
:10234C0003235B0A7A6802FB03F3FB6000BFFB68A4
:10235C005A1EFA60002BF9D100BF00BF1437BD46DE
:10236C0080BC704724000020D34D621080B582B031
:10237C0000AF78607B68002B01D1012341E07B68C2
:10238C0093F83D30DBB2002B06D17B68002283F83A
:10239C003C207868FEF734FB7B68022283F83D20F2
:1023AC007B681A687B6804331946104600F028FCD9
:1023BC007B68012283F846207B68012283F83E204B
:1023CC007B68012283F83F207B68012283F8402040
:1023DC007B68012283F841207B68012283F842202C
:1023EC007B68012283F843207B68012283F8442018
:1023FC007B68012283F845207B68012283F83D200D
:10240C00002318460837BD4680BD000080B485B057
:10241C0000AF78607B6893F83D30DBB2012B01D0C4
:10242C0001233AE07B68022283F83D207B681B681D
:10243C00DA687B681B6842F00102DA607B681B6813
:10244C00184A93420ED07B681B68B3F1804F09D0B9
:10245C007B681B68144A934204D07B681B68134A40
:10246C00934211D17B681B689B6803F00703FB60E8
:10247C00FB68062B10D07B681B681A687B681B688E
:10248C0042F001021A6007E07B681B681A687B68DF
:10249C001B6842F001021A60002318461437BD462F
:1024AC0080BC7047002C0140000400400008004034
:1024BC0080B582B000AF78607B68002B01D101231E
:1024CC0041E07B6893F83D30DBB2002B06D17B6892
:1024DC00002283F83C20786800F039F87B680222EF
:1024EC0083F83D207B681A687B68043319461046D4
:1024FC0000F086FB7B68012283F846207B68012272
:10250C0083F83E207B68012283F83F207B68012200
:10251C0083F840207B68012283F841207B680122EC
:10252C0083F842207B68012283F843207B680122D8
:10253C0083F844207B68012283F845207B680122C4
:10254C0083F83D20002318460837BD4680BD80B473
:10255C0083B000AF786000BF0C37BD4680BC7047BD
:10256C0080B584B000AF786039603B68002B09D12E
:10257C007B6893F83E30DBB2012B14BF01230023A0
:10258C00DBB222E03B68042B09D17B6893F83F3027
:10259C00DBB2012B14BF01230023DBB215E03B6837
:1025AC00082B09D17B6893F84030DBB2012B14BFA8
:1025BC0001230023DBB208E07B6893F84130DBB2E7
:1025CC00012B14BF01230023DBB2002B01D001230C
:1025DC005EE03B68002B04D17B68022283F83E202E
:1025EC0013E03B68042B04D17B68022283F83F2064
:1025FC000BE03B68082B04D17B68022283F8402057
:10260C0003E07B68022283F841207B681B6801226F
:10261C003968184600F074FD7B681B681E4A9342AB
:10262C0007D17B681B685A6C7B681B6842F40042BC
:10263C005A647B681B68184A93420ED07B681B68EF
:10264C00B3F1804F09D07B681B68144A934204D0C5
:10265C007B681B68124A934211D17B681B689B688C
:10266C0003F00703FB60FB68062B10D07B681B682C
:10267C001A687B681B6842F001021A6007E07B68ED
:10268C001B681A687B681B6842F001021A60002301
:10269C0018461037BD4680BD002C01400004004098
:1026AC000008004080B582B000AF78607B681B6882
:1026BC001B6903F00203022B22D17B681B68DB68C9
:1026CC0003F00203022B1BD17B681B686FF0020224
:1026DC001A617B6801221A777B681B689B6903F07F
:1026EC000303002B03D0786800F06FFA05E07868DC
:1026FC0000F062FA786800F071FA7B6800221A77B1
:10270C007B681B681B6903F00403042B22D17B68D4
:10271C001B68DB6803F00403042B1BD17B681B686C
:10272C006FF004021A617B6802221A777B681B68BF
:10273C009B6903F44073002B03D0786800F045FAD2
:10274C0005E0786800F038FA786800F047FA7B68A2
:10275C0000221A777B681B681B6903F00803082B9F
:10276C0022D17B681B68DB6803F00803082B1BD1A4
:10277C007B681B686FF008021A617B6804221A7769
:10278C007B681B68DB6903F00303002B03D07868BC
:10279C0000F01BFA05E0786800F00EFA786800F09B
:1027AC001DFA7B6800221A777B681B681B6903F093
:1027BC001003102B22D17B681B68DB6803F010031D
:1027CC00102B1BD17B681B686FF010021A617B68A1
:1027DC0008221A777B681B68DB6903F44073002BB3
:1027EC0003D0786800F0F1F905E0786800F0E4F9BE
:1027FC00786800F0F3F97B6800221A777B681B6815
:10280C001B6903F00103012B0ED17B681B68DB688D
:10281C0003F00103012B07D17B681B686FF00102E9
:10282C001A617868FEF7A8F87B681B681B6903F0CF
:10283C008003802B0ED17B681B68DB6803F0800360
:10284C00802B07D17B681B686FF080021A61786857
:10285C0000F0E1FC7B681B681B6903F04003402B14
:10286C000ED17B681B68DB6803F04003402B07D15B
:10287C007B681B686FF040021A61786800F0B7F94A
:10288C007B681B681B6903F02003202B0ED17B682F
:10289C001B68DB6803F02003202B07D17B681B68C7
:1028AC006FF020021A61786800F0ACFC00BF0837AA
:1028BC00BD4680BD80B584B000AFF860B9607A6069
:1028CC00FB6893F83C30012B01D10223ACE0FB6890
:1028DC00012283F83C207B680C2B00F29F8001A224
:1028EC0052F823F025290008292A0008292A000873
:1028FC00292A000865290008292A0008292A000825
:10290C00292A0008A7290008292A0008292A0008D2
:10291C00292A0008E7290008FB681B68B9681846D3
:10292C0000F0D0F9FB681B689A69FB681B6842F0E1
:10293C0008029A61FB681B689A69FB681B6822F0A5
:10294C0004029A61FB681B689969BB681A69FB6889
:10295C001B680A439A6162E0FB681B68B9681846F9
:10296C0000F016FAFB681B689A69FB681B6842F456
:10297C0000629A61FB681B689A69FB681B6822F409
:10298C0080629A61FB681B689969BB681B691A02B3
:10299C00FB681B680A439A6141E0FB681B68B968D5
:1029AC00184600F05FFAFB681B68DA69FB681B6865
:1029BC0042F00802DA61FB681B68DA69FB681B6885
:1029CC0022F00402DA61FB681B68D969BB681A69DA
:1029DC00FB681B680A43DA6121E0FB681B68B96875
:1029EC00184600F0A9FAFB681B68DA69FB681B68DB
:1029FC0042F40062DA61FB681B68DA69FB681B68E9
:102A0C0022F48062DA61FB681B68D969BB681B69B8
:102A1C001A02FB681B680A43DA6100E000BFFB681E
:102A2C00002283F83C20002318461037BD4680BD99
:102A3C0080B584B000AF786039607B6893F83C3027
:102A4C00012B01D10223B3E07B68012283F83C20E7
:102A5C007B68022283F83D207B681B689B68FB60C7
:102A6C00FB6823F07703FB60FB6823F47F43FB6078
:102A7C007B681B68FA689A603B681B68B3F5005F5B
:102A8C003ED0B3F5005F00F28780B3F5805F00F0B5
:102A9C008580B3F5805F7FD8702B1AD0702B7BD8D4
:102AAC00602B50D0602B77D8502B3CD0502B73D848
:102ABC00402B58D0402B6FD8302B64D0302B6BD898
:102ACC00202B60D0202B67D8002B5CD0102B5AD039
:102ADC0062E07B6818683B6899683B685A683B6899
:102AEC00DB6800F0EEFA7B681B689B68FB60FB6898
:102AFC0043F07703FB607B681B68FA689A604EE0D2
:102B0C007B6818683B6899683B685A683B68DB6867
:102B1C0000F0D7FA7B681B689A687B681B6842F4E4
:102B2C0080429A603BE07B6818683B6859683B6858
:102B3C00DB681A4600F04EFA7B681B685021184679
:102B4C0000F0A5FA2BE07B6818683B6859683B6875
:102B5C00DB681A4600F06CFA7B681B68602118462B
:102B6C0000F095FA1BE07B6818683B6859683B6875
:102B7C00DB681A4600F02EFA7B681B684021184669
:102B8C0000F085FA0BE07B681A683B681B681946F5
:102B9C00104600F07CFA02E000BF00E000BF7B684A
:102BAC00012283F83D207B68002283F83C2000231F
:102BBC0018461037BD4680BD80B483B000AF786036
:102BCC0000BF0C37BD4680BC704780B483B000AFEB
:102BDC00786000BF0C37BD4680BC704780B483B0B2
:102BEC0000AF786000BF0C37BD4680BC704780B426
:102BFC0083B000AF786000BF0C37BD4680BC704717
:102C0C0080B485B000AF786039607B681B68FB606E
:102C1C007B68294A93420BD07B68B3F1804F07D075
:102C2C007B68264A934203D07B68254A934208D19D
:102C3C00FB6823F07003FB603B685B68FA68134326
:102C4C00FB607B681C4A93420BD07B68B3F1804FCE
:102C5C0007D07B68194A934203D07B68184A934289
:102C6C0008D1FB6823F44073FB603B68DB68FA68AF
:102C7C001343FB60FB6823F080023B685B691343E2
:102C8C00FB607B68FA681A603B689A687B68DA625A
:102C9C003B681A687B689A627B68074A934203D147
:102CAC003B681A697B681A637B6801225A6100BF12
:102CBC001437BD4680BC7047002C01400004004016
:102CCC000008004080B487B000AF786039607B6842
:102CDC001B6A23F001027B681A627B681B6A7B61AA
:102CEC007B685B683B617B689B69FB60FB6823F0DE
:102CFC007003FB60FB6823F00303FB603B681B68FD
:102D0C00FA681343FB607B6923F002037B613B6829
:102D1C009B687A6913437B617B681C4A93420CD194
:102D2C007B6923F008037B613B68DB687A6913439A
:102D3C007B617B6923F004037B617B68134A9342BC
:102D4C0011D13B6923F480733B613B6923F400731D
:102D5C003B613B685B693A6913433B613B689B6928
:102D6C003A6913433B617B683A695A607B68FA683D
:102D7C009A613B685A687B685A637B687A691A6205
:102D8C0000BF1C37BD4680BC704700BF002C014003
:102D9C0080B487B000AF786039607B681B6A23F021
:102DAC0010027B681A627B681B6A7B617B685B68BC
:102DBC003B617B689B69FB60FB6823F4E043FB6031
:102DCC00FB6823F44073FB603B681B681B02FA68CA
:102DDC001343FB607B6923F020037B613B689B689A
:102DEC001B017A6913437B617B681D4A93420DD1A9
:102DFC007B6923F080037B613B68DB681B017A698C
:102E0C0013437B617B6923F040037B617B68144A2D
:102E1C00934213D13B6923F480633B613B6923F4F8
:102E2C0000633B613B685B699B003A6913433B6100
:102E3C003B689B699B003A6913433B617B683A6929
:102E4C005A607B68FA689A613B685A687B689A6337
:102E5C007B687A691A6200BF1C37BD4680BC70471C
:102E6C00002C014080B487B000AF786039607B687B
:102E7C001B6A23F480727B681A627B681B6A7B6115
:102E8C007B685B683B617B68DB69FB60FB6823F0FC
:102E9C007003FB60FB6823F00303FB603B681B685B
:102EAC00FA681343FB607B6923F400737B613B6816
:102EBC009B681B027A6913437B617B681D4A9342B2
:102ECC000DD17B6923F400637B613B68DB681B02DB
:102EDC007A6913437B617B6923F480637B617B6834
:102EEC00144A934213D13B6923F480533B613B69F1
:102EFC0023F400533B613B685B691B013A69134344
:102F0C003B613B689B691B013A6913433B617B68DE
:102F1C003A695A607B68FA68DA613B685A687B6880
:102F2C00DA637B687A691A6200BF1C37BD4680BCC5
:102F3C00704700BF002C014080B487B000AF7860B0
:102F4C0039607B681B6A23F480527B681A627B6849
:102F5C001B6A3B617B685B687B617B68DB69FB6040
:102F6C00FB6823F4E043FB60FB6823F44073FB60D5
:102F7C003B681B681B02FA681343FB603B6923F434
:102F8C0000533B613B689B681B033A6913433B61ED
:102F9C007B680F4A934209D17B6923F480437B61A0
:102FAC003B685B699B017A6913437B617B687A6937
:102FBC005A607B68FA68DA613B685A687B681A6405
:102FCC007B683A691A6200BF1C37BD4680BC7047EB
:102FDC00002C014080B487B000AFF860B9607A6013
:102FEC00FB681B6A7B61FB681B6A23F00102FB68B0
:102FFC001A62FB689B693B613B6923F0F0033B6100
:10300C007B681B013A6913433B617B6923F00A031C
:10301C007B617A69BB6813437B61FB683A699A618F
:10302C00FB687A691A6200BF1C37BD4680BC7047CA
:10303C0080B487B000AFF860B9607A60FB681B6A37
:10304C0023F01002FB681A62FB689B697B61FB68CA
:10305C001B6A3B617B6923F470437B617B681B03B8
:10306C007A6913437B613B6923F0A0033B61BB6826
:10307C001B013A6913433B61FB687A699A61FB68EF
:10308C003A691A6200BF1C37BD4680BC704780B4D9
:10309C0085B000AF786039607B689B68FB60FB682B
:1030AC0023F07003FB603A68FB68134343F007039B
:1030BC00FB607B68FA689A6000BF1437BD4680BC21
:1030CC00704780B487B000AFF860B9607A603B603D
:1030DC00FB689B687B617B6923F47F437B613B6866
:1030EC001A027B681A43BB6813437A6913437B61EA
:1030FC00FB687A699A6000BF1C37BD4680BC70477C
:10310C0080B487B000AFF860B9607A60BB6803F038
:10311C001F03012202FA03F37B61FB681A6A7B69C5
:10312C00DB431A40FB681A62FB681A6ABB6803F03F
:10313C001F03796801FA03F31A43FB681A6200BF94
:10314C001C37BD4680BC704780B485B000AF78603A
:10315C0039607B6893F83C30012B01D1022346E0A7
:10316C007B68012283F83C207B68022283F83D2097
:10317C007B681B685B68FB607B681B689B68BB603B
:10318C00FB6823F07003FB603B681B68FA68134311
:10319C00FB607B681B68FA685A607B681B68164A80
:1031AC0093420ED07B681B68B3F1804F09D07B68CB
:1031BC001B68124A934204D07B681B68104A9342E6
:1031CC000CD1BB6823F08003BB603B685B68BA68BA
:1031DC001343BB607B681B68BA689A607B680122EA
:1031EC0083F83D207B68002283F83C20002318469E
:1031FC001437BD4680BC7047002C014000040040D1
:10320C000008004080B483B000AF786000BF0C377A
:10321C00BD4680BC704780B483B000AF786000BFFF
:10322C000C37BD4680BC704780B582B000AF78606B
:10323C007B68002B01D101233FE07B6893F83D3084
:10324C00DBB2002B06D17B68002283F83C20786827
:10325C00FDF748FC7B68242283F83D207B681B68C3
:10326C00DA687B681B6822F40052DA60786800F038
:10327C0049FB7B681B681A697B681B6822F49042C7
:10328C001A617B681B685A697B681B6822F02A02EA
:10329C005A617B681B68DA687B681B6842F40052D1
:1032AC00DA607B6800221A647B68202283F83D2058
:1032BC007B68202283F83E20002318460837BD4641
:1032CC0080BD000080B58AB000AF78607B681B6859
:1032DC001B687B627B681B68DB683B627B681B68D6
:1032EC005B69FB610023BB6100237B617B6A03F09C
:1032FC000F03BB61BB69002B0DD17B6A03F020036C
:10330C00002B08D03B6A03F02003002B03D0786815
:10331C0000F04FFA7BE1BB69002B00F0B180FB6938
:10332C0003F00103002B05D13B6A03F49073002BCF
:10333C0000F0A6807B6A03F00103002B0AD03B6AE5
:10334C0003F48073002B05D07B681B6C43F00102E7
:10335C007B681A647B6A03F00403002B0AD0FB69B8
:10336C0003F00103002B05D07B681B6C43F00202B9
:10337C007B681A647B6A03F00203002B0AD0FB699A
:10338C0003F00103002B05D07B681B6C43F0040297
:10339C007B681A647B6A03F00803002B0FD03B6A2E
:1033AC0003F02003002B04D1FB6903F00103002B75
:1033BC0005D07B681B6C43F008027B681A647B6841
:1033CC001B6C002B00F01E817B6A03F02003002B8A
:1033DC0007D03B6A03F02003002B02D0786800F082
:1033EC00E8F97B681B685B6903F04003002B14BF92
:1033FC0001230023DBB27B617B681B6C03F00803A9
:10340C00002B02D17B69002B31D0786800F02AF9AF
:10341C007B681B685B6903F04003002B23D07B683F
:10342C001B685A697B681B6822F040025A617B68F2
:10343C009B6B002B13D07B689B6B764A5A637B6823
:10344C009B6B1846FEF736F90346002B16D07B68AB
:10345C009B6B5B6B7A68926B104698470EE07868B2
:10346C0000F0ECF80AE0786800F0E8F806E078681C
:10347C0000F0E4F87B6800221A64C3E000BFC1E0EE
:10348C007B681B6B012B40F0A1807B6A03F010035F
:10349C00002B00F09B803B6A03F01003002B00F024
:1034AC0095800023FB607B681B681B68FB607B6856
:1034BC001B685B68FB60FB687B681B685B6903F0DF
:1034CC004003002B4ED07B689B6B1B685B683B8278
:1034DC003B8A002B00F098807B689B8D3A8A9A423D
:1034EC0080F092807B683A8ADA857B689B6B9B695B
:1034FC00202B2BD07B681B68DA687B681B6822F456
:10350C008072DA607B681B685A697B681B6822F0E2
:10351C0001025A617B681B685A697B681B6822F040
:10352C0040025A617B68202283F83E207B6800228F
:10353C001A637B681B68DA687B681B6822F01002D0
:10354C00DA607B689B6B1846FEF779F87B689A8D7E
:10355C007B68DB8D9BB2D31A9BB21946786800F05E
:10356C0076F851E07B689A8D7B68DB8D9BB2D31A21
:10357C007B827B68DB8D9BB2002B47D07B8A002B38
:10358C0044D07B681B68DA687B681B6822F49072F5
:10359C00DA607B681B685A697B681B6822F0010241
:1035AC005A617B68202283F83E207B6800221A63D4
:1035BC007B681B68DA687B681B6822F01002DA6093
:1035CC007B8A1946786800F042F81FE07B6A03F0AA
:1035DC008003002B08D03B6A03F08003002B03D040
:1035EC00786800F07FF812E07B6A03F04003002B50
:1035FC000DD03B6A03F04003002B08D0786800F034
:10360C00C0F804E000BF02E000BF00E000BF2837B4
:10361C00BD4680BDC936000880B483B000AF786069
:10362C0000BF0C37BD4680BC704780B483B000AF80
:10363C00786000BF0C37BD4680BC704780B483B047
:10364C0000AF786000BF0C37BD4680BC704780B4BB
:10365C0083B000AF78600B467B8000BF0C37BD4653
:10366C0080BC704780B483B000AF78607B681B6807
:10367C00DA687B681B6822F49072DA607B681B68DE
:10368C005A697B681B6822F001025A617B681B6BCC
:10369C00012B07D17B681B68DA687B681B6822F0FA
:1036AC001002DA607B68202283F83E207B680022BF
:1036BC001A6300BF0C37BD4680BC704780B584B020
:1036CC0000AF78607B685B6AFB60FB680022DA8580
:1036DC00FB680022DA84F868FFF7B0FF00BF1037F0
:1036EC00BD4680BD80B485B000AF78607B6893F830
:1036FC003D30DBB2212B3ED17B689B68B3F5805FFC
:10370C0014D17B681B69002B10D17B681B6AFB6092
:10371C00FB681B881A467B681B68C2F308025A6058
:10372C007B681B6A9A1C7B681A6208E07B681B6AC0
:10373C00591C7A6811621A787B681B685A607B681E
:10374C00DB8C9BB2013B9BB27A681946D184002B6F
:10375C000FD17B681B68DA687B681B6822F08002DB
:10376C00DA607B681B68DA687B681B6842F0400291
:10377C00DA60002300E0022318461437BD4680BCF3
:10378C00704780B582B000AF78607B681B68DA68E0
:10379C007B681B6822F04002DA607B68202283F889
:1037AC003D207868FFF738FF002318460837BD46E0
:1037BC0080BD80B586B000AF78607B6893F83E30F2
:1037CC00DBB2222B40F099807B689B68B3F5805F5D
:1037DC0017D17B681B69002B13D100237B617B689D
:1037EC009B6A3B617B681B685B689BB2C3F30803F5
:1037FC009AB23B691A807B689B6A9A1C7B689A62B6
:10380C0026E07B689B6A7B6100233B617B689B683D
:10381C00B3F5805F07D07B689B68002B0AD17B686F
:10382C001B69002B06D17B681B685B68DAB27B696D
:10383C001A7008E07B681B685B68DBB203F07F03DF
:10384C00DAB27B691A707B689B6A5A1C7B689A6235
:10385C007B68DB8D9BB2013B9BB27A681946D185A4
:10386C00002B48D17B681B68DA687B681B6822F0E8
:10387C002002DA607B681B68DA687B681B6822F4BC
:10388C008072DA607B681B685A697B681B6822F05F
:10389C0001025A617B68202283F83E207B681B6BF7
:1038AC00012B23D17B6800221A637B681B68DA68C2
:1038BC007B681B6822F01002DA607B681B681B684F
:1038CC0003F01003102B0AD10023FB607B681B68EC
:1038DC001B68FB607B681B685B68FB60FB687B6834
:1038EC009B8D19467868FFF7B2FE02E07868FFF707
:1038FC009CFE002302E0002300E002231846183748
:10390C00BD4680BD80B584B000AF78607B681B6815
:10391C001B6923F440517B68DA687B681B680A4397
:10392C001A617B689A687B681B691A437B685B69C0
:10393C001343BB607B681B68DB6823F4B05323F034
:10394C000C037A681268B9680B43D3607B681B68F8
:10395C005B6923F440717B689A697B681B680A4336
:10396C005A617B681B682C4A934203D1FEF7CCFC4E
:10397C00F86002E0FEF7B4FCF860FA6813469B00AE
:10398C0013449A001A447B685B689B00B2FBF3F308
:10399C00224AA2FB03235B091901FA6813469B0018
:1039AC0013449A001A447B685B689B00B2FBF3F2E9
:1039BC001A4BA3FB02035B09642000FB03F3D31A2D
:1039CC001B013233154AA2FB03235B0903F0F003FE
:1039DC001944FA6813469B0013449A001A447B68F6
:1039EC005B689B00B2FBF3F20C4BA3FB02035B097D
:1039FC00642000FB03F3D31A1B013233074AA2FBEA
:103A0C0003235B0903F00F027B681B680A449A606E
:103A1C0000BF1037BD4680BD003801401F85EB51FB
:103A2C0070B500260C4D0D4C641BA410A64209D198
:103A3C0000F022F800260A4D0A4C641BA410A64282
:103A4C0005D170BD55F8043B98470136EEE755F8A3
:103A5C00043B98470136F2E7C43A0008C43A000820
:103A6C00C43A0008C83A000803460244934200D105
:103A7C00704703F8011BF9E7F8B500BFF8BC08BCA8
:103A8C009E467047F8B500BFF8BC08BC9E46704710
:103A9C0002030405060708090A0B0C0D0E0F101083
:103AAC0000000000000000000102030406070809E2
:083ABC000000000001020304F8
:043AC40031010008C4
:043AC8000D010008E4
:103ACC0088130000D0070000B80B0000881300001A
:103ADC00D0070000B80B0000010101010101010138
:103AEC00010101010024F4000A0000001000000094
:043AFC0001000000C5
:0400000508001321BB
:00000001FF
