:020000040800F2
:1000000000500020651F00089D160008A316000878
:10001000A9160008AF160008B51600080000000079
:10002000000000000000000000000000BB160008F7
:10003000C716000800000000D3160008DF160008ED
:10004000AD1F0008AD1F0008AD1F0008AD1F000860
:10005000AD1F0008AD1F0008AD1F0008AD1F000850
:10006000AD1F0008AD1F0008AD1F0008AD1F000840
:10007000AD1F0008AD1F0008AD1F0008AD1F000830
:10008000AD1F0008AD1F0008AD1F0008AD1F000820
:10009000AD1F0008AD1F0008AD1F0008AD1F000810
:1000A000AD1F0008AD1F0008AD1F0008AD1F000800
:1000B000ED16000801170008AD1F0008AD1F00086D
:1000C000AD1F0008AD1F0008AD1F0008AD1F0008E0
:1000D000AD1F0008AD1F000815170008AD1F000870
:1000E000AD1F0008AD1F0008AD1F00080000000094
:1000F0000000000000000000000000000000000000
:0C01000000000000000000005FF808F1A3
:1001100010B5054C237833B9044B13B10448AFF341
:1001200000800123237010BD340000200000000077
:10013000C846000808B5034B1BB103490348AFF399
:10014000008008BD0000000038000020C8460008FC
:1001500081F0004102E000BF83F0004330B54FEA78
:1001600041044FEA430594EA050F08BF90EA020FE5
:100170001FBF54EA000C55EA020C7FEA645C7FEA78
:10018000655C00F0E2804FEA5454D4EB5555B8BF9B
:100190006D420CDD2C4480EA020281EA030382EA0C
:1001A000000083EA010180EA020281EA0303362D9E
:1001B00088BF30BD11F0004F4FEA01314FF4801C71
:1001C0004CEA113102D0404261EB410113F0004F83
:1001D0004FEA03334CEA133302D0524263EB43033A
:1001E00094EA050F00F0A780A4F10104D5F1200ED8
:1001F0000DDB02FA0EFC22FA05F2801841F1000133
:1002000003FA0EF2801843FA05F359410EE0A5F106
:1002100020050EF1200E012A03FA0EFC28BF4CF037
:10022000020C43FA05F3C01851EBE37101F00045ED
:1002300007D54FF0000EDCF1000C7EEB00006EEBFA
:100240000101B1F5801F1BD3B1F5001F0CD3490884
:100250005FEA30004FEA3C0C04F101044FEA4452DB
:1002600012F5800F80F09A80BCF1004F08BF5FEA62
:10027000500C50F1000041EB045141EA050130BD42
:100280005FEA4C0C404141EB0101013C28BFB1F554
:10029000801FE9D291F0000F04BF01460020B1FA9F
:1002A00081F308BF2033A3F10B03B3F120020CDA72
:1002B0000C3208DD02F1140CC2F10C0201FA0CF050
:1002C00021FA02F10CE002F11402D8BFC2F1200CB5
:1002D00001FA02F120FA0CFCDCBF41EA0C0190406B
:1002E000E41AA2BF01EB0451294330BD6FEA0404B4
:1002F0001F3C1CDA0C340EDC04F11404C4F120029F
:1003000020FA04F001FA02F340EA030021FA04F3B0
:1003100045EA030130BDC4F10C04C4F1200220FA07
:1003200002F001FA04F340EA0300294630BD21FA45
:1003300004F0294630BD94F0000F83F4801306BF0B
:1003400081F480110134013D4EE77FEA645C18BFFF
:100350007FEA655C29D094EA050F08BF90EA020F96
:1003600005D054EA000C04BF1946104630BD91EA8E
:10037000030F1EBF0021002030BD5FEA545C05D191
:100380004000494128BF41F0004130BD14F58004D0
:100390003CBF01F5801130BD01F0004545F0FE4144
:1003A00041F470014FF0000030BD7FEA645C1ABF79
:1003B000194610467FEA655C1CBF0B46024650EAB0
:1003C000013406BF52EA033591EA030F41F40021DC
:1003D00030BD00BF90F0000F04BF0021704730B562
:1003E0004FF4806404F132044FF000054FF0000137
:1003F00050E700BF90F0000F04BF0021704730B5F8
:100400004FF4806404F1320410F0004548BF4042CC
:100410004FF000013EE700BF42004FEAE2014FEA21
:1004200031014FEA02701FBF12F07F4393F07F4FFC
:1004300081F06051704732F07F4208BF704793F0FF
:100440007F4F04BF41F40021704730B54FF4607412
:1004500001F0004521F000411CE700BF50EA010215
:1004600008BF704730B54FF000050AE050EA0102BE
:1004700008BF704730B511F0004502D5404261EB2E
:1004800041014FF4806404F132045FEA915C3FF46F
:10049000D8AE4FF003025FEADC0C18BF03325FEA0C
:1004A000DC0C18BF033202EBDC02C2F1200300FABD
:1004B00003FC20FA02F001FA03FE40EA0E0021FAE2
:1004C00002F11444BDE600BF70B54FF0FF0C4CF4D0
:1004D000E06C1CEA11541DBF1CEA135594EA0C0F82
:1004E00095EA0C0F00F0DEF82C4481EA030621EABD
:1004F0004C5123EA4C5350EA013518BF52EA0335F8
:1005000041F4801143F4801338D0A0FB02CE4FF0A9
:100510000005E1FB02E506F00042E0FB03E54FF0D9
:100520000006E1FB03569CF0000F18BF4EF0010ED1
:10053000A4F1FF04B6F5007F64F5407404D25FEACD
:100540004E0E6D4146EB060642EAC62141EA555180
:100550004FEAC52040EA5E504FEACE2EB4F1FD0CC2
:1005600088BFBCF5E06F1ED8BEF1004F08BF5FEA40
:10057000500E50F1000041EB045170BD06F00046F2
:1005800046EA010140EA020081EA0301B4EB5C049F
:10059000C2BFD4EB0C0541EA045170BD41F4801197
:1005A0004FF0000E013C00F3AB8014F1360FDEBFBC
:1005B000002001F0004170BDC4F10004203C35DA98
:1005C0000C341BDC04F11404C4F1200500FA05F31B
:1005D00020FA04F001FA05F240EA020001F00042BC
:1005E00021F0004110EBD37021FA04F642EB060132
:1005F0005EEA430E08BF20EAD37070BDC4F10C045C
:10060000C4F1200500FA04F320FA05F001FA04F21F
:1006100040EA020001F0004110EBD37041F100010B
:100620005EEA430E08BF20EAD37070BDC4F1200516
:1006300000FA05F24EEA020E20FA04F301FA05F27E
:1006400043EA020321FA04F001F0004121FA04F226
:1006500020EA020000EBD3705EEA430E08BF20EAF6
:10066000D37070BD94F0000F0FD101F00046400030
:1006700041EB010111F4801F08BF013CF7D041EAB2
:10068000060195F0000F18BF704703F000465200B6
:1006900043EB030313F4801F08BF013DF7D043EA87
:1006A0000603704794EA0C0F0CEA135518BF95EA3D
:1006B0000C0F0CD050EA410618BF52EA4306D1D1C4
:1006C00081EA030101F000414FF0000070BD50EAE3
:1006D000410606BF1046194652EA430619D094EA6D
:1006E0000C0F02D150EA013613D195EA0C0F05D157
:1006F00052EA03361CBF104619460AD181EA0301AB
:1007000001F0004141F0FE4141F470014FF0000062
:1007100070BD41F0FE4141F4780170BD70B54FF0FD
:10072000FF0C4CF4E06C1CEA11541DBF1CEA13557D
:1007300094EA0C0F95EA0C0F00F0A7F8A4EB05045F
:1007400081EA030E52EA03354FEA013100F0888056
:100750004FEA03334FF0805545EA131343EA12631F
:100760004FEA022245EA111545EA10654FEA0026D4
:100770000EF000419D4208BF964244F1FD0404F58D
:10078000407402D25B084FEA3202B61A65EB0305E9
:100790005B084FEA32024FF480104FF4002CB6EBA6
:1007A000020E75EB030E22BFB61A754640EA0C0026
:1007B0005B084FEA3202B6EB020E75EB030E22BF66
:1007C000B61A754640EA5C005B084FEA3202B6EBA7
:1007D000020E75EB030E22BFB61A754640EA9C0066
:1007E0005B084FEA3202B6EB020E75EB030E22BF36
:1007F000B61A754640EADC0055EA060E18D04FEAF4
:10080000051545EA16754FEA06164FEAC30343EA93
:1008100052734FEAC2025FEA1C1CC0D111F4801F60
:100820000BD141EA00014FF000004FF0004CB6E759
:1008300011F4801F04BF01430020B4F1FD0C88BFF8
:10084000BCF5E06F3FF6AFAEB5EB030C04BFB6EB03
:10085000020C5FEA500C50F1000041EB045170BDF6
:100860000EF0004E4EEA113114EB5C04C2BFD4EB23
:100870000C0541EA045170BD41F480114FF0000EA7
:10088000013C90E645EA060E8DE60CEA135594EA23
:100890000C0F08BF95EA0C0F3FF43BAF94EA0C0F26
:1008A0000AD150EA01347FF434AF95EA0C0F7FF49B
:1008B00025AF104619462CE795EA0C0F06D152EAEF
:1008C00003353FF4FDAE1046194622E750EA4106D3
:1008D00018BF52EA43067FF4C5AE50EA41047FF4E4
:1008E0000DAF52EA43057FF4EBAE12E74FF0FF3C49
:1008F00006E000BF4FF0010C02E000BF4FF0010C1A
:100900004DF804CD4FEA410C7FEA6C5C4FEA430C92
:1009100018BF7FEA6C5C1BD001B050EA410C0CBFE1
:1009200052EA430C91EA030F02BF90EA020F002043
:10093000704710F1000F91EA030F58BF994208BFAA
:1009400090422CBFD8176FEAE37040F00100704767
:100950004FEA410C7FEA6C5C02D150EA013C07D1BE
:100960004FEA430C7FEA6C5CD6D152EA033CD3D009
:100970005DF8040B704700BF8446104662468C4603
:100980001946634600E000BF01B5FFF7B7FF002836
:1009900048BF10F1000F01BD4DF808EDFFF7F4FF5F
:1009A0000CBF012000205DF808FB00BF4DF808EDEA
:1009B000FFF7EAFF34BF012000205DF808FB00BF0D
:1009C0004DF808EDFFF7E0FF94BF012000205DF82F
:1009D00008FB00BF4DF808EDFFF7CEFF94BF0120E4
:1009E00000205DF808FB00BF4DF808EDFFF7C4FFDD
:1009F00034BF012000205DF808FB00BF4FEA410230
:100A000012F5001215D211D56FF47873B3EB625260
:100A100012D94FEAC12343F0004343EA505311F087
:100A2000004F23FA02F018BF404270474FF0000019
:100A3000704750EA013005D111F0004008BF6FF057
:100A4000004070474FF00000704700BF80B582B093
:100A500000AF00237B6069E0384A7B6813441B7851
:100A6000022B3AD0022B57DC002B02D0012B19D0DD
:100A700052E0786800F044FA0346002B4ED02F4A2B
:100A80007B68134401221A70786800F05FF87B6875
:100A9000012B43D12A4B1B68012B3FDD0A2000F0BC
:100AA00097FE3BE0786800F02BFA0346002B05D157
:100AB000224A7B68134400221A7031E0786800F003
:100AC00039FA0346002B2BD01C4A7B6813440222C0
:100AD0001A700A2000F096FE22E0786800F010FA02
:100AE0000346002B05D1154A7B68134400221A7077
:100AF00018E07B68022B15D1124B1B68012B11D11A
:100B0000114B1B68002B0DD1786800F01FF84FF4D3
:100B10007A7000F077FE05E000BF04E000BF02E05D
:100B200000BF00E000BF7B6801337B607B68032B64
:100B300092DD00BF00BF0837BD4680BD74000020B5
:100B400058000020B00000207000002080B582B066
:100B500000AF78607B68032B00F2068101A252F897
:100B600023F000BF530D0008750B0008030C0008AC
:100B7000D10C00087F4B1B68591C7F4B83FB012362
:100B80005A10CB17D21A13469B001344CA1A794B3A
:100B90001A607A4B1B687A4A13607A4B1B687A4A50
:100BA00013607A4B1B687A4A13607A4B00221A60F2
:100BB000704B1B68002B08D101F07CF9764B0022AA
:100BC0001A60764B00221A60CFE0734B0C221A6039
:100BD000724B0C221A6000224FF48061704801F0C1
:100BE000A2FD002208216F4801F09DFD0022202176
:100BF0006C4801F098FD002210216A4801F093FD35
:100C0000B3E05C4B1B68013B032B5FD801A252F899
:100C100023F000BF250C0008670C0008890C0008B1
:100C2000AB0C00085B4B01221A6042F2107000F01E
:100C30001DFE594B1B68032B0AD0032B0FDC012B25
:100C400002D0022B08D00AE0534B02221A6007E0C0
:100C5000514B01221A6003E04F4B01221A6000BF82
:100C600000F0D8FE33E0464B1B6803F57A724E4B1A
:100C700083FB02131913D317CB1A4C4901FB03F35F
:100C8000D31A3F4A136022E03F4B1B6803F57A7288
:100C9000454B83FB02131913D317CB1A434901FBAE
:100CA00003F3D31A384A136011E0394B1B6803F57C
:100CB0007A723D4B83FB02131913D317CB1A3B49AE
:100CC00001FB03F3D31A324A136000E000BF4CE08B
:100CD000284B1B68013B032B39D801A252F823F0A3
:100CE000F10C0008330D00083D0D0008470D000809
:100CF000284B01221A6042F2107000F0B7FD274B1A
:100D00001B68032B0AD0032B0FDC012B02D0022B14
:100D100008D00AE0214B02221A6007E01F4B012293
:100D20001A6003E01D4B01221A6000BF00F0AAFE0A
:100D30000EE0134B1B68114A136009E0124B1B684D
:100D4000104A136004E0124B1B68104A136000BF86
:100D50000BE0174B01221A60164B01221A6044F671
:100D6000206000F069FD00E000BF00BF0837BD460D
:100D700080BD00BF58000020676666660C0000203A
:100D800000000020100000200400002014000020BB
:100D900008000020700000205000002054000020B7
:100DA00000080140000C01402178970AB882010038
:100DB0006C0000206400002080B582B000AF0023EA
:100DC0007B6085E0474A7B6813441978464A7B6814
:100DD00013440A461A707B68032B3BD801A252F8D1
:100DE00023F000BFF50D00080D0E0008250E0008C9
:100DF0003D0E000801213D4801F07EFC03461946E6
:100E0000384A7B6813440A461A7024E002213748A6
:100E100001F072FC03461946324A7B6813440A46C5
:100E20001A7018E01021324801F066FC034619469A
:100E30002C4A7B6813440A461A700CE001212B48A7
:100E400001F05AFC03461946264A7B6813440A46B9
:100E50001A7000E000BF234A7B6813441A782249C5
:100E60007B680B441B789A4208D11E4A7B68134466
:100E70001978204A7B6813440A461A701D4A7B6819
:100E800013441B78002B16D11B4A7B6832F81330B1
:100E9000632B0AD8184A7B6832F81330013399B2B1
:100EA000154A7B6822F813100FE0144A7B6813443C
:100EB00001221A7009E0104A7B68002122F8131001
:100EC0000E4A7B68134400221A707B6801337B60F2
:100ED0007B68032B7FF776AF00BF00BF0837BD46A6
:100EE00080BD00BF1C000020200000200008014041
:100EF000000C0140180000207C0000207800002039
:100F000080B483B000AF78607B68032B01DD0023E1
:100F100008E0074A7B6813441B78002B0CBF0123B1
:100F20000023DBB218460C37BD4680BC704700BFBB
:100F30001800002080B483B000AF78607B68032B7A
:100F400001DDFF2308E0074A7B6813441B78012B6F
:100F50000CBF01230023DBB218460C37BD4680BC12
:100F6000704700BF78000020B0B584B000AF01F03A
:100F70001FF800F0EFF800F01BFA00F02DF900F078
:100F800077F900F0EBF96A4802F068F80021694847
:100F900002F00EF90023FB60674B1B68002B0ED09C
:100FA000664B1B68002B0AD000F084FF0A2000F07B
:100FB000C1FB0A2000F0D8FB5F4B00221A6000F052
:100FC000F9FD00F09FFEFFF741FD00F02FFF00F05C
:100FD0008BFD5B4B1B68022B0ED15A4B1B68B3F188
:100FE000FF3F05D0574B1A68574B1B689A4207DBE7
:100FF000544B00221A6003E0524B4FF0FF321A604C
:10100000524B1B68012BC7D14E4B1B68002B61DB79
:101010004C4B1B681846FFF7EDF904460D464A4B4A
:101020001B681846FFF7E6F93FA3D3E90023FFF753
:101030004BFA02460B4620462946FFF7B7FC03460B
:10104000002B47D03F4B1B68322202FB03F31846AC
:10105000FFF7D0F904460D463B4B1B681846FFF7D7
:10106000C9F931A3D3E90023FFF72EFA02460B4654
:1010700020462946FFF752FB02460B46104619460A
:10108000FFF7BCFC0346BB602E4B1B684FF4EB72B2
:1010900002FB03F31846FFF7ADF904460D462A4B51
:1010A0001B681846FFF7A6F91FA3D3E90023FFF733
:1010B0000BFA02460B4620462946FFF72FFB024655
:1010C0000B4610461946FFF799FC0346C3F5FA7321
:1010D0007B6003E03223BB601E237B601C4B1B68DC
:1010E000002B10D0FB68002B06D10123FB60114BB5
:1010F0001B6800225A630AE00E4B1B68BA685A63E9
:101100000023FB6003E00B4B1B6800225A637868E6
:1011100000F044FB0B4B1A687B681344094A1360C8
:101120003AE700BFAFF300809A9999999999E93FFE
:1011300014010020CC00002070000020C00000201E
:10114000500000206800002000000020A0000020C7
:101150006400002080B590B000AF07F1180328228A
:101160000021184603F0A8FA3B1D00221A605A60BD
:101170009A60DA601A610223BB610123BB6210230B
:10118000FB6202237B630023BB634FF46013FB63AA
:1011900007F11803184601F0F7FA0346002B01D0B7
:1011A00000F080F90F237B600223BB600023FB600B
:1011B0004FF480633B6100237B613B1D0221184695
:1011C00001F062FD0346002B01D000F06BF900BF77
:1011D0004037BD4680BD000080B586B000AF07F146
:1011E000080300221A605A609A60DA603B460022C7
:1011F0001A605A601D4B4FF080421A601B4B3F2211
:101200005A601A4B00229A60184B42F20F72DA6051
:10121000164B00221A61154B00229A61134801F007
:10122000CDFE0346002B01D000F03CF94FF4805373
:10123000BB6007F1080319460C4802F021FA034687
:10124000002B01D000F02EF900233B6000237B60CF
:101250003B461946054802F09FFD0346002B01D08E
:1012600000F020F900BF1837BD4680BD14010020F2
:1012700080B58EB000AF07F1280300221A605A60D3
:101280009A60DA6007F1200300221A605A603B1D61
:1012900000221A605A609A60DA601A615A619A6193
:1012A0002C4B2D4A1A602B4B3F225A60294B0022AF
:1012B0009A60284B40F2E732DA60264B00221A612E
:1012C000244B00229A61234801F078FE0346002B4C
:1012D00001D000F0E7F84FF48053BB6207F1280318
:1012E00019461C4802F0CCF90346002B01D000F04F
:1012F000D9F8184801F004FF0346002B01D000F094
:10130000D1F800233B6200237B6207F120031946DA
:10131000104802F041FD0346002B01D000F0C2F856
:1013200060237B600023BB600023FB6000237B61A4
:101330003B1D00221946074802F0E4F80346002B43
:1013400001D000F0AFF8034800F024F900BF3837AF
:10135000BD4680BDCC0000200004004080B500AF39
:10136000114B124A1A60104B4FF4C8525A600E4B80
:1013700000229A600C4B0022DA600B4B00221A61AB
:10138000094B0C225A61084B00229A61064B00223D
:10139000DA61054802F070FD0346002B01D000F031
:1013A00081F800BF80BD00BF5C0100200044004008
:1013B00080B586B000AF07F1080300221A605A60BA
:1013C0009A60DA602E4B9B692D4A43F004039361C7
:1013D0002B4B9B6903F004037B607B68284B9B6964
:1013E000274A43F008039361254B9B6903F00803E8
:1013F0003B603B6800224FF48761224801F093F97B
:1014000000224FF4A061204801F08DF91323BB6046
:101410000023FB6001233B6107F1080319461A48CA
:1014200000F0E6FF0123BB600023FB6001233B616A
:1014300007F108031946134800F0DAFF4FF48763F9
:10144000BB600123FB6001233B6102237B6107F149
:10145000080319460B4800F0CBFF4FF4A063BB60B4
:101460000123FB6001233B6102237B6107F1080339
:101470001946054800F0BCFF00BF1837BD4680BDC7
:1014800000100240000C01400008014080B582B00D
:1014900000AF786000F004FAFFF78EFC00BF083759
:1014A000BD4680BD80B400AF72B600BFFEE700004D
:1014B00080B485B000AF154B9B69144A43F001031B
:1014C0009361124B9B6903F00103BB60BB680F4B38
:1014D000DB690E4A43F08053D3610C4BDB6903F0A8
:1014E00080537B607B680A4B5B68FB60FB6823F082
:1014F000E063FB60FB6843F00073FB60044AFB6839
:10150000536000BF1437BD4680BC704700100240D6
:101510000000014080B584B000AF78607B681B6834
:10152000B3F1804F14D1194BDB69184A43F0010322
:10153000D361164BDB6903F00103FB60FB680022FB
:1015400000211C2000F06DFE1C2000F086FE18E03B
:101550007B681B680E4A934213D10C4BDB690B4A24
:1015600043F00203D361094BDB6903F00203BB6064
:10157000BB68002200211D2000F053FE1D2000F05A
:101580006CFE00BF1037BD4680BD00BF001002409A
:101590000004004080B588B000AF786007F1100308
:1015A00000221A605A609A60DA607B681B680F4AF2
:1015B000934217D10E4B9B690D4A43F0040393618C
:1015C0000B4B9B6903F00403FB60FB6840233B610A
:1015D00002237B610223FB6107F1100319460548D2
:1015E00000F006FF00BF2037BD4680BD000400406C
:1015F000001002400008014080B588B000AF78605C
:1016000007F1100300221A605A609A60DA607B6862
:101610001B681F4A934237D11E4BDB691D4A43F4B6
:101620000033D3611B4BDB6903F40033FB60FB68C1
:10163000184B9B69174A43F004039361154B9B6950
:1016400003F00403BB60BB6804233B6102237B619E
:101650000323FB6107F1100319460F4800F0C8FE91
:1016600008233B6100237B610023BB6107F110036A
:101670001946094800F0BCFE00220021262000F097
:10168000D0FD262000F0E9FD00BF2037BD4680BD1B
:1016900000440040001002400008014080B400AF48
:1016A000FEE780B400AFFEE780B400AFFEE780B491
:1016B00000AFFEE780B400AFFEE780B400AF00BF2C
:1016C000BD4680BC704780B400AF00BFBD4680BC43
:1016D000704780B400AF00BFBD4680BC704780B586
:1016E00000AF00F0ABFC00BF80BD000080B500AFD4
:1016F000024801F0FFFD00BF80BD00BF14010020C3
:1017000080B500AF024801F0F5FD00BF80BD00BF0D
:10171000CC00002080B500AF024802F0FBFB00BF08
:1017200080BD00BF5C01002080B400AF00BFBD469B
:1017300080BC704780B483B000AF7860074B1B68F3
:101740007A6892FBF3F3064A1360064B00221A6094
:1017500000BF0C37BD4680BC704700BF280000208A
:101760008C0000209000002080B483B000AF78602F
:10177000074B1B687A6892FBF3F3064A1360064B2B
:1017800000221A6000BF0C37BD4680BC704700BF06
:1017900028000020940000209800002080B483B02E
:1017A00000AF7860074B1B687A6892FBF3F3064A38
:1017B0001360064B00221A6000BF0C37BD4680BC88
:1017C000704700BF280000209C000020A0000020DF
:1017D00080B483B000AF7860074B1B687A6892FBD7
:1017E000F3F3064A1360064B00221A6000BF0C3761
:1017F000BD4680BC704700BF28000020A400002028
:10180000A800002080B483B000AF7860074B1B684D
:101810007A6892FBF3F3064A1360064B00221A60C3
:1018200000BF0C37BD4680BC704700BF28000020B9
:10183000AC000020B000002080B483B000AF78601E
:10184000074B1B687A6892FBF3F3064A1360064B5A
:1018500000221A6000BF0C37BD4680BC704700BF35
:1018600028000020B4000020B800002080B483B01D
:1018700000AF7860074B1B687A6892FBF3F3064A67
:101880001360064B00221A6000BF0C37BD4680BCB7
:10189000704700BF28000020BC000020C0000020CE
:1018A00080B400AF494B1B68002B0BDD474B1B6816
:1018B000013B464A1360454B1B68002B02D1444B49
:1018C00001221A60434B1B68002B0BDD414B1B6848
:1018D000013B404A13603F4B1B68002B02D13E4B3B
:1018E00001221A603D4B1B68002B0BDD3B4B1B6834
:1018F000013B3A4A1360394B1B68002B02D1384B2D
:1019000001221A60374B1B68002B0BDD354B1B681F
:10191000013B344A1360334B1B68002B02D1324B1E
:1019200001221A60314B1B68002B0BDD2F4B1B680B
:10193000013B2E4A13602D4B1B68002B02D12C4B10
:1019400001221A602B4B1B68002B0BDD294B1B68F7
:10195000013B284A1360274B1B68002B02D1264B02
:1019600001221A60254B1B68002B0BDD234B1B68E3
:10197000013B224A1360214B1B68002B02D1204BF4
:1019800001221A601F4B1B68002B0BDD1D4B1B68CF
:10199000013B1C4A13601B4B1B68002B02D11A4BE6
:1019A00001221A60194B1B68002B0BDD174B1B68BB
:1019B000013B164A1360154B1B68002B02D1144BD8
:1019C00001221A6000BFBD4680BC70478400002021
:1019D000880000208C00002090000020940000204F
:1019E000980000209C000020A0000020A4000020FF
:1019F000A8000020AC000020B0000020B4000020AF
:101A0000B8000020BC000020C0000020C40000205E
:101A1000C800002080B500AF174B1B68022B0AD10D
:101A200000224FF48061154800F07DFE012208215C
:101A3000134800F078FE104B1B68032B0AD10122DB
:101A40004FF480610D4800F06EFE012208210C4821
:101A500000F069FE084B1B68012B0AD101224FF4EC
:101A60008061064800F05FFE00220821044800F073
:101A70005AFE00BF80BD00BF50000020000801409A
:101A8000000C014080B500AF154B1B68022B09D13B
:101A900000222021134800F046FE012210211148A7
:101AA00000F041FE0E4B1B68032B09D101222021BF
:101AB0000C4800F038FE012210210A4800F033FEE5
:101AC000074B1B68012B09D101222021054800F09A
:101AD0002AFE00221021034800F025FE00BF80BD31
:101AE00054000020000C014080B500AF2B4B1B6858
:101AF000002B03D02A4B1B68012B12D100224FF47C
:101B00008061284800F00FFE00224FF480712648C3
:101B100000F009FE214B00221A60244B00221A60BB
:101B20003AE0234B1B68032B15D0032B33DC012B2E
:101B300021D0022B2FD100224FF48061194800F0F0
:101B4000F2FD01224FF48071174800F0ECFD174BB5
:101B500001221A6020E001224FF48061114800F058
:101B6000E2FD00224FF480710F4800F0DCFD0F4BC6
:101B700000221A6010E001224FF48061094800F051
:101B8000D2FD00224FF48071074800F0CCFD074BD6
:101B900000221A6000E000BF80BD00BF6C00002082
:101BA000B8000020000C0140000801406400002043
:101BB0005000002080B500AF484B1B68002B40F060
:101BC0008280474B1B680C2B7FD801A252F823F070
:101BD000051C00081F1C0008571C00088F1C00086B
:101BE000CB1C0008CB1C0008CB1C0008CB1C000839
:101BF000CB1C0008CB1C0008CB1C0008CB1C000829
:101C0000CB1C0008364B01221A600A20FFF792FD18
:101C10000A20FFF7C3FD334B01221A605CE0324B10
:101C20001B68012B53D1314B01221A60FFF7F2FEE2
:101C30002B4B02221A602E4B1B682E4A82FB03128A
:101C40009211DB17D31A2C4A1360294B1B681846D4
:101C5000FFF770FD3BE0244B1B68012B39D1FFF7E8
:101C6000D9FE1F4B03221A60244B1B68214A82FBBA
:101C700003129211DB17D31A1F4A13601F4B1B6804
:101C80001846FFF757FD194B00221A6021E0164B4A
:101C90001B68012B1FD1FFF7BDFE114B01221A60FB
:101CA000174B1B68134A82FB03129211DB17D31ADE
:101CB000114A1360124B1B681846FFF73BFD0B4B94
:101CC00000221A6007E000BF06E000BF04E000BF8A
:101CD00002E000BF00E000BF80BD00BF7000002038
:101CE00050000020580000209000002064000020D8
:101CF00000000020D34D62105C000020080000208E
:101D00000400002080B500AF404B1B68002B73D14E
:101D10003F4B1B680C2B71D801A252F823F000BF77
:101D2000551D0008631D0008951D0008C71D00080B
:101D3000FD1D0008FD1D0008FD1D0008FD1D00081B
:101D4000FD1D0008FD1D0008FD1D0008FD1D00080B
:101D5000FD1D00082E4B02221A600A20FFF704FD29
:101D600053E02C4B1B68012B4AD1FFF78BFE284B0D
:101D700002221A60284B1B68284A82FB0312921128
:101D8000DB17D31A264A1360234B1B681846FFF74C
:101D9000EBFC35E01F4B1B68012B33D1FFF772FEC4
:101DA0001B4B03221A601F4B1B681C4A82FB031249
:101DB0009211DB17D31A1A4A13601A4B1B68184684
:101DC000FFF7D2FC1EE0134B1B68012B1CD1FFF761
:101DD00059FE0F4B01221A60134B1B680F4A82FBFE
:101DE00003129211DB17D31A0D4A13600E4B1B68B6
:101DF0001846FFF7B9FC07E000BF06E000BF04E0AB
:101E000000BF02E000BF00E000BF80BD7000002006
:101E1000540000209800002000000020D34D6210E4
:101E200060000020080000200400002080B500AF02
:101E30001C4B1B68012B33D11B4B1B68042B22D07E
:101E4000042B29DC022B02D0032B0AD024E04FF410
:101E50008061164800F07FFC2021154800F07BFCD3
:101E60001BE04FF48061114800F075FC2021104800
:101E700000F071FC08210E4800F06DFC10210C48A8
:101E800000F069FC09E00821094800F064FC102119
:101E9000074800F060FC00E000BFFA20FFF798FC64
:101EA00000BF80BDA80000205800002000080140AD
:101EB000000C014080B400AF244B1A68244B1B680F
:101EC0001A44244B1B689A4206DD204B1A68204BAB
:101ED0001B6813441F4A13601C4B1A681C4B1B6879
:101EE0001A441C4B1B689A420CDA1A4B1A68174B9F
:101EF0001968174B1B680B44D21A154B1B68134407
:101F0000134A1360144B1B68002B19D1134B1B6829
:101F1000032B0AD0032B15DC012B02D0022B0BD094
:101F200010E00F4B02221A600DE00C4B01221A60E8
:101F30000B4B02221A6006E0094B01221A6002E0F4
:101F400000BF00E000BFBD4680BC70470400002019
:101F50000800002000000020700000205000002039
:101F6000540000200C480D490D4A002302E0D458CB
:101F7000C4500433C4188C42F9D30A4A0A4C0023D3
:101F800001E013600432A242FBD3FFF7CDFB02F065
:101F90006FFBFEF7E9FF70470000002034000020CF
:101FA0001047000834000020A4010020FEE70000D4
:101FB00080B500AF084B1B68074A43F0100313605D
:101FC000032000F023F90F2000F008F8FFF770FA63
:101FD0000023184680BD00BF0020024080B582B0BB
:101FE00000AF7860124B1A68124B1B7819464FF4F9
:101FF0007A73B3FBF1F3B2FBF3F3184600F03BF94D
:102000000346002B01D001230EE07B680F2B0AD87A
:10201000002279684FF0FF3000F003F9064A7B6830
:102020001360002300E0012318460837BD4680BD39
:1020300024000020300000202C00002080B400AFDD
:10204000054B1B781A46054B1B681344034A136063
:1020500000BFBD4680BC704730000020A0010020BA
:1020600080B400AF024B1B681846BD4680BC704769
:10207000A001002080B485B000AF78607B6803F0D9
:102080000703FB600C4BDB68BB60BA684FF6FF03CD
:102090001340BB60FB681A02BB68134343F0BF6385
:1020A00043F40033BB60044ABB68D36000BF1437FD
:1020B000BD4680BC704700BF00ED00E080B400AFBB
:1020C000044BDB681B0A03F007031846BD4680BCBF
:1020D000704700BF00ED00E080B483B000AF03465E
:1020E000FB7197F90730002B0BDBFB7903F01F0224
:1020F000064997F907305B09012000FA02F241F81E
:10210000232000BF0C37BD4680BC704700E100E0D3
:1021100080B483B000AF03463960FB7197F9073094
:10212000002B0ADB3B68DAB20C4997F90730120141
:10213000D2B20B4483F800230AE03B68DAB20849C4
:10214000FB7903F00F03043B1201D2B20B441A7661
:1021500000BF0C37BD4680BC704700BF00E100E007
:1021600000ED00E080B489B000AFF860B9607A603B
:10217000FB6803F00703FB61FB69C3F10703042B52
:1021800028BF0423BB61FB690433062B02D9FB691A
:10219000033B00E000237B614FF0FF32BB6902FA92
:1021A00003F3DA43BB681A407B699A404FF0FF3172
:1021B0007B6901FA03F3D9437B680B40134318464C
:1021C0002437BD4680BC704780B582B000AF7860D0
:1021D0007B68013BB3F1807F01D301230FE00A4A02
:1021E0007B68013B53600F214FF0FF30FFF790FFFA
:1021F000054B00229A60044B07221A600023184600
:102200000837BD4680BD00BF10E000E080B582B059
:1022100000AF78607868FFF72DFF00BF0837BD4634
:1022200080BD80B586B000AF0346B9607A60FB73AD
:1022300000237B61FFF742FF78617A68B9687869AB
:10224000FFF790FF024697F90F3011461846FFF747
:102250005FFF00BF1837BD4680BD80B582B000AFBC
:102260000346FB7197F907301846FFF735FF00BFAB
:102270000837BD4680BD80B582B000AF7860786811
:10228000FFF7A2FF034618460837BD4680BD80B45D
:1022900085B000AF78600023FB737B6893F8213032
:1022A000022B08D07B6804229A637B68002283F8A3
:1022B0002020012320E07B681B681A687B681B686C
:1022C00022F00E021A607B681B681A687B681B6824
:1022D00022F001021A607B681A6C7B68DB6B0121BB
:1022E00001FA02F25A607B68012283F821207B68A0
:1022F000002283F82020FB7B18461437BD4680BCA3
:102300007047000080B584B000AF78600023FB7395
:102310007B6893F82130022B05D07B6804229A63F6
:102320000123FB7351E07B681B681A687B681B689C
:1023300022F00E021A607B681B681A687B681B68B3
:1023400022F001021A607B681B68224A934229D05E
:102350007B681B68204A934222D07B681B681F4A17
:1023600093421AD07B681B681D4A934212D07B6847
:102370001B681C4A93420AD07B681B681A4A934226
:1023800002D14FF480130EE04FF080730BE04FF456
:10239000803308E04FF4805305E04FF4807302E08F
:1023A000102300E00123114A53607B68012283F867
:1023B00021207B68002283F820207B685B6B002B48
:1023C00003D07B685B6B78689847FB7B18461037B7
:1023D000BD4680BD080002401C00024030000240A3
:1023E00044000240580002406C00024000000240DD
:1023F00080B48BB000AF7860396000237B6200232B
:102400003B6269E101227B6A02FA03F3FB613B68EC
:102410001B68FA691340BB61BA69FB699A4240F0D4
:1024200058813B685B689A4A93425ED0984A9342CF
:1024300075D8984A934258D0964A93426FD8964A94
:10244000934252D0944A934269D8944A93424CD0D2
:10245000924A934263D8924A934246D0904A93421A
:102460005DD8122B2AD8122B59D801A252F823F08A
:10247000EB240008C5240008D7240008192500080B
:102480001F2500081F2500081F2500081F2500081C
:102490001F2500081F2500081F2500081F2500080C
:1024A0001F2500081F2500081F2500081F250008FC
:1024B0001F250008CD240008E1240008794A934232
:1024C00013D02CE03B68DB683B6229E03B68DB68AB
:1024D00004333B6224E03B68DB6808333B621FE067
:1024E0003B68DB680C333B621AE03B689B68002B5F
:1024F00002D104233B6213E03B689B68012B05D1AA
:1025000008233B627B68FA691A6109E008233B6291
:102510007B68FA695A6103E000233B6200E000BF78
:10252000BB69FF2B01D87B6801E07B6804337B61CA
:10253000BB69FF2B02D87B6A9B0002E07B6A083BE9
:102540009B003B617B691A680F213B6901FA03F329
:10255000DB431A40396A3B6901FA03F31A437B698A
:102560001A603B685B6803F08053002B00F0B18079
:102570004D4B9B694C4A43F0010393614A4B9B6965
:1025800003F00103BB60BB68484A7B6A9B080233C7
:1025900052F82330FB607B6A03F003039B000F2299
:1025A00002FA03F3DB43FA681340FB607B68404A9E
:1025B000934213D07B683F4A93420DD07B683E4ADA
:1025C000934207D07B683D4A934201D1032306E042
:1025D000042304E0022302E0012300E000237A6ADE
:1025E00002F0030292009340FA681343FB602F4904
:1025F0007B6A9B080233FA6841F823203B685B68DA
:1026000003F48033002B06D02D4B1A682C49BB698C
:1026100013430B6006E02A4B1A68BB69DB43284969
:1026200013400B603B685B6803F40033002B06D05B
:10263000234B5A682249BB6913434B6006E0204B89
:102640005A68BB69DB431E4913404B603B685B68BB
:1026500003F48013002B06D0194B9A681849BB6904
:1026600013438B6006E0164B9A68BB69DB43144941
:1026700013408B603B685B6803F40013002B21D090
:102680000F4BDA680E49BB691343CB6021E000BFF2
:102690000000321000003110000022100000211054
:1026A0000000121000001110001002400000014054
:1026B00000080140000C01400010014000140140DE
:1026C000000401400B4BDA68BB69DB430949134046
:1026D000CB607B6A01337B623B681A687B6A22FAB3
:1026E00003F3002B7FF48EAE00BF00BF2C37BD4636
:1026F00080BC70470004014080B485B000AF7860B2
:102700000B467B807B689A687B881340002B02D045
:102710000123FB7301E00023FB73FB7B1846143796
:10272000BD4680BC704780B483B000AF78600B4674
:102730007B8013467B707B78002B03D07A887B6884
:102740001A6103E07B881A047B681A6100BF0C37AA
:10275000BD4680BC704780B485B000AF78600B4642
:102760007B807B68DB68FB607A88FB6813401A0417
:10277000FB68D9437B880B401A437B681A6100BF12
:102780001437BD4680BC704780B586B000AF786016
:102790007B68002B01D101236CE27B681B6803F08E
:1027A0000103002B00F08780924B5B6803F00C0361
:1027B000042B0CD08F4B5B6803F00C03082B12D159
:1027C0008C4B5B6803F48033B3F5803F0BD1894BAE
:1027D0001B6803F40033002B6CD07B685B68002B14
:1027E00068D1012346E27B685B68B3F5803F06D180
:1027F000804B1B687F4A43F4803313602EE07B6874
:102800005B68002B0CD17B4B1B687A4A23F4803326
:102810001360784B1B68774A23F4802313601DE014
:102820007B685B68B3F5A02F0CD1724B1B68714AB3
:1028300043F4802313606F4B1B686E4A43F480336C
:1028400013600BE06B4B1B686A4A23F48033136000
:10285000684B1B68674A23F4802313607B685B68BE
:10286000002B13D0FFF7FCFB386108E0FFF7F8FB03
:1028700002463B69D31A642B01D90323FAE15D4B6D
:102880001B6803F40033002BF0D014E0FFF7E8FBE3
:10289000386108E0FFF7E4FB02463B69D31A642B7A
:1028A00001D90323E6E1534B1B6803F40033002BEB
:1028B000F0D100E000BF7B681B6803F00203002B2F
:1028C00063D04C4B5B6803F00C03002B0BD0494BDF
:1028D0005B6803F00C03082B1CD1464B5B6803F4C8
:1028E0008033002B16D1434B1B6803F00203002BEF
:1028F00005D07B681B69012B01D00123BAE13D4B58
:102900001B6823F0F8027B685B69DB0039491343DD
:102910000B603AE07B681B69002B20D0364B01220C
:102920001A60FFF79DFB386108E0FFF799FB02464C
:102930003B69D31A022B01D903239BE12D4B1B6862
:1029400003F00203002BF0D02A4B1B6823F0F8029F
:102950007B685B69DB00274913430B6015E0264B5E
:1029600000221A60FFF77CFB386108E0FFF778FB74
:1029700002463B69D31A022B01D903237AE11D4B8E
:102980001B6803F00203002BF0D17B681B6803F087
:102990000803002B3AD07B689B69002B19D0174B9A
:1029A00001221A60FFF75CFB386108E0FFF758FB73
:1029B00002463B69D31A022B01D903235AE10D4B7E
:1029C0005B6A03F00203002BF0D0012000F0D8FA7C
:1029D0001CE00A4B00221A60FFF742FB38610FE04F
:1029E000FFF73EFB02463B69D31A022B08D90323AB
:1029F00040E100BF00100240000042428004424219
:102A00009E4B5B6A03F00203002BE9D17B681B68D5
:102A100003F00403002B00F0A6800023FB75974B06
:102A2000DB6903F08053002B0DD1944BDB69934A93
:102A300043F08053D361914BDB6903F08053BB605B
:102A4000BB680123FB758E4B1B6803F48073002B5E
:102A500018D18B4B1B688A4A43F480731360FFF7CD
:102A6000FFFA386108E0FFF7FBFA02463B69D31A28
:102A7000642B01D90323FDE0814B1B6803F48073B1
:102A8000002BF0D07B68DB68012B06D17B4B1B6AE7
:102A90007A4A43F0010313622DE07B68DB68002B68
:102AA0000CD1764B1B6A754A23F001031362734BFA
:102AB0001B6A724A23F0040313621CE07B68DB6824
:102AC000052B0CD16D4B1B6A6C4A43F00403136257
:102AD0006A4B1B6A694A43F0010313620BE0674BC0
:102AE0001B6A664A23F001031362644B1B6A634A44
:102AF00023F0040313627B68DB68002B15D0FFF71B
:102B0000AFFA38610AE0FFF7ABFA02463B69D31A25
:102B100041F28832934201D90323ABE0574B1B6A41
:102B200003F00203002BEED014E0FFF799FA3861AE
:102B30000AE0FFF795FA02463B69D31A41F2883260
:102B4000934201D9032395E04C4B1B6A03F0020327
:102B5000002BEED1FB7D012B05D1484BDB69474AA9
:102B600023F08053D3617B68DB69002B00F0818008
:102B7000424B5B6803F00C03082B61D07B68DB6978
:102B8000022B46D13F4B00221A60FFF769FA3861E9
:102B900008E0FFF765FA02463B69D31A022B01D918
:102BA000032367E0354B1B6803F00073002BF0D163
:102BB0007B681B6AB3F5803F08D1304B5B6823F418
:102BC00000327B689B682D4913434B602B4B5B683D
:102BD00023F474127B68196A7B685B6A0B4327498C
:102BE00013434B60274B01221A60FFF739FA386113
:102BF00008E0FFF735FA02463B69D31A022B01D9E8
:102C0000032337E01D4B1B6803F00073002BF0D04B
:102C10002FE01C4B00221A60FFF722FA386108E00F
:102C2000FFF71EFA02463B69D31A022B01D9032390
:102C300020E0124B1B6803F00073002BF0D118E06A
:102C40007B68DB69012B01D1012313E00B4B5B682F
:102C5000FB60FB6803F480327B681B6A9A4206D1F2
:102C6000FB6803F470127B685B6A9A4201D001230F
:102C700000E0002318461837BD4680BD0010024012
:102C8000007000406000424280B584B000AF7860C0
:102C900039607B68002B01D10123D0E06A4B1B68AF
:102CA00003F007033A689A4210D9674B1B6823F078
:102CB000070265493B6813430B60634B1B6803F0D5
:102CC00007033A689A4201D00123B8E07B681B6889
:102CD00003F00203002B20D07B681B6803F0040381
:102CE000002B05D0594B5B68584A43F4E0635360AE
:102CF0007B681B6803F00803002B05D0534B5B680F
:102D0000524A43F460535360504B5B6823F0F00227
:102D10007B689B684D4913434B607B681B6803F0DD
:102D20000103002B40D07B685B68012B07D1474B28
:102D30001B6803F40033002B15D101237FE07B686F
:102D40005B68022B07D1414B1B6803F00073002B1B
:102D500009D1012373E03D4B1B6803F00203002BF4
:102D600001D101236BE0394B5B6823F003027B68E0
:102D70005B68364913434B60FFF772F9F8600AE06D
:102D8000FFF76EF90246FB68D31A41F2883293428C
:102D900001D9032353E02D4B5B6803F00C027B68E1
:102DA0005B689B009A42EBD1274B1B6803F007033B
:102DB0003A689A4210D2244B1B6823F0070222493A
:102DC0003B6813430B60204B1B6803F007033A6812
:102DD0009A4201D0012332E07B681B6803F00403B0
:102DE000002B08D0194B5B6823F4E0627B68DB683A
:102DF000164913434B607B681B6803F00803002BE4
:102E000009D0124B5B6823F460527B681B69DB00BE
:102E10000E4913434B6000F021F802460B4B5B68F0
:102E20001B0903F00F030A49CB5C22FA03F3094A9A
:102E30001360094B1B681846FFF7D0F800231846AB
:102E40001037BD4680BD00BF002002400010024088
:102E5000F0460008240000202C00002090B48AB026
:102E600000AF2A4B3C1D0FCB84E80F0040F201233A
:102E70003B800023FB610023BB6100237B620023B6
:102E80007B6100233B62224B5B68FB61FB6903F0C3
:102E90000C03042B02D0082B03D02DE01D4B3B620A
:102EA0002DE0FB699B0C03F00F0307F1280213448C
:102EB00013F8243C7B61FB6903F48033002B13D0AF
:102EC000134B5B685B0C03F0010307F1280213440A
:102ED00013F8283CBB617B690E4A02FB03F2BB6915
:102EE000B2FBF3F37B6204E07B690B4A02FB03F362
:102EF0007B627B6A3B6202E0064B3B6200BF3B6A3F
:102F000018462837BD4690BC704700BFE046000811
:102F10000010024000127A0000093D0080B400AFAA
:102F2000024B1B681846BD4680BC70472400002039
:102F300080B500AFFFF7F2FF0246054B5B681B0A46
:102F400003F007030349CB5C22FA03F3184680BD64
:102F5000001002400047000880B500AFFFF7DEFF19
:102F60000246054B5B68DB0A03F007030349CB5CB1
:102F700022FA03F3184680BD001002400047000803
:102F800080B485B000AF78600A4B1B680A4AA2FB88
:102F900003235B0A7A6802FB03F3FB6000BFFB6854
:102FA0005A1EFA60002BF9D100BF00BF1437BD468E
:102FB00080BC704724000020D34D621080B582B0E1
:102FC00000AF78607B68002B01D1012341E07B6872
:102FD00093F83D30DBB2002B06D17B68002283F8EA
:102FE0003C207868FEF796FA7B68022283F83D2041
:102FF0007B681A687B6804331946104600F028FC89
:103000007B68012283F846207B68012283F83E20FA
:103010007B68012283F83F207B68012283F84020EF
:103020007B68012283F841207B68012283F84220DB
:103030007B68012283F843207B68012283F84420C7
:103040007B68012283F845207B68012283F83D20BC
:10305000002318460837BD4680BD000080B485B007
:1030600000AF78607B6893F83D30DBB2012B01D074
:1030700001233AE07B68022283F83D207B681B68CD
:10308000DA687B681B6842F00102DA607B681B68C3
:10309000184A93420ED07B681B68B3F1804F09D069
:1030A0007B681B68144A934204D07B681B68134AF0
:1030B000934211D17B681B689B6803F00703FB6098
:1030C000FB68062B10D07B681B681A687B681B683E
:1030D00042F001021A6007E07B681B681A687B688F
:1030E0001B6842F001021A60002318461437BD46DF
:1030F00080BC7047002C01400004004000080040E4
:1031000080B582B000AF78607B68002B01D10123CD
:1031100041E07B6893F83D30DBB2002B06D17B6841
:10312000002283F83C20786800F039F87B6802229E
:1031300083F83D207B681A687B6804331946104683
:1031400000F086FB7B68012283F846207B68012221
:1031500083F83E207B68012283F83F207B680122B0
:1031600083F840207B68012283F841207B6801229C
:1031700083F842207B68012283F843207B68012288
:1031800083F844207B68012283F845207B68012274
:1031900083F83D20002318460837BD4680BD80B423
:1031A00083B000AF786000BF0C37BD4680BC70476D
:1031B00080B584B000AF786039603B68002B09D1DE
:1031C0007B6893F83E30DBB2012B14BF0123002350
:1031D000DBB222E03B68042B09D17B6893F83F30D7
:1031E000DBB2012B14BF01230023DBB215E03B68E7
:1031F000082B09D17B6893F84030DBB2012B14BF58
:1032000001230023DBB208E07B6893F84130DBB296
:10321000012B14BF01230023DBB2002B01D00123BB
:103220005EE03B68002B04D17B68022283F83E20DD
:1032300013E03B68042B04D17B68022283F83F2013
:103240000BE03B68082B04D17B68022283F8402006
:1032500003E07B68022283F841207B681B6801221F
:103260003968184600F074FD7B681B681E4A93425B
:1032700007D17B681B685A6C7B681B6842F400426C
:103280005A647B681B68184A93420ED07B681B689F
:10329000B3F1804F09D07B681B68144A934204D075
:1032A0007B681B68124A934211D17B681B689B683C
:1032B00003F00703FB60FB68062B10D07B681B68DC
:1032C0001A687B681B6842F001021A6007E07B689D
:1032D0001B681A687B681B6842F001021A600023B1
:1032E00018461037BD4680BD002C01400004004048
:1032F0000008004080B582B000AF78607B681B6832
:103300001B6903F00203022B22D17B681B68DB6878
:1033100003F00203022B1BD17B681B686FF00202D3
:103320001A617B6801221A777B681B689B6903F02E
:103330000303002B03D0786800F06FFA05E078688B
:1033400000F062FA786800F071FA7B6800221A7760
:103350007B681B681B6903F00403042B22D17B6884
:103360001B68DB6803F00403042B1BD17B681B681C
:103370006FF004021A617B6802221A777B681B686F
:103380009B6903F44073002B03D0786800F045FA82
:1033900005E0786800F038FA786800F047FA7B6852
:1033A00000221A777B681B681B6903F00803082B4F
:1033B00022D17B681B68DB6803F00803082B1BD154
:1033C0007B681B686FF008021A617B6804221A7719
:1033D0007B681B68DB6903F00303002B03D078686C
:1033E00000F01BFA05E0786800F00EFA786800F04B
:1033F0001DFA7B6800221A777B681B681B6903F043
:103400001003102B22D17B681B68DB6803F01003CC
:10341000102B1BD17B681B686FF010021A617B6850
:1034200008221A777B681B68DB6903F44073002B62
:1034300003D0786800F0F1F905E0786800F0E4F96D
:10344000786800F0F3F97B6800221A777B681B68C4
:103450001B6903F00103012B0ED17B681B68DB683D
:1034600003F00103012B07D17B681B686FF0010299
:103470001A617868FEF70AF87B681B681B6903F01D
:103480008003802B0ED17B681B68DB6803F0800310
:10349000802B07D17B681B686FF080021A61786807
:1034A00000F0E1FC7B681B681B6903F04003402BC4
:1034B0000ED17B681B68DB6803F04003402B07D10B
:1034C0007B681B686FF040021A61786800F0B7F9FA
:1034D0007B681B681B6903F02003202B0ED17B68DF
:1034E0001B68DB6803F02003202B07D17B681B6877
:1034F0006FF020021A61786800F0ACFC00BF08375A
:10350000BD4680BD80B584B000AFF860B9607A6018
:10351000FB6893F83C30012B01D10223ACE0FB683F
:10352000012283F83C207B680C2B00F29F8001A2D3
:1035300052F823F0693500086D3600086D36000832
:103540006D360008A93500086D3600086D36000894
:103550006D360008EB3500086D3600086D36000842
:103560006D3600082B360008FB681B68B9681846E2
:1035700000F0D0F9FB681B689A69FB681B6842F091
:1035800008029A61FB681B689A69FB681B6822F055
:1035900004029A61FB681B689969BB681A69FB6839
:1035A0001B680A439A6162E0FB681B68B9681846A9
:1035B00000F016FAFB681B689A69FB681B6842F406
:1035C00000629A61FB681B689A69FB681B6822F4B9
:1035D00080629A61FB681B689969BB681B691A0263
:1035E000FB681B680A439A6141E0FB681B68B96885
:1035F000184600F05FFAFB681B68DA69FB681B6815
:1036000042F00802DA61FB681B68DA69FB681B6834
:1036100022F00402DA61FB681B68D969BB681A6989
:10362000FB681B680A43DA6121E0FB681B68B96824
:10363000184600F0A9FAFB681B68DA69FB681B688A
:1036400042F40062DA61FB681B68DA69FB681B6898
:1036500022F48062DA61FB681B68D969BB681B6968
:103660001A02FB681B680A43DA6100E000BFFB68CE
:10367000002283F83C20002318461037BD4680BD49
:1036800080B584B000AF786039607B6893F83C30D7
:10369000012B01D10223B3E07B68012283F83C2097
:1036A0007B68022283F83D207B681B689B68FB6077
:1036B000FB6823F07703FB60FB6823F47F43FB6028
:1036C0007B681B68FA689A603B681B68B3F5005F0B
:1036D0003ED0B3F5005F00F28780B3F5805F00F065
:1036E0008580B3F5805F7FD8702B1AD0702B7BD884
:1036F000602B50D0602B77D8502B3CD0502B73D8F8
:10370000402B58D0402B6FD8302B64D0302B6BD847
:10371000202B60D0202B67D8002B5CD0102B5AD0E8
:1037200062E07B6818683B6899683B685A683B6848
:10373000DB6800F0EEFA7B681B689B68FB60FB6847
:1037400043F07703FB607B681B68FA689A604EE081
:103750007B6818683B6899683B685A683B68DB6817
:1037600000F0D7FA7B681B689A687B681B6842F494
:1037700080429A603BE07B6818683B6859683B6808
:10378000DB681A4600F04EFA7B681B685021184629
:1037900000F0A5FA2BE07B6818683B6859683B6825
:1037A000DB681A4600F06CFA7B681B6860211846DB
:1037B00000F095FA1BE07B6818683B6859683B6825
:1037C000DB681A4600F02EFA7B681B684021184619
:1037D00000F085FA0BE07B681A683B681B681946A5
:1037E000104600F07CFA02E000BF00E000BF7B68FA
:1037F000012283F83D207B68002283F83C200023CF
:1038000018461037BD4680BD80B483B000AF7860E5
:1038100000BF0C37BD4680BC704780B483B000AF9A
:10382000786000BF0C37BD4680BC704780B483B061
:1038300000AF786000BF0C37BD4680BC704780B4D5
:1038400083B000AF786000BF0C37BD4680BC7047C6
:1038500080B485B000AF786039607B681B68FB601E
:103860007B68294A93420BD07B68B3F1804F07D025
:103870007B68264A934203D07B68254A934208D14D
:10388000FB6823F07003FB603B685B68FA681343D6
:10389000FB607B681C4A93420BD07B68B3F1804F7E
:1038A00007D07B68194A934203D07B68184A934239
:1038B00008D1FB6823F44073FB603B68DB68FA685F
:1038C0001343FB60FB6823F080023B685B69134392
:1038D000FB607B68FA681A603B689A687B68DA620A
:1038E0003B681A687B689A627B68074A934203D1F7
:1038F0003B681A697B681A637B6801225A6100BFC2
:103900001437BD4680BC7047002C014000040040C5
:103910000008004080B487B000AF786039607B68F1
:103920001B6A23F001027B681A627B681B6A7B6159
:103930007B685B683B617B689B69FB60FB6823F08D
:103940007003FB60FB6823F00303FB603B681B68AC
:10395000FA681343FB607B6923F002037B613B68D9
:103960009B687A6913437B617B681C4A93420CD144
:103970007B6923F008037B613B68DB687A6913434A
:103980007B617B6923F004037B617B68134A93426C
:1039900011D13B6923F480733B613B6923F40073CD
:1039A0003B613B685B693A6913433B613B689B69D8
:1039B0003A6913433B617B683A695A607B68FA68ED
:1039C0009A613B685A687B685A637B687A691A62B5
:1039D00000BF1C37BD4680BC704700BF002C0140B3
:1039E00080B487B000AF786039607B681B6A23F0D1
:1039F00010027B681A627B681B6A7B617B685B686C
:103A00003B617B689B69FB60FB6823F4E043FB60E0
:103A1000FB6823F44073FB603B681B681B02FA6879
:103A20001343FB607B6923F020037B613B689B6849
:103A30001B017A6913437B617B681D4A93420DD158
:103A40007B6923F080037B613B68DB681B017A693B
:103A500013437B617B6923F040037B617B68144ADD
:103A6000934213D13B6923F480633B613B6923F4A8
:103A700000633B613B685B699B003A6913433B61B0
:103A80003B689B699B003A6913433B617B683A69D9
:103A90005A607B68FA689A613B685A687B689A63E7
:103AA0007B687A691A6200BF1C37BD4680BC7047CC
:103AB000002C014080B487B000AF786039607B682B
:103AC0001B6A23F480727B681A627B681B6A7B61C5
:103AD0007B685B683B617B68DB69FB60FB6823F0AC
:103AE0007003FB60FB6823F00303FB603B681B680B
:103AF000FA681343FB607B6923F400737B613B68C6
:103B00009B681B027A6913437B617B681D4A934261
:103B10000DD17B6923F400637B613B68DB681B028A
:103B20007A6913437B617B6923F480637B617B68E3
:103B3000144A934213D13B6923F480533B613B69A0
:103B400023F400533B613B685B691B013A691343F3
:103B50003B613B689B691B013A6913433B617B688E
:103B60003A695A607B68FA68DA613B685A687B6830
:103B7000DA637B687A691A6200BF1C37BD4680BC75
:103B8000704700BF002C014080B487B000AF786060
:103B900039607B681B6A23F480527B681A627B68F9
:103BA0001B6A3B617B685B687B617B68DB69FB60F0
:103BB000FB6823F4E043FB60FB6823F44073FB6085
:103BC0003B681B681B02FA681343FB603B6923F4E4
:103BD00000533B613B689B681B033A6913433B619D
:103BE0007B680F4A934209D17B6923F480437B6150
:103BF0003B685B699B017A6913437B617B687A69E7
:103C00005A607B68FA68DA613B685A687B681A64B4
:103C10007B683A691A6200BF1C37BD4680BC70479A
:103C2000002C014080B487B000AFF860B9607A60C2
:103C3000FB681B6A7B61FB681B6A23F00102FB685F
:103C40001A62FB689B693B613B6923F0F0033B61AF
:103C50007B681B013A6913433B617B6923F00A03CC
:103C60007B617A69BB6813437B61FB683A699A613F
:103C7000FB687A691A6200BF1C37BD4680BC70477A
:103C800080B487B000AFF860B9607A60FB681B6AE7
:103C900023F01002FB681A62FB689B697B61FB687A
:103CA0001B6A3B617B6923F470437B617B681B0368
:103CB0007A6913437B613B6923F0A0033B61BB68D6
:103CC0001B013A6913433B61FB687A699A61FB689F
:103CD0003A691A6200BF1C37BD4680BC704780B489
:103CE00085B000AF786039607B689B68FB60FB68DB
:103CF00023F07003FB603A68FB68134343F007034B
:103D0000FB607B68FA689A6000BF1437BD4680BCD0
:103D1000704780B487B000AFF860B9607A603B60EC
:103D2000FB689B687B617B6923F47F437B613B6815
:103D30001A027B681A43BB6813437A6913437B6199
:103D4000FB687A699A6000BF1C37BD4680BC70472B
:103D500080B487B000AFF860B9607A60BB6803F0E8
:103D60001F03012202FA03F37B61FB681A6A7B6975
:103D7000DB431A40FB681A62FB681A6ABB6803F0EF
:103D80001F03796801FA03F31A43FB681A6200BF44
:103D90001C37BD4680BC704780B485B000AF7860EA
:103DA00039607B6893F83C30012B01D1022346E057
:103DB0007B68012283F83C207B68022283F83D2047
:103DC0007B681B685B68FB607B681B689B68BB60EB
:103DD000FB6823F07003FB603B681B68FA681343C1
:103DE000FB607B681B68FA685A607B681B68164A30
:103DF00093420ED07B681B68B3F1804F09D07B687B
:103E00001B68124A934204D07B681B68104A934295
:103E10000CD1BB6823F08003BB603B685B68BA6869
:103E20001343BB607B681B68BA689A607B68012299
:103E300083F83D207B68002283F83C20002318464D
:103E40001437BD4680BC7047002C01400004004080
:103E50000008004080B483B000AF786000BF0C372A
:103E6000BD4680BC704780B483B000AF786000BFAF
:103E70000C37BD4680BC704780B582B000AF78601B
:103E80007B68002B01D101233FE07B6893F83D3034
:103E9000DBB2002B06D17B68002283F83C207868D7
:103EA000FDF7AAFB7B68242283F83D207B681B6812
:103EB000DA687B681B6822F40052DA60786800F0E8
:103EC00049FB7B681B681A697B681B6822F4904277
:103ED0001A617B681B685A697B681B6822F02A029A
:103EE0005A617B681B68DA687B681B6842F4005281
:103EF000DA607B6800221A647B68202283F83D2008
:103F00007B68202283F83E20002318460837BD46F0
:103F100080BD000080B58AB000AF78607B681B6808
:103F20001B687B627B681B68DB683B627B681B6885
:103F30005B69FB610023BB6100237B617B6A03F04B
:103F40000F03BB61BB69002B0DD17B6A03F020031B
:103F5000002B08D03B6A03F02003002B03D07868C5
:103F600000F04FFA7BE1BB69002B00F0B180FB69E8
:103F700003F00103002B05D13B6A03F49073002B7F
:103F800000F0A6807B6A03F00103002B0AD03B6A95
:103F900003F48073002B05D07B681B6C43F0010297
:103FA0007B681A647B6A03F00403002B0AD0FB6968
:103FB00003F00103002B05D07B681B6C43F0020269
:103FC0007B681A647B6A03F00203002B0AD0FB694A
:103FD00003F00103002B05D07B681B6C43F0040247
:103FE0007B681A647B6A03F00803002B0FD03B6ADE
:103FF00003F02003002B04D1FB6903F00103002B25
:1040000005D07B681B6C43F008027B681A647B68F0
:104010001B6C002B00F01E817B6A03F02003002B39
:1040200007D03B6A03F02003002B02D0786800F031
:10403000E8F97B681B685B6903F04003002B14BF41
:1040400001230023DBB27B617B681B6C03F0080358
:10405000002B02D17B69002B31D0786800F02AF95F
:104060007B681B685B6903F04003002B23D07B68EF
:104070001B685A697B681B6822F040025A617B68A2
:104080009B6B002B13D07B689B6B764A5A637B68D3
:104090009B6B1846FEF736F90346002B16D07B685B
:1040A0009B6B5B6B7A68926B104698470EE0786862
:1040B00000F0ECF80AE0786800F0E8F806E07868CC
:1040C00000F0E4F87B6800221A64C3E000BFC1E09E
:1040D0007B681B6B012B40F0A1807B6A03F010030F
:1040E000002B00F09B803B6A03F01003002B00F0D4
:1040F00095800023FB607B681B681B68FB607B6806
:104100001B685B68FB60FB687B681B685B6903F08E
:104110004003002B4ED07B689B6B1B685B683B8227
:104120003B8A002B00F098807B689B8D3A8A9A42EC
:1041300080F092807B683A8ADA857B689B6B9B690A
:10414000202B2BD07B681B68DA687B681B6822F405
:104150008072DA607B681B685A697B681B6822F092
:1041600001025A617B681B685A697B681B6822F0F0
:1041700040025A617B68202283F83E207B6800223F
:104180001A637B681B68DA687B681B6822F0100280
:10419000DA607B689B6B1846FEF779F87B689A8D2E
:1041A0007B68DB8D9BB2D31A9BB21946786800F00E
:1041B00076F851E07B689A8D7B68DB8D9BB2D31AD1
:1041C0007B827B68DB8D9BB2002B47D07B8A002BE8
:1041D00044D07B681B68DA687B681B6822F49072A5
:1041E000DA607B681B685A697B681B6822F00102F1
:1041F0005A617B68202283F83E207B6800221A6384
:104200007B681B68DA687B681B6822F01002DA6042
:104210007B8A1946786800F042F81FE07B6A03F059
:104220008003002B08D03B6A03F08003002B03D0EF
:10423000786800F07FF812E07B6A03F04003002BFF
:104240000DD03B6A03F04003002B08D0786800F0E3
:10425000C0F804E000BF02E000BF00E000BF283764
:10426000BD4680BD0D43000880B483B000AF7860C8
:1042700000BF0C37BD4680BC704780B483B000AF30
:10428000786000BF0C37BD4680BC704780B483B0F7
:1042900000AF786000BF0C37BD4680BC704780B46B
:1042A00083B000AF78600B467B8000BF0C37BD4603
:1042B00080BC704780B483B000AF78607B681B68B7
:1042C000DA687B681B6822F49072DA607B681B688E
:1042D0005A697B681B6822F001025A617B681B6B7C
:1042E000012B07D17B681B68DA687B681B6822F0AA
:1042F0001002DA607B68202283F83E207B6800226F
:104300001A6300BF0C37BD4680BC704780B584B0CF
:1043100000AF78607B685B6AFB60FB680022DA852F
:10432000FB680022DA84F868FFF7B0FF00BF10379F
:10433000BD4680BD80B485B000AF78607B6893F8DF
:104340003D30DBB2212B3ED17B689B68B3F5805FAB
:1043500014D17B681B69002B10D17B681B6AFB6042
:10436000FB681B881A467B681B68C2F308025A6008
:104370007B681B6A9A1C7B681A6208E07B681B6A70
:10438000591C7A6811621A787B681B685A607B68CE
:10439000DB8C9BB2013B9BB27A681946D184002B1F
:1043A0000FD17B681B68DA687B681B6822F080028B
:1043B000DA607B681B68DA687B681B6842F0400241
:1043C000DA60002300E0022318461437BD4680BCA3
:1043D000704780B582B000AF78607B681B68DA6890
:1043E0007B681B6822F04002DA607B68202283F839
:1043F0003D207868FFF738FF002318460837BD4690
:1044000080BD80B586B000AF78607B6893F83E30A1
:10441000DBB2222B40F099807B689B68B3F5805F0C
:1044200017D17B681B69002B13D100237B617B684C
:104430009B6A3B617B681B685B689BB2C3F30803A4
:104440009AB23B691A807B689B6A9A1C7B689A6265
:1044500026E07B689B6A7B6100233B617B689B68ED
:10446000B3F5805F07D07B689B68002B0AD17B681F
:104470001B69002B06D17B681B685B68DAB27B691D
:104480001A7008E07B681B685B68DBB203F07F038F
:10449000DAB27B691A707B689B6A5A1C7B689A62E5
:1044A0007B68DB8D9BB2013B9BB27A681946D18554
:1044B000002B48D17B681B68DA687B681B6822F098
:1044C0002002DA607B681B68DA687B681B6822F46C
:1044D0008072DA607B681B685A697B681B6822F00F
:1044E00001025A617B68202283F83E207B681B6BA7
:1044F000012B23D17B6800221A637B681B68DA6872
:104500007B681B6822F01002DA607B681B681B68FE
:1045100003F01003102B0AD10023FB607B681B689B
:104520001B68FB607B681B685B68FB60FB687B68E3
:104530009B8D19467868FFF7B2FE02E07868FFF7B6
:104540009CFE002302E0002300E0022318461837F7
:10455000BD4680BD80B584B000AF78607B681B68C5
:104560001B6923F440517B68DA687B681B680A4347
:104570001A617B689A687B681B691A437B685B6970
:104580001343BB607B681B68DB6823F4B05323F0E4
:104590000C037A681268B9680B43D3607B681B68A8
:1045A0005B6923F440717B689A697B681B680A43E6
:1045B0005A617B681B682C4A934203D1FEF7CCFCFE
:1045C000F86002E0FEF7B4FCF860FA6813469B005E
:1045D00013449A001A447B685B689B00B2FBF3F3B8
:1045E000224AA2FB03235B091901FA6813469B00C8
:1045F00013449A001A447B685B689B00B2FBF3F299
:104600001A4BA3FB02035B09642000FB03F3D31ADC
:104610001B013233154AA2FB03235B0903F0F003AD
:104620001944FA6813469B0013449A001A447B68A5
:104630005B689B00B2FBF3F20C4BA3FB02035B092C
:10464000642000FB03F3D31A1B013233074AA2FB99
:1046500003235B0903F00F027B681B680A449A601E
:1046600000BF1037BD4680BD003801401F85EB51AB
:1046700070B500260C4D0D4C641BA410A64209D148
:1046800000F022F800260A4D0A4C641BA410A64232
:1046900005D170BD55F8043B98470136EEE755F853
:1046A000043B98470136F2E708470008084700082E
:1046B000084700080C47000803460244934200D113
:1046C000704703F8011BF9E7F8B500BFF8BC08BC58
:1046D0009E467047F8B500BFF8BC08BC9E467047C0
:1046E00002030405060708090A0B0C0D0E0F101033
:1046F0000000000000000000010203040607080992
:084700000000000001020304A7
:04470800350100086F
:04470C00110100088F
:1047100088130000D0070000B80B000088130000C9
:10472000D0070000B80B00000101010101010101E7
:10473000010101010024F4000A0000001000000043
:044740000100000074
:0400000508001F656B
:00000001FF
